{
  "contractName": "_LendingPool",
  "abi": [
    {
      "inputs": [],
      "name": "receiveFromLoan",
      "outputs": [],
      "stateMutability": "payable",
      "type": "function"
    }
  ],
  "bytecode": "0x6080604052348015600f57600080fd5b50606180601d6000396000f3fe608060405260043610601c5760003560e01c8063e3d6d085146021575b600080fd5b60276029565b005b56fea2646970667358221220d5a1712460153165badb36198f2e9863537ed73ef27bce7ee513e160833b071e64736f6c63430008010033",
  "deployedBytecode": "0x608060405260043610601c5760003560e01c8063e3d6d085146021575b600080fd5b60276029565b005b56fea2646970667358221220d5a1712460153165badb36198f2e9863537ed73ef27bce7ee513e160833b071e64736f6c63430008010033",
  "immutableReferences": {},
  "source": "// SPDX-License-Identifier: MIT\npragma solidity ^0.8.0;\n\n\ncontract CreditToken {\n    \n    //transfer function\n    function transferFrom(address, address, uint ) public returns (bool ) {}\n    function balanceOf(address) public view  returns (uint ) {}\n    function allowance(address, address ) public view  returns (uint ) {}\n    function transfer(address , uint ) external returns (bool ){}\n    function whitelistAddress (address ) external {}\n    function approve(address, address, uint) external returns (bool){}\n    function mint(address, uint) external {}\n    function burn(address, uint) external {}\n}\n\ncontract _LendingPool{\n    function receiveFromLoan() external payable{}\n}\n\ncontract Loan{\n    \n    CreditToken constant public creditToken = CreditToken(0x80cDF946c1c86B7eee50743E2bc9a6d7d9ed597A);\n    _LendingPool immutable public lendingPool;\n    uint immutable public collateralRequired;\n    uint immutable public creditTokensRequired;\n    uint immutable public creationTime;\n    address payable immutable  public borrower;\n    uint immutable public loanAmount;\n    uint immutable public loanTerm;\n    uint public lastPayment;\n    int public principal;\n    uint public paidBack;\n    uint immutable public interestRate;\n    uint public interestsPaid;\n    uint public spamFee = 150;\n    uint public paidFees;\n    uint public creditChange;\n    \n    \n    enum States {\n        WaitingOnCollateral,\n        TakingStake,\n        DisbursingLoan,\n        Active,\n        Late,\n        PaidInFull,\n        Defaulted\n    }\n    \n    States public state;\n    \n    //https://ethereum.stackexchange.com/questions/59132/deploy-contract-with-ether\n    constructor ( \n        //CreditToken tokenAddr, //the address of the credittoken's contract. (only development phase. Should be hardcoded in production time)\n        uint _collateralRequired, //the Ether amount of the collateral in weis\n        address payable _borrower, //address of the borroweaddress\n        uint _creditTokensRequired, // the Credit Tokens neccessary to put up as stake\n        uint _loanAmount, //The amount of Ether that is going to be lended to the borrower (weis)\n        uint _loanTerm, // in days\n        uint _interestRate // in percentual points muliplied by 100 (i.e. 1.5% = 150)\n        )\n        payable{ // The constructor is payable because it will receive the Ether to be lended at creation time\n        \n        require(msg.value == _loanAmount); \n        \n        creationTime = block.timestamp;\n        lendingPool = _LendingPool(msg.sender);\n        lastPayment = block.timestamp;\n        collateralRequired = _collateralRequired;\n        loanTerm = _loanTerm;\n        borrower = _borrower;\n        loanAmount = _loanAmount;\n        creditTokensRequired = _creditTokensRequired;\n        interestRate = _interestRate;\n        \n        state = States.WaitingOnCollateral;\n    }\n    \n    modifier onlyOnState(States _state) {\n        require(state == _state,\"Function cannot be called at this time.\");\n        _;\n    }\n\n    function nextState() internal {\n        state = States(uint(state) + 1);\n    }\n    \n    //After this contract has been created, the borrower must put up the collateral by sending ETH\n    //to the address of the Loan Contract which will be handled by this method and initiate the \n    //disbursement of the loan.\n    receive() external payable{\n        \n        if (state == States.WaitingOnCollateral){\n            takeCollateralDisburseLoan();\n        }\n        else if(state == States.Active){\n            receivePayment();\n        }\n    }\n    \n    function takeCollateralDisburseLoan() internal{\n        \n        uint thisSpamFee = (loanAmount * spamFee)/10000;\n        require(msg.value >= (collateralRequired + thisSpamFee) * 1 wei, \"Your collateral is not enough for this loan.\");\n        \n        paidFees += thisSpamFee;\n        uint collateralSent = msg.value - thisSpamFee;\n        \n        //..Now that the borrower has put the ETH as collateral, we take the CreditTokens for the loan.\n        nextState();\n        getStake();\n        \n        //and disburse the loan\n        nextState();\n        disburseLoan();\n        \n        principal = int(loanAmount);\n        //Taking care of excesive Ether sent: //ALSO, TAKE CARE OF ATTACK WHERE THE EXCESIVE ETHER WOULD BE ENOUH TO PAYOFF THE DEBT\n        if(collateralSent > collateralRequired){\n            principal -= int(collateralSent - collateralRequired);\n            paidBack += (collateralSent - collateralRequired);\n        }\n        \n        nextState();\n    }\n    \n    function receivePayment() internal{\n        // the payment has to be able to cover at least the interests borrowed\n            uint interests = calculateInteresestsofPayment();\n            require( msg.value >= interests, \"Your payment has to cover at least the interests owed today.\" );\n            interestsPaid += interests;\n            uint toPrincipal = msg.value - interests;\n            principal -= int(toPrincipal);\n            paidBack += toPrincipal;\n            if(principal <= 0 ){\n                state = States.PaidInFull;\n                if (principal<0){\n                    paidBack -= uint(-principal);\n                }\n                closeLoan();\n            }\n            lastPayment = block.timestamp;\n    }\n    \n    function closeLoan()internal onlyOnState(States.PaidInFull){\n        \n        require(payPool(),\"Could not pay pool\");\n        require(returnAllCreditTokens(),\"Could not return credit tokens\");\n        \n        require(returnCollateral(),\"Could return collateral\");\n        require(changeCreditScore(),\"Could not change credit score\");\n    }\n        \n    function getStake() public payable onlyOnState( States.TakingStake) returns (bool success){\n        \n        uint256 allowance = creditToken.allowance(borrower, address(this));\n        require(allowance >= creditTokensRequired, \"Check the token allowance\");\n        creditToken.transferFrom(borrower, address(this), creditTokensRequired);\n        return true;\n    }\n    \n    function getCreditTokenBalance() public view  returns (uint balance) {\n        return creditToken.balanceOf(address(this));\n    }\n    \n    function getEtherBalance() public view returns (uint){\n        return address(this).balance;\n    }\n    \n    function disburseLoan() private onlyOnState( States.DisbursingLoan ) returns(bool success){\n        borrower.transfer(loanAmount);\n        principal = int(loanAmount);\n        return true;\n    }\n    \n    function returnCollateral() public returns(bool success){ //SET TO PRIVATE!!!\n        //borrower.transfer(collateralRequired);\n        //We return to the borrower all the money left in the loan since we have already\n        //paid the pool (interests, fees and loanAmount)\n        borrower.transfer(address(this).balance);\n        return true;\n    }\n    \n    function changeCreditScore() internal returns (bool success) { \n        calculateCreditChange();\n        if (creditChange > 10000){\n            uint mintAmount = ( (creditChange - 10000) * creditTokensRequired)/10000;\n            creditToken.mint(borrower,mintAmount );\n        }else if (creditChange < 10000){\n            uint burnAmount = ((10000 - creditChange) * creditTokensRequired)/10000;\n            creditToken.burn(borrower, burnAmount);\n        }\n        return true;\n    }\n    \n    function calculateCreditChange() internal{\n        //percentage change expressed in hundreth or percentual points. i.e.: 1 = 0.01% ; 100 = 1%; 1000 = 10%\n        if ( state != States.Late){\n            creditChange = 10000 + (interestsPaid*2*10000)/(loanAmount * 3);\n        }\n        else {\n           if (block.timestamp < (loanTerm * 1 minutes * 12)/10 + creationTime ){ //CHANGE TO days IN PRODUCTION\n               uint x = block.timestamp - loanTerm * 1 minutes - creationTime;//CHANGE TO days IN PRODUCTION\n               uint m =  ( 10000 + (interestsPaid*10000)/(loanAmount * 3) ) / ((loanTerm * 1 minutes * 2)/10 );//CHANGE TO days IN PRODUCTION\n               uint b = (interestsPaid*2*10000)/(loanAmount * 3);\n               creditChange =  b - m*x;\n           }else\n            {creditChange = 0;}\n        }\n    }\n    \n    function payPool() internal returns(bool success){\n        uint payment = paidFees + interestsPaid + paidBack;\n        lendingPool.receiveFromLoan{value: payment}();\n        return true;\n    }\n    \n    function returnAllCreditTokens() public returns(bool success){ //SET TO PRIVATE!!!\n        creditToken.transfer(borrower, creditToken.balanceOf(address(this) ) );\n        return true;\n    }\n    \n    function calculateInteresestsofPayment() public view returns(uint){\n        //###### REAL CODE (IN DAYS) ######\n        // uint nDays = (block.timestamp  - lastPayment)/(1 days);\n        // uint interestsPct = ( 10000 + interestRate )**nDays - 10000;\n        \n        //###### TEST CODE (IN MINUTES) #######\n        uint nDays = (block.timestamp  - lastPayment)/60;\n        return interestRate*nDays*uint(principal)/10000;\n    }\n    \n    function howMuchToPayOff() public view returns(uint){\n        uint interests = calculateInteresestsofPayment();\n        if (principal >= 0){\n            return uint(principal) + interests;\n        }else{\n            return 0;\n        }\n        \n    }\n}\n",
  "sourcePath": "C:\\projects\\sake\\contracts\\Loan.sol",
  "compiler": {
    "name": "solc",
    "version": "0.8.1+commit.df193b15.Emscripten.clang"
  },
  "schemaVersion": "3.3.3",
  "updatedAt": "2021-02-02T04:48:11.861Z",
  "devdoc": {
    "kind": "dev",
    "methods": {},
    "version": 1
  },
  "userdoc": {
    "kind": "user",
    "methods": {},
    "version": 1
  }
}