{
  "contractName": "CreditToken",
  "abi": [
    {
      "inputs": [],
      "stateMutability": "nonpayable",
      "type": "constructor"
    },
    {
      "anonymous": false,
      "inputs": [
        {
          "indexed": true,
          "internalType": "address",
          "name": "tokenOwner",
          "type": "address"
        },
        {
          "indexed": true,
          "internalType": "address",
          "name": "spender",
          "type": "address"
        },
        {
          "indexed": false,
          "internalType": "uint256",
          "name": "tokens",
          "type": "uint256"
        }
      ],
      "name": "Approval",
      "type": "event"
    },
    {
      "anonymous": false,
      "inputs": [
        {
          "indexed": false,
          "internalType": "address",
          "name": "burnedFrom",
          "type": "address"
        },
        {
          "indexed": false,
          "internalType": "uint256",
          "name": "amount",
          "type": "uint256"
        }
      ],
      "name": "LogCoinsBurned",
      "type": "event"
    },
    {
      "anonymous": false,
      "inputs": [
        {
          "indexed": false,
          "internalType": "address",
          "name": "deliveredTo",
          "type": "address"
        },
        {
          "indexed": false,
          "internalType": "uint256",
          "name": "amount",
          "type": "uint256"
        }
      ],
      "name": "LogCoinsMinted",
      "type": "event"
    },
    {
      "anonymous": false,
      "inputs": [
        {
          "indexed": true,
          "internalType": "address",
          "name": "from",
          "type": "address"
        },
        {
          "indexed": true,
          "internalType": "address",
          "name": "to",
          "type": "address"
        },
        {
          "indexed": false,
          "internalType": "uint256",
          "name": "tokens",
          "type": "uint256"
        }
      ],
      "name": "Transfer",
      "type": "event"
    },
    {
      "inputs": [],
      "name": "_totalSupply",
      "outputs": [
        {
          "internalType": "uint256",
          "name": "",
          "type": "uint256"
        }
      ],
      "stateMutability": "view",
      "type": "function"
    },
    {
      "inputs": [
        {
          "internalType": "address",
          "name": "pool",
          "type": "address"
        }
      ],
      "name": "blacklistAddress",
      "outputs": [],
      "stateMutability": "nonpayable",
      "type": "function"
    },
    {
      "inputs": [],
      "name": "decimals",
      "outputs": [
        {
          "internalType": "uint8",
          "name": "",
          "type": "uint8"
        }
      ],
      "stateMutability": "view",
      "type": "function"
    },
    {
      "inputs": [],
      "name": "name",
      "outputs": [
        {
          "internalType": "bytes32",
          "name": "",
          "type": "bytes32"
        }
      ],
      "stateMutability": "view",
      "type": "function"
    },
    {
      "inputs": [],
      "name": "symbol",
      "outputs": [
        {
          "internalType": "bytes32",
          "name": "",
          "type": "bytes32"
        }
      ],
      "stateMutability": "view",
      "type": "function"
    },
    {
      "inputs": [
        {
          "internalType": "address",
          "name": "pool",
          "type": "address"
        }
      ],
      "name": "whitelistAddress",
      "outputs": [],
      "stateMutability": "nonpayable",
      "type": "function"
    },
    {
      "inputs": [
        {
          "internalType": "uint256",
          "name": "",
          "type": "uint256"
        }
      ],
      "name": "whitelistedAddress",
      "outputs": [
        {
          "internalType": "address",
          "name": "",
          "type": "address"
        }
      ],
      "stateMutability": "view",
      "type": "function"
    },
    {
      "inputs": [],
      "name": "totalSupply",
      "outputs": [
        {
          "internalType": "uint256",
          "name": "",
          "type": "uint256"
        }
      ],
      "stateMutability": "view",
      "type": "function"
    },
    {
      "inputs": [],
      "name": "checkScore",
      "outputs": [
        {
          "internalType": "uint256",
          "name": "score",
          "type": "uint256"
        }
      ],
      "stateMutability": "view",
      "type": "function"
    },
    {
      "inputs": [
        {
          "internalType": "address",
          "name": "tokenOwner",
          "type": "address"
        }
      ],
      "name": "balanceOf",
      "outputs": [
        {
          "internalType": "uint256",
          "name": "balance",
          "type": "uint256"
        }
      ],
      "stateMutability": "view",
      "type": "function"
    },
    {
      "inputs": [
        {
          "internalType": "address",
          "name": "tokenOwner",
          "type": "address"
        },
        {
          "internalType": "address",
          "name": "spender",
          "type": "address"
        }
      ],
      "name": "allowance",
      "outputs": [
        {
          "internalType": "uint256",
          "name": "remaining",
          "type": "uint256"
        }
      ],
      "stateMutability": "view",
      "type": "function"
    },
    {
      "inputs": [
        {
          "internalType": "address",
          "name": "owner",
          "type": "address"
        },
        {
          "internalType": "address",
          "name": "spender",
          "type": "address"
        },
        {
          "internalType": "uint256",
          "name": "tokens",
          "type": "uint256"
        }
      ],
      "name": "approve",
      "outputs": [
        {
          "internalType": "bool",
          "name": "success",
          "type": "bool"
        }
      ],
      "stateMutability": "nonpayable",
      "type": "function"
    },
    {
      "inputs": [
        {
          "internalType": "address",
          "name": "to",
          "type": "address"
        },
        {
          "internalType": "uint256",
          "name": "tokens",
          "type": "uint256"
        }
      ],
      "name": "transfer",
      "outputs": [
        {
          "internalType": "bool",
          "name": "success",
          "type": "bool"
        }
      ],
      "stateMutability": "nonpayable",
      "type": "function"
    },
    {
      "inputs": [
        {
          "internalType": "address",
          "name": "from",
          "type": "address"
        },
        {
          "internalType": "address",
          "name": "to",
          "type": "address"
        },
        {
          "internalType": "uint256",
          "name": "tokens",
          "type": "uint256"
        }
      ],
      "name": "transferFrom",
      "outputs": [
        {
          "internalType": "bool",
          "name": "success",
          "type": "bool"
        }
      ],
      "stateMutability": "nonpayable",
      "type": "function"
    },
    {
      "inputs": [],
      "name": "viewWhitelist",
      "outputs": [
        {
          "internalType": "address[]",
          "name": "",
          "type": "address[]"
        }
      ],
      "stateMutability": "view",
      "type": "function"
    },
    {
      "inputs": [
        {
          "internalType": "address",
          "name": "owner",
          "type": "address"
        },
        {
          "internalType": "uint256",
          "name": "amount",
          "type": "uint256"
        }
      ],
      "name": "mint",
      "outputs": [],
      "stateMutability": "nonpayable",
      "type": "function"
    },
    {
      "inputs": [
        {
          "internalType": "address",
          "name": "owner",
          "type": "address"
        },
        {
          "internalType": "uint256",
          "name": "amount",
          "type": "uint256"
        }
      ],
      "name": "burn",
      "outputs": [],
      "stateMutability": "nonpayable",
      "type": "function"
    }
  ],
  "bytecode": "0x60806040523480156200001157600080fd5b507f437265646974546f6b656e0000000000000000000000000000000000000000006003819055507f43540000000000000000000000000000000000000000000000000000000000006004819055506003600560006101000a81548160ff021916908360ff1602179055506000600781905550620000946200015b60201b60201c565b620000a5336200019d60201b60201c565b600754600860003373ffffffffffffffffffffffffffffffffffffffff1673ffffffffffffffffffffffffffffffffffffffff168152602001908152602001600020819055503373ffffffffffffffffffffffffffffffffffffffff16600073ffffffffffffffffffffffffffffffffffffffff167fddf252ad1be2c89b69c2b068fc378daa952ba7f163c4a11628f55a4df523b3ef6007546040516200014d91906200026c565b60405180910390a362000293565b336000806101000a81548173ffffffffffffffffffffffffffffffffffffffff021916908373ffffffffffffffffffffffffffffffffffffffff160217905550565b6001600260008373ffffffffffffffffffffffffffffffffffffffff1673ffffffffffffffffffffffffffffffffffffffff16815260200190815260200160002060006101000a81548160ff0219169083151502179055506001819080600181540180825580915050600190039060005260206000200160009091909190916101000a81548173ffffffffffffffffffffffffffffffffffffffff021916908373ffffffffffffffffffffffffffffffffffffffff16021790555050565b620002668162000289565b82525050565b60006020820190506200028360008301846200025b565b92915050565b6000819050919050565b6117ff80620002a36000396000f3fe608060405234801561001057600080fd5b506004361061010b5760003560e01c806341566585116100a25780639dc29fac116100715780639dc29fac146102aa578063a9059cbb146102c6578063dd62ed3e146102f6578063e1f21c6714610326578063f3290d75146103565761010b565b806341566585146102105780634a0283d61461022c57806370a082311461025c57806395d89b411461028c5761010b565b806323b872dd116100de57806323b872dd14610188578063313ce567146101b85780633eaaf86b146101d657806340c10f19146101f45761010b565b806306fdde03146101105780630e1a1ea81461012e578063179bfd361461014c57806318160ddd1461016a575b600080fd5b610118610372565b6040516101259190611556565b60405180910390f35b610136610378565b6040516101439190611519565b60405180910390f35b610154610406565b60405161016191906115b1565b60405180910390f35b61017261044d565b60405161017f91906115b1565b60405180910390f35b6101a2600480360381019061019d919061130b565b6104a1565b6040516101af919061153b565b60405180910390f35b6101c0610846565b6040516101cd91906115cc565b60405180910390f35b6101de610859565b6040516101eb91906115b1565b60405180910390f35b61020e6004803603810190610209919061135a565b61085f565b005b61022a600480360381019061022591906112a6565b61099e565b005b61024660048036038101906102419190611396565b610aef565b60405161025391906114d5565b60405180910390f35b610276600480360381019061027191906112a6565b610b2e565b60405161028391906115b1565b60405180910390f35b610294610b77565b6040516102a19190611556565b60405180910390f35b6102c460048036038101906102bf919061135a565b610b7d565b005b6102e060048036038101906102db919061135a565b610cbc565b6040516102ed919061153b565b60405180910390f35b610310600480360381019061030b91906112cf565b610ed8565b60405161031d91906115b1565b60405180910390f35b610340600480360381019061033b919061130b565b610f5f565b60405161034d919061153b565b60405180910390f35b610370600480360381019061036b91906112a6565b6110e5565b005b60035481565b606060018054806020026020016040519081016040528092919081815260200182805480156103fc57602002820191906000526020600020905b8160009054906101000a900473ffffffffffffffffffffffffffffffffffffffff1673ffffffffffffffffffffffffffffffffffffffff16815260200190600101908083116103b2575b5050505050905090565b6000600860003373ffffffffffffffffffffffffffffffffffffffff1673ffffffffffffffffffffffffffffffffffffffff16815260200190815260200160002054905090565b6000600860008073ffffffffffffffffffffffffffffffffffffffff1673ffffffffffffffffffffffffffffffffffffffff1681526020019081526020016000205460075461049c9190611687565b905090565b600060011515600260003373ffffffffffffffffffffffffffffffffffffffff1673ffffffffffffffffffffffffffffffffffffffff16815260200190815260200160002060009054906101000a900460ff16151514610536576040517f08c379a000000000000000000000000000000000000000000000000000000000815260040161052d90611591565b60405180910390fd5b600860008573ffffffffffffffffffffffffffffffffffffffff1673ffffffffffffffffffffffffffffffffffffffff168152602001908152602001600020548211156105b8576040517f08c379a00000000000000000000000000000000000000000000000000000000081526004016105af90611571565b60405180910390fd5b610601600860008673ffffffffffffffffffffffffffffffffffffffff1673ffffffffffffffffffffffffffffffffffffffff1681526020019081526020016000205483611236565b600860008673ffffffffffffffffffffffffffffffffffffffff1673ffffffffffffffffffffffffffffffffffffffff168152602001908152602001600020819055506106ca600960008673ffffffffffffffffffffffffffffffffffffffff1673ffffffffffffffffffffffffffffffffffffffff16815260200190815260200160002060003373ffffffffffffffffffffffffffffffffffffffff1673ffffffffffffffffffffffffffffffffffffffff1681526020019081526020016000205483611236565b600960008673ffffffffffffffffffffffffffffffffffffffff1673ffffffffffffffffffffffffffffffffffffffff16815260200190815260200160002060003373ffffffffffffffffffffffffffffffffffffffff1673ffffffffffffffffffffffffffffffffffffffff16815260200190815260200160002081905550610793600860008573ffffffffffffffffffffffffffffffffffffffff1673ffffffffffffffffffffffffffffffffffffffff1681526020019081526020016000205483611259565b600860008573ffffffffffffffffffffffffffffffffffffffff1673ffffffffffffffffffffffffffffffffffffffff168152602001908152602001600020819055508273ffffffffffffffffffffffffffffffffffffffff168473ffffffffffffffffffffffffffffffffffffffff167fddf252ad1be2c89b69c2b068fc378daa952ba7f163c4a11628f55a4df523b3ef8460405161083391906115b1565b60405180910390a3600190509392505050565b600560009054906101000a900460ff1681565b60075481565b60011515600260003373ffffffffffffffffffffffffffffffffffffffff1673ffffffffffffffffffffffffffffffffffffffff16815260200190815260200160002060009054906101000a900460ff161515146108f2576040517f08c379a00000000000000000000000000000000000000000000000000000000081526004016108e990611591565b60405180910390fd5b80600860008473ffffffffffffffffffffffffffffffffffffffff1673ffffffffffffffffffffffffffffffffffffffff16815260200190815260200160002060008282546109419190611631565b92505081905550806007600082825461095a9190611631565b925050819055507fa9e03d49381e41f3dd8ec266ef705de8dc4ee210f895ab90dd65a29bf0dcc8e382826040516109929291906114f0565b60405180910390a15050565b60011515600260003373ffffffffffffffffffffffffffffffffffffffff1673ffffffffffffffffffffffffffffffffffffffff16815260200190815260200160002060009054906101000a900460ff16151514610a31576040517f08c379a0000000000000000000000000000000000000000000000000000000008152600401610a2890611591565b60405180910390fd5b6001600260008373ffffffffffffffffffffffffffffffffffffffff1673ffffffffffffffffffffffffffffffffffffffff16815260200190815260200160002060006101000a81548160ff0219169083151502179055506001819080600181540180825580915050600190039060005260206000200160009091909190916101000a81548173ffffffffffffffffffffffffffffffffffffffff021916908373ffffffffffffffffffffffffffffffffffffffff16021790555050565b60018181548110610aff57600080fd5b906000526020600020016000915054906101000a900473ffffffffffffffffffffffffffffffffffffffff1681565b6000600860008373ffffffffffffffffffffffffffffffffffffffff1673ffffffffffffffffffffffffffffffffffffffff168152602001908152602001600020549050919050565b60045481565b60011515600260003373ffffffffffffffffffffffffffffffffffffffff1673ffffffffffffffffffffffffffffffffffffffff16815260200190815260200160002060009054906101000a900460ff16151514610c10576040517f08c379a0000000000000000000000000000000000000000000000000000000008152600401610c0790611591565b60405180910390fd5b80600860008473ffffffffffffffffffffffffffffffffffffffff1673ffffffffffffffffffffffffffffffffffffffff1681526020019081526020016000206000828254610c5f9190611687565b925050819055508060076000828254610c789190611687565b925050819055507f28ea8cdc2f263cb7d85504bf95c1c9d1081c3b775b756a906886c9535b67d0878282604051610cb09291906114f0565b60405180910390a15050565b600060011515600260003373ffffffffffffffffffffffffffffffffffffffff1673ffffffffffffffffffffffffffffffffffffffff16815260200190815260200160002060009054906101000a900460ff16151514610d51576040517f08c379a0000000000000000000000000000000000000000000000000000000008152600401610d4890611591565b60405180910390fd5b610d9a600860003373ffffffffffffffffffffffffffffffffffffffff1673ffffffffffffffffffffffffffffffffffffffff1681526020019081526020016000205483611236565b600860003373ffffffffffffffffffffffffffffffffffffffff1673ffffffffffffffffffffffffffffffffffffffff16815260200190815260200160002081905550610e26600860008573ffffffffffffffffffffffffffffffffffffffff1673ffffffffffffffffffffffffffffffffffffffff1681526020019081526020016000205483611259565b600860008573ffffffffffffffffffffffffffffffffffffffff1673ffffffffffffffffffffffffffffffffffffffff168152602001908152602001600020819055508273ffffffffffffffffffffffffffffffffffffffff163373ffffffffffffffffffffffffffffffffffffffff167fddf252ad1be2c89b69c2b068fc378daa952ba7f163c4a11628f55a4df523b3ef84604051610ec691906115b1565b60405180910390a36001905092915050565b6000600960008473ffffffffffffffffffffffffffffffffffffffff1673ffffffffffffffffffffffffffffffffffffffff16815260200190815260200160002060008373ffffffffffffffffffffffffffffffffffffffff1673ffffffffffffffffffffffffffffffffffffffff16815260200190815260200160002054905092915050565b600060011515600260003373ffffffffffffffffffffffffffffffffffffffff1673ffffffffffffffffffffffffffffffffffffffff16815260200190815260200160002060009054906101000a900460ff16151514610ff4576040517f08c379a0000000000000000000000000000000000000000000000000000000008152600401610feb90611591565b60405180910390fd5b81600960008673ffffffffffffffffffffffffffffffffffffffff1673ffffffffffffffffffffffffffffffffffffffff16815260200190815260200160002060008573ffffffffffffffffffffffffffffffffffffffff1673ffffffffffffffffffffffffffffffffffffffff168152602001908152602001600020819055508273ffffffffffffffffffffffffffffffffffffffff168473ffffffffffffffffffffffffffffffffffffffff167f8c5be1e5ebec7d5bd14f71427d1e84f3dd0314c0f7b2291e5b200ac8c7c3b925846040516110d291906115b1565b60405180910390a3600190509392505050565b60011515600260003373ffffffffffffffffffffffffffffffffffffffff1673ffffffffffffffffffffffffffffffffffffffff16815260200190815260200160002060009054906101000a900460ff16151514611178576040517f08c379a000000000000000000000000000000000000000000000000000000000815260040161116f90611591565b60405180910390fd5b6000600260008373ffffffffffffffffffffffffffffffffffffffff1673ffffffffffffffffffffffffffffffffffffffff16815260200190815260200160002060006101000a81548160ff0219169083151502179055506001819080600181540180825580915050600190039060005260206000200160009091909190916101000a81548173ffffffffffffffffffffffffffffffffffffffff021916908373ffffffffffffffffffffffffffffffffffffffff16021790555050565b60008282111561124557600080fd5b81836112519190611687565b905092915050565b600081836112679190611631565b90508281101561127657600080fd5b92915050565b60008135905061128b8161179b565b92915050565b6000813590506112a0816117b2565b92915050565b6000602082840312156112b857600080fd5b60006112c68482850161127c565b91505092915050565b600080604083850312156112e257600080fd5b60006112f08582860161127c565b92505060206113018582860161127c565b9150509250929050565b60008060006060848603121561132057600080fd5b600061132e8682870161127c565b935050602061133f8682870161127c565b925050604061135086828701611291565b9150509250925092565b6000806040838503121561136d57600080fd5b600061137b8582860161127c565b925050602061138c85828601611291565b9150509250929050565b6000602082840312156113a857600080fd5b60006113b684828501611291565b91505092915050565b60006113cb83836113d7565b60208301905092915050565b6113e0816116bb565b82525050565b6113ef816116bb565b82525050565b6000611400826115f7565b61140a818561160f565b9350611415836115e7565b8060005b8381101561144657815161142d88826113bf565b975061143883611602565b925050600181019050611419565b5085935050505092915050565b61145c816116cd565b82525050565b61146b816116d9565b82525050565b600061147e601e83611620565b915061148982611749565b602082019050919050565b60006114a1601283611620565b91506114ac82611772565b602082019050919050565b6114c081611703565b82525050565b6114cf8161170d565b82525050565b60006020820190506114ea60008301846113e6565b92915050565b600060408201905061150560008301856113e6565b61151260208301846114b7565b9392505050565b6000602082019050818103600083015261153381846113f5565b905092915050565b60006020820190506115506000830184611453565b92915050565b600060208201905061156b6000830184611462565b92915050565b6000602082019050818103600083015261158a81611471565b9050919050565b600060208201905081810360008301526115aa81611494565b9050919050565b60006020820190506115c660008301846114b7565b92915050565b60006020820190506115e160008301846114c6565b92915050565b6000819050602082019050919050565b600081519050919050565b6000602082019050919050565b600082825260208201905092915050565b600082825260208201905092915050565b600061163c82611703565b915061164783611703565b9250827fffffffffffffffffffffffffffffffffffffffffffffffffffffffffffffffff0382111561167c5761167b61171a565b5b828201905092915050565b600061169282611703565b915061169d83611703565b9250828210156116b0576116af61171a565b5b828203905092915050565b60006116c6826116e3565b9050919050565b60008115159050919050565b6000819050919050565b600073ffffffffffffffffffffffffffffffffffffffff82169050919050565b6000819050919050565b600060ff82169050919050565b7f4e487b7100000000000000000000000000000000000000000000000000000000600052601160045260246000fd5b7f4e6f7420656e6f7567682062616c616e636520666f7220746869732074780000600082015250565b7f4e6f74207768697465206c697374656421210000000000000000000000000000600082015250565b6117a4816116bb565b81146117af57600080fd5b50565b6117bb81611703565b81146117c657600080fd5b5056fea26469706673582212207ff03522f634bcfd90efbe632acb19c1483537fd772a9fd6b15e92958a0d5da064736f6c63430008010033",
  "immutableReferences": {},
  "source": "// SPDX-License-Identifier: MIT\npragma solidity ^0.8.0;\n\ninterface ERC20Interface {\n\n    function totalSupply() external view returns (uint);\n    function balanceOf(address tokenOwner) external view returns (uint balance);\n    function allowance(address tokenOwner, address spender) external view returns (uint remaining);\n    function transfer(address to, uint tokens) external returns (bool success);\n    function approve(address owner, address spender, uint tokens) external returns (bool success);\n    function transferFrom (address from, address to, uint tokens) external returns (bool success);\n\n    event Transfer(address indexed from, address indexed to, uint tokens);\n    event Approval(address indexed tokenOwner, address indexed spender, uint tokens);\n    \n}\n\ncontract SafeMath {\n    function safeAdd(uint a, uint b) internal pure returns (uint c) {\n        c = a + b;\n        require(c >= a);\n    }\n    function safeSub(uint a, uint b) internal pure returns (uint c) {\n        require(b <= a); c = a - b; \n        \n    } \n    function safeMul(uint a, uint b) internal pure returns (uint c) { \n        c = a * b; \n        require(a == 0 || c / a == b); \n    } \n    function safeDiv(uint a, uint b) internal pure returns (uint c) { \n        require(b > 0);\n        c = a / b;\n    }\n}\n\ncontract Owned {\n    \n    address owner;\n\n    function isOwned() internal {\n        owner = msg.sender;\n    }\n\n    modifier onlyOwner() {\n        require(msg.sender == owner);\n        _;\n    }\n}\ncontract Whitelist {\n    \n    address[] public whitelistedAddress;\n    \n    mapping (address => bool) lendingPoolAddr;\n    \n    modifier onlyWhiteListed {\n            require(lendingPoolAddr[msg.sender]==true,\"Not white listed!!\");\n            _;   \n    }\n    \n    function whiteListOwner(address owner) internal {\n        lendingPoolAddr[owner] = true;\n        whitelistedAddress.push(owner);\n    }\n\n    function whitelistAddress (address pool) external onlyWhiteListed {\n        lendingPoolAddr[pool] = true;\n        whitelistedAddress.push(pool);\n    }\n    \n    function blacklistAddress (address pool) external onlyWhiteListed {\n        lendingPoolAddr[pool] = false;\n        whitelistedAddress.push(pool);\n    }\n    \n}\n\ncontract CreditToken is ERC20Interface, SafeMath, Owned, Whitelist {\n        \n    bytes32 public name;\n    bytes32 public symbol;\n    uint8 public decimals;\n    address [] whiteList;\n    \n    uint256 public _totalSupply;\n    \n    mapping(address => uint) balances;\n    mapping(address => mapping(address => uint)) allowed;\n    \n    event LogCoinsMinted(address deliveredTo, uint amount);\n    event LogCoinsBurned(address burnedFrom, uint amount);\n    \n    \n    constructor() {\n        name = \"CreditToken\";\n        symbol = \"CT\";\n        decimals = 3;\n        _totalSupply = 0;\n        \n        isOwned();\n        whiteListOwner(msg.sender);\n\n        balances[msg.sender] = _totalSupply;\n        emit Transfer(address(0), msg.sender, _totalSupply);\n    }\n\n        function totalSupply() public override view returns (uint) {\n            return _totalSupply - balances[address(0)];\n        }\n        \n        function checkScore() public view returns (uint score) {\n            score = balances[msg.sender];\n            return score;\n        }\n        \n        function balanceOf(address tokenOwner) public view override returns (uint balance) {\n            return balances[tokenOwner];\n        }\n        \n        //This shows how much allowance the spender has to spend the tokenOwner tokens.\n        function allowance(address tokenOwner, address spender) public view override returns (uint remaining) {\n            return allowed[tokenOwner][spender];\n        }\n        \n        //should be onlyWhiteListed because this allows an address to spend from anotherone.\n        function approve(address owner, address spender, uint tokens) public override onlyWhiteListed returns (bool success) {\n            allowed[owner][spender] = tokens;\n            emit Approval(owner, spender, tokens);\n            return true;\n        }\n        \n        //Use this method if you are the owner of the tokens.\n        function transfer(address to, uint tokens) public override onlyWhiteListed returns (bool success) {\n            balances[msg.sender] = safeSub(balances[msg.sender], tokens);\n            balances[to] = safeAdd(balances[to], tokens);\n            emit Transfer(msg.sender, to, tokens);\n            return true;\n        }\n        \n        //Use this method if you want to transfer tokens of somebody else. You should have allowance first\n        //through the approve method.\n        function  transferFrom(address from, address to, uint tokens) public  override onlyWhiteListed returns (bool success) {\n            \n            require(tokens <= balances[from], \"Not enough balance for this tx\");\n            balances[from] = safeSub(balances[from], tokens);\n            allowed[from][msg.sender] = safeSub(allowed[from][msg.sender], tokens);\n            balances[to] = safeAdd(balances[to], tokens);\n            emit Transfer(from, to, tokens);\n            return true;\n        }\n        \n        function viewWhitelist() public view returns (address [] memory) {\n            return whitelistedAddress;\n           // return  whiteList;\n        }\n        \n        function mint(address owner, uint amount) external onlyWhiteListed {\n            balances[owner] += amount;\n            _totalSupply += amount;\n            LogCoinsMinted(owner, amount);\n        }\n        \n        \n        function burn(address owner, uint amount) external onlyWhiteListed {\n            balances[owner] -= amount;\n            _totalSupply -= amount;\n            LogCoinsBurned(owner, amount);\n        }\n        \n        \n        \n}",
  "sourcePath": "/Users/robertocantu/blockchain_programming/sake/contracts/CreditToken.sol",
  "compiler": {
    "name": "solc",
    "version": "0.8.1+commit.df193b15.Emscripten.clang"
  },
  "schemaVersion": "3.3.3",
  "updatedAt": "2021-02-04T02:13:36.558Z",
  "devdoc": {
    "kind": "dev",
    "methods": {},
    "version": 1
  },
  "userdoc": {
    "kind": "user",
    "methods": {},
    "version": 1
  }
}