{
  "contractName": "CreditToken",
  "abi": [
    {
      "inputs": [
        {
          "internalType": "address",
          "name": "",
          "type": "address"
        },
        {
          "internalType": "address",
          "name": "",
          "type": "address"
        },
        {
          "internalType": "uint256",
          "name": "",
          "type": "uint256"
        }
      ],
      "name": "transferFrom",
      "outputs": [
        {
          "internalType": "bool",
          "name": "",
          "type": "bool"
        }
      ],
      "stateMutability": "nonpayable",
      "type": "function"
    },
    {
      "inputs": [
        {
          "internalType": "address",
          "name": "",
          "type": "address"
        }
      ],
      "name": "balanceOf",
      "outputs": [
        {
          "internalType": "uint256",
          "name": "",
          "type": "uint256"
        }
      ],
      "stateMutability": "view",
      "type": "function"
    },
    {
      "inputs": [
        {
          "internalType": "address",
          "name": "",
          "type": "address"
        },
        {
          "internalType": "address",
          "name": "",
          "type": "address"
        }
      ],
      "name": "allowance",
      "outputs": [
        {
          "internalType": "uint256",
          "name": "",
          "type": "uint256"
        }
      ],
      "stateMutability": "view",
      "type": "function"
    },
    {
      "inputs": [
        {
          "internalType": "address",
          "name": "",
          "type": "address"
        },
        {
          "internalType": "uint256",
          "name": "",
          "type": "uint256"
        }
      ],
      "name": "transfer",
      "outputs": [
        {
          "internalType": "bool",
          "name": "",
          "type": "bool"
        }
      ],
      "stateMutability": "nonpayable",
      "type": "function"
    },
    {
      "inputs": [
        {
          "internalType": "address",
          "name": "",
          "type": "address"
        }
      ],
      "name": "whitelistAddress",
      "outputs": [],
      "stateMutability": "nonpayable",
      "type": "function"
    },
    {
      "inputs": [
        {
          "internalType": "address",
          "name": "",
          "type": "address"
        },
        {
          "internalType": "address",
          "name": "",
          "type": "address"
        },
        {
          "internalType": "uint256",
          "name": "",
          "type": "uint256"
        }
      ],
      "name": "approve",
      "outputs": [
        {
          "internalType": "bool",
          "name": "",
          "type": "bool"
        }
      ],
      "stateMutability": "nonpayable",
      "type": "function"
    },
    {
      "inputs": [
        {
          "internalType": "address",
          "name": "",
          "type": "address"
        },
        {
          "internalType": "uint256",
          "name": "",
          "type": "uint256"
        }
      ],
      "name": "mint",
      "outputs": [],
      "stateMutability": "nonpayable",
      "type": "function"
    },
    {
      "inputs": [
        {
          "internalType": "address",
          "name": "",
          "type": "address"
        },
        {
          "internalType": "uint256",
          "name": "",
          "type": "uint256"
        }
      ],
      "name": "burn",
      "outputs": [],
      "stateMutability": "nonpayable",
      "type": "function"
    }
  ],
  "bytecode": "0x608060405234801561001057600080fd5b5061041f806100206000396000f3fe608060405234801561001057600080fd5b50600436106100885760003560e01c80639dc29fac1161005b5780639dc29fac14610125578063a9059cbb14610141578063dd62ed3e14610171578063e1f21c67146101a157610088565b806323b872dd1461008d57806340c10f19146100bd57806341566585146100d957806370a08231146100f5575b600080fd5b6100a760048036038101906100a29190610294565b6101d1565b6040516100b4919061033d565b60405180910390f35b6100d760048036038101906100d291906102e3565b6101da565b005b6100f360048036038101906100ee919061022f565b6101de565b005b61010f600480360381019061010a919061022f565b6101e1565b60405161011c9190610358565b60405180910390f35b61013f600480360381019061013a91906102e3565b6101e8565b005b61015b600480360381019061015691906102e3565b6101ec565b604051610168919061033d565b60405180910390f35b61018b60048036038101906101869190610258565b6101f4565b6040516101989190610358565b60405180910390f35b6101bb60048036038101906101b69190610294565b6101fc565b6040516101c8919061033d565b60405180910390f35b60009392505050565b5050565b50565b6000919050565b5050565b600092915050565b600092915050565b60009392505050565b600081359050610214816103bb565b92915050565b600081359050610229816103d2565b92915050565b60006020828403121561024157600080fd5b600061024f84828501610205565b91505092915050565b6000806040838503121561026b57600080fd5b600061027985828601610205565b925050602061028a85828601610205565b9150509250929050565b6000806000606084860312156102a957600080fd5b60006102b786828701610205565b93505060206102c886828701610205565b92505060406102d98682870161021a565b9150509250925092565b600080604083850312156102f657600080fd5b600061030485828601610205565b92505060206103158582860161021a565b9150509250929050565b61032881610385565b82525050565b610337816103b1565b82525050565b6000602082019050610352600083018461031f565b92915050565b600060208201905061036d600083018461032e565b92915050565b600061037e82610391565b9050919050565b60008115159050919050565b600073ffffffffffffffffffffffffffffffffffffffff82169050919050565b6000819050919050565b6103c481610373565b81146103cf57600080fd5b50565b6103db816103b1565b81146103e657600080fd5b5056fea2646970667358221220f5ea6696e248e137316af6a8928af3a9877183afa221b034dd09463791bbf88e64736f6c63430008010033",
  "immutableReferences": {},
  "source": "// SPDX-License-Identifier: MIT\npragma solidity ^0.8.0;\n\n\ncontract CreditToken {\n    \n    //transfer function\n    function transferFrom(address, address, uint ) public returns (bool ) {}\n    function balanceOf(address) public view  returns (uint ) {}\n    function allowance(address, address ) public view  returns (uint ) {}\n    function transfer(address , uint ) external returns (bool ){}\n    function whitelistAddress (address ) external {}\n    function approve(address, address, uint) external returns (bool){}\n    function mint(address, uint) external {}\n    function burn(address, uint) external {}\n}\n\ncontract _LendingPool{\n    function receiveFromLoan() external payable{}\n}\n\ncontract Loan{\n    \n    CreditToken constant public creditToken = CreditToken(0x80cDF946c1c86B7eee50743E2bc9a6d7d9ed597A);\n    _LendingPool immutable public lendingPool;\n    uint immutable public collateralRequired;\n    uint immutable public creditTokensRequired;\n    uint immutable public creationTime;\n    address payable immutable  public borrower;\n    uint immutable public loanAmount;\n    uint immutable public loanTerm;\n    uint public lastPayment;\n    int public principal;\n    uint public paidBack;\n    uint immutable public interestRate;\n    uint public interestsPaid;\n    uint public spamFee = 150;\n    uint public paidFees;\n    uint public creditChange;\n    \n    \n    enum States {\n        WaitingOnCollateral,\n        TakingStake,\n        DisbursingLoan,\n        Active,\n        Late,\n        PaidInFull,\n        Defaulted\n    }\n    \n    States public state;\n    \n    //https://ethereum.stackexchange.com/questions/59132/deploy-contract-with-ether\n    constructor ( \n        //CreditToken tokenAddr, //the address of the credittoken's contract. (only development phase. Should be hardcoded in production time)\n        uint _collateralRequired, //the Ether amount of the collateral in weis\n        address payable _borrower, //address of the borroweaddress\n        uint _creditTokensRequired, // the Credit Tokens neccessary to put up as stake\n        uint _loanAmount, //The amount of Ether that is going to be lended to the borrower (weis)\n        uint _loanTerm, // in days\n        uint _interestRate // in percentual points muliplied by 100 (i.e. 1.5% = 150)\n        )\n        payable{ // The constructor is payable because it will receive the Ether to be lended at creation time\n        \n        require(msg.value == _loanAmount); \n        \n        creationTime = block.timestamp;\n        lendingPool = _LendingPool(msg.sender);\n        lastPayment = block.timestamp;\n        collateralRequired = _collateralRequired;\n        loanTerm = _loanTerm;\n        borrower = _borrower;\n        loanAmount = _loanAmount;\n        creditTokensRequired = _creditTokensRequired;\n        interestRate = _interestRate;\n        \n        state = States.WaitingOnCollateral;\n    }\n    \n    modifier onlyOnState(States _state) {\n        require(state == _state,\"Function cannot be called at this time.\");\n        _;\n    }\n\n    function nextState() internal {\n        state = States(uint(state) + 1);\n    }\n    \n    //After this contract has been created, the borrower must put up the collateral by sending ETH\n    //to the address of the Loan Contract which will be handled by this method and initiate the \n    //disbursement of the loan.\n    receive() external payable{\n        \n        if (state == States.WaitingOnCollateral){\n            takeCollateralDisburseLoan();\n        }\n        else if(state == States.Active){\n            receivePayment();\n        }\n    }\n    \n    function takeCollateralDisburseLoan() internal{\n        \n        uint thisSpamFee = (loanAmount * spamFee)/10000;\n        require(msg.value >= (collateralRequired + thisSpamFee) * 1 wei, \"Your collateral is not enough for this loan.\");\n        \n        paidFees += thisSpamFee;\n        uint collateralSent = msg.value - thisSpamFee;\n        \n        //..Now that the borrower has put the ETH as collateral, we take the CreditTokens for the loan.\n        nextState();\n        getStake();\n        \n        //and disburse the loan\n        nextState();\n        disburseLoan();\n        \n        principal = int(loanAmount);\n        //Taking care of excesive Ether sent: //ALSO, TAKE CARE OF ATTACK WHERE THE EXCESIVE ETHER WOULD BE ENOUH TO PAYOFF THE DEBT\n        if(collateralSent > collateralRequired){\n            principal -= int(collateralSent - collateralRequired);\n            paidBack += (collateralSent - collateralRequired);\n        }\n        \n        nextState();\n    }\n    \n    function receivePayment() internal{\n        // the payment has to be able to cover at least the interests borrowed\n            uint interests = calculateInteresestsofPayment();\n            require( msg.value >= interests, \"Your payment has to cover at least the interests owed today.\" );\n            interestsPaid += interests;\n            uint toPrincipal = msg.value - interests;\n            principal -= int(toPrincipal);\n            paidBack += toPrincipal;\n            if(principal <= 0 ){\n                state = States.PaidInFull;\n                if (principal<0){\n                    paidBack -= uint(-principal);\n                }\n                closeLoan();\n            }\n            lastPayment = block.timestamp;\n    }\n    \n    function closeLoan()internal onlyOnState(States.PaidInFull){\n        \n        require(payPool(),\"Could not pay pool\");\n        require(returnAllCreditTokens(),\"Could not return credit tokens\");\n        \n        require(returnCollateral(),\"Could return collateral\");\n        require(changeCreditScore(),\"Could not change credit score\");\n    }\n        \n    function getStake() public payable onlyOnState( States.TakingStake) returns (bool success){\n        \n        uint256 allowance = creditToken.allowance(borrower, address(this));\n        require(allowance >= creditTokensRequired, \"Check the token allowance\");\n        creditToken.transferFrom(borrower, address(this), creditTokensRequired);\n        return true;\n    }\n    \n    function getCreditTokenBalance() public view  returns (uint balance) {\n        return creditToken.balanceOf(address(this));\n    }\n    \n    function getEtherBalance() public view returns (uint){\n        return address(this).balance;\n    }\n    \n    function disburseLoan() private onlyOnState( States.DisbursingLoan ) returns(bool success){\n        borrower.transfer(loanAmount);\n        principal = int(loanAmount);\n        return true;\n    }\n    \n    function returnCollateral() public returns(bool success){ //SET TO PRIVATE!!!\n        //borrower.transfer(collateralRequired);\n        //We return to the borrower all the money left in the loan since we have already\n        //paid the pool (interests, fees and loanAmount)\n        borrower.transfer(address(this).balance);\n        return true;\n    }\n    \n    function changeCreditScore() internal returns (bool success) { \n        calculateCreditChange();\n        if (creditChange > 10000){\n            uint mintAmount = ( (creditChange - 10000) * creditTokensRequired)/10000;\n            creditToken.mint(borrower,mintAmount );\n        }else if (creditChange < 10000){\n            uint burnAmount = ((10000 - creditChange) * creditTokensRequired)/10000;\n            creditToken.burn(borrower, burnAmount);\n        }\n        return true;\n    }\n    \n    function calculateCreditChange() internal{\n        //percentage change expressed in hundreth or percentual points. i.e.: 1 = 0.01% ; 100 = 1%; 1000 = 10%\n        if ( state != States.Late){\n            creditChange = 10000 + (interestsPaid*2*10000)/(loanAmount * 3);\n        }\n        else {\n           if (block.timestamp < (loanTerm * 1 minutes * 12)/10 + creationTime ){ //CHANGE TO days IN PRODUCTION\n               uint x = block.timestamp - loanTerm * 1 minutes - creationTime;//CHANGE TO days IN PRODUCTION\n               uint m =  ( 10000 + (interestsPaid*10000)/(loanAmount * 3) ) / ((loanTerm * 1 minutes * 2)/10 );//CHANGE TO days IN PRODUCTION\n               uint b = (interestsPaid*2*10000)/(loanAmount * 3);\n               creditChange =  b - m*x;\n           }else\n            {creditChange = 0;}\n        }\n    }\n    \n    function payPool() internal returns(bool success){\n        uint payment = paidFees + interestsPaid + paidBack;\n        lendingPool.receiveFromLoan{value: payment}();\n        return true;\n    }\n    \n    function returnAllCreditTokens() public returns(bool success){ //SET TO PRIVATE!!!\n        creditToken.transfer(borrower, creditToken.balanceOf(address(this) ) );\n        return true;\n    }\n    \n    function calculateInteresestsofPayment() public view returns(uint){\n        //###### REAL CODE (IN DAYS) ######\n        // uint nDays = (block.timestamp  - lastPayment)/(1 days);\n        // uint interestsPct = ( 10000 + interestRate )**nDays - 10000;\n        \n        //###### TEST CODE (IN MINUTES) #######\n        uint nDays = (block.timestamp  - lastPayment)/60;\n        return interestRate*nDays*uint(principal)/10000;\n    }\n    \n    function howMuchToPayOff() public view returns(uint){\n        uint interests = calculateInteresestsofPayment();\n        if (principal >= 0){\n            return uint(principal) + interests;\n        }else{\n            return 0;\n        }\n        \n    }\n}\n",
  "sourcePath": "/Users/robertocantu/blockchain_programming/sake/contracts/Loan.sol",
  "compiler": {
    "name": "solc",
    "version": "0.8.1+commit.df193b15.Emscripten.clang"
  },
  "schemaVersion": "3.3.3",
  "updatedAt": "2021-02-03T00:14:50.329Z",
  "devdoc": {
    "kind": "dev",
    "methods": {},
    "version": 1
  },
  "userdoc": {
    "kind": "user",
    "methods": {},
    "version": 1
  }
}