{
  "contractName": "CreditToken",
  "abi": [
    {
      "inputs": [
        {
          "internalType": "address",
          "name": "",
          "type": "address"
        },
        {
          "internalType": "address",
          "name": "",
          "type": "address"
        },
        {
          "internalType": "uint256",
          "name": "",
          "type": "uint256"
        }
      ],
      "name": "transferFrom",
      "outputs": [
        {
          "internalType": "bool",
          "name": "success",
          "type": "bool"
        }
      ],
      "stateMutability": "nonpayable",
      "type": "function"
    },
    {
      "inputs": [
        {
          "internalType": "address",
          "name": "",
          "type": "address"
        }
      ],
      "name": "balanceOf",
      "outputs": [
        {
          "internalType": "uint256",
          "name": "balance",
          "type": "uint256"
        }
      ],
      "stateMutability": "view",
      "type": "function"
    },
    {
      "inputs": [
        {
          "internalType": "address",
          "name": "",
          "type": "address"
        },
        {
          "internalType": "address",
          "name": "",
          "type": "address"
        }
      ],
      "name": "allowance",
      "outputs": [
        {
          "internalType": "uint256",
          "name": "remaining",
          "type": "uint256"
        }
      ],
      "stateMutability": "view",
      "type": "function"
    },
    {
      "inputs": [
        {
          "internalType": "address",
          "name": "to",
          "type": "address"
        },
        {
          "internalType": "uint256",
          "name": "tokens",
          "type": "uint256"
        }
      ],
      "name": "transfer",
      "outputs": [
        {
          "internalType": "bool",
          "name": "success",
          "type": "bool"
        }
      ],
      "stateMutability": "nonpayable",
      "type": "function"
    }
  ],
  "bytecode": "0x608060405234801561001057600080fd5b5061034b806100206000396000f3fe608060405234801561001057600080fd5b506004361061004c5760003560e01c806323b872dd1461005157806370a0823114610081578063a9059cbb146100b1578063dd62ed3e146100e1575b600080fd5b61006b600480360381019061006691906101c0565b610111565b6040516100789190610269565b60405180910390f35b61009b6004803603810190610096919061015b565b61011a565b6040516100a89190610284565b60405180910390f35b6100cb60048036038101906100c6919061020f565b610121565b6040516100d89190610269565b60405180910390f35b6100fb60048036038101906100f69190610184565b610129565b6040516101089190610284565b60405180910390f35b60009392505050565b6000919050565b600092915050565b600092915050565b600081359050610140816102e7565b92915050565b600081359050610155816102fe565b92915050565b60006020828403121561016d57600080fd5b600061017b84828501610131565b91505092915050565b6000806040838503121561019757600080fd5b60006101a585828601610131565b92505060206101b685828601610131565b9150509250929050565b6000806000606084860312156101d557600080fd5b60006101e386828701610131565b93505060206101f486828701610131565b925050604061020586828701610146565b9150509250925092565b6000806040838503121561022257600080fd5b600061023085828601610131565b925050602061024185828601610146565b9150509250929050565b610254816102b1565b82525050565b610263816102dd565b82525050565b600060208201905061027e600083018461024b565b92915050565b6000602082019050610299600083018461025a565b92915050565b60006102aa826102bd565b9050919050565b60008115159050919050565b600073ffffffffffffffffffffffffffffffffffffffff82169050919050565b6000819050919050565b6102f08161029f565b81146102fb57600080fd5b50565b610307816102dd565b811461031257600080fd5b5056fea26469706673582212201eee8624926dedcf65674dea0698def6b8c28f22454743738d1be8cb3a0c642764736f6c63430008010033",
  "immutableReferences": {},
  "source": "pragma solidity ^0.8.0;\n\ncontract CreditToken {\n    \n    //transfer function\n    function transferFrom(address, address, uint ) public returns (bool success) {}\n    function balanceOf(address) public view  returns (uint balance) {}\n    function allowance(address, address ) public view  returns (uint remaining) {}\n    function transfer(address to, uint tokens) external returns (bool success){}\n}\n\n\ncontract Loan{\n    \n    CreditToken constant public creditToken = CreditToken(0xfFee743BD4794361Cb2EC0c86d22fb5Ac4a1568b);\n    uint immutable public collateralRequired;\n    uint immutable public creditTokensRequired;\n    bytes32 public state;\n    address payable immutable public borrower;\n    uint immutable public loanAmount;\n    \n    //states\n    //to read them use https://web3-type-converter.onbrn.com/\n    bytes32 constant WAITING_ON_COLLATERAL = \"waitingOnCollateral\";\n    bytes32 constant TAKING_STAKE = \"takingStake\";\n    bytes32 constant DISBURSING_LOAN = \"disbursingLoan\";\n    bytes32 constant ACTIVE = \"active\";\n    bytes32 constant LATE = \"late\";\n    bytes32 constant PAID_IN_FULL = \"paidInFull\";\n    bytes32 constant DEFAULTED = \"defaulted\";\n    \n    //https://ethereum.stackexchange.com/questions/59132/deploy-contract-with-ether\n    constructor ( \n        //CreditToken tokenAddr, //the address of the credittoken's contract. (only development phase. Should be hardcoded in production time)\n        uint _collateralRequired, //the Ether amount of the collateral in weis\n        address payable _borrower, //address of the borroweaddress\n        uint _creditTokensRequired, // the Credit Tokens neccessary to put up as stake\n        uint _loanAmount //The amount of Ether that is going to be lended to the borrower (weis)\n        )\n        payable{ // The constructor is payable because it will receive the Ether to be lended at creation time\n        \n        require(msg.value == _loanAmount); \n        \n        collateralRequired = _collateralRequired;\n        //creditToken = CreditToken(tokenAddr);\n        borrower = _borrower;\n        loanAmount = _loanAmount;\n        creditTokensRequired = _creditTokensRequired;\n        \n        state = WAITING_ON_COLLATERAL;\n    }\n    \n    modifier onlyOnState(bytes32 _state) {\n            require(state==_state,\"This method cannot be called during current state.\");\n            _;\n    }\n    \n   \n    function getStake(address payable borrower, uint amount) public payable returns (bool success){\n        \n        \n        uint256 allowance = creditToken.allowance(borrower, address(this));\n        require(allowance >= amount, \"Check the token allowance\");\n        creditToken.transferFrom(borrower, address(this), amount);\n        return true;\n    }\n\n    //After this contract has been created, the borrower must put up the collateral by sending ETH\n    //to the address of the Loan Contract which will be handled by this method and initiate the \n    //disbursement of the loan.\n    receive() external payable{\n        require(msg.value >= collateralRequired * 1 wei, \"Your collateral is not enough for this loan.\");\n        \n        //TO-DO: take care of excesive Ether sent, or simply give it back at the end\n        \n        //..Now that the borrower has put the ETH as collateral, we take the CreditTokens for the loan.\n        state = TAKING_STAKE;\n        getStake();\n        \n        //and disburse the loan\n        state = DISBURSING_LOAN;\n        disburseLoan();\n        \n        state = ACTIVE;\n        \n    }\n\n    fallback() external payable {\n        \n        require(msg.value >= collateralRequired * 1 wei, \"Your collateral is not enough for this loan.\");\n        \n        //..Now that the borrower has put the ETH as collateral, we take the tokens for the loan.\n        state = TAKING_STAKE;\n        getStake();\n        \n        //and disburse the loan\n        state = DISBURSING_LOAN;\n        disburseLoan();\n        \n        state = ACTIVE;\n    }\n        \n    //the onlyOnState modifier works around the fact that payable functions cannot be internal nor private\n    function getStake() public payable onlyOnState(TAKING_STAKE) returns (bool success){\n        \n        uint256 allowance = creditToken.allowance(borrower, address(this));\n        require(allowance >= creditTokensRequired, \"Check the token allowance\");\n        creditToken.transferFrom(borrower, address(this), creditTokensRequired);\n        return true;\n    }\n    \n    function getCreditTokenBalance() public view  returns (uint balance) {\n        return creditToken.balanceOf(address(this));\n    }\n    \n    function getEtherBalance() public view returns (uint){\n        return address(this).balance;\n    }\n    \n    function disburseLoan() onlyOnState(DISBURSING_LOAN) private returns(bool success){\n        borrower.transfer(loanAmount);\n        return true;\n    }\n    \n    function returnCollateral() public returns(bool success){ //SET TO PRIVATE!!!\n        borrower.transfer(address(this).balance);\n        return true;\n    }\n    \n    function returnAllCreditTokens() public returns(bool success){ //SET TO PRIVATE!!!\n        creditToken.transfer(borrower, creditToken.balanceOf(address(this) ) );\n        return true;\n    }\n}\n",
  "sourcePath": "C:/projects/sake/contracts/LoanContract.sol",
  "compiler": {
    "name": "solc",
    "version": "0.8.1+commit.df193b15.Emscripten.clang"
  },
  "schemaVersion": "3.3.3",
  "updatedAt": "2021-01-28T02:47:39.489Z",
  "devdoc": {
    "kind": "dev",
    "methods": {},
    "version": 1
  },
  "userdoc": {
    "kind": "user",
    "methods": {},
    "version": 1
  }
}