{
  "contractName": "CreditToken",
  "abi": [
    {
      "inputs": [
        {
          "internalType": "address",
          "name": "",
          "type": "address"
        }
      ],
      "name": "balanceOf",
      "outputs": [
        {
          "internalType": "uint256",
          "name": "balance",
          "type": "uint256"
        }
      ],
      "stateMutability": "view",
      "type": "function"
    }
  ],
  "bytecode": "0x608060405234801561001057600080fd5b50610158806100206000396000f3fe608060405234801561001057600080fd5b506004361061002b5760003560e01c806370a0823114610030575b600080fd5b61004a6004803603810190610045919061007c565b610060565b60405161005791906100b4565b60405180910390f35b6000919050565b6000813590506100768161010b565b92915050565b60006020828403121561008e57600080fd5b600061009c84828501610067565b91505092915050565b6100ae81610101565b82525050565b60006020820190506100c960008301846100a5565b92915050565b60006100da826100e1565b9050919050565b600073ffffffffffffffffffffffffffffffffffffffff82169050919050565b6000819050919050565b610114816100cf565b811461011f57600080fd5b5056fea2646970667358221220e3fbdd5db77bba03b3a8fbbd81b716e86955444bf52383eee5187ff4d6b18e9864736f6c63430008010033",
  "immutableReferences": {},
  "source": "pragma solidity ^0.8.0;\n\ncontract CreditToken {\n    \n    //transfer function\n    //function transferFrom(address, address, uint ) public returns (bool success) {}\n    function balanceOf(address) public view  returns (uint balance) {}\n    // function allowance(address, address ) public view  returns (uint remaining) {}\n    // function transfer(address to, uint tokens) external returns (bool success){}\n}\n\ncontract LoanAgent{\n    \n    address immutable public lendingPoolAddr;\n    CreditToken constant public creditToken = CreditToken(0xfFee743BD4794361Cb2EC0c86d22fb5Ac4a1568b);\n    \n    struct Offer { \n              uint loanAmount;\n              uint collateralETH;\n              uint loanTerm;\n              uint APR;\n              uint totalInterests;\n              }\n    \n    constructor(address _lendingPoolAddr) {\n        lendingPoolAddr = _lendingPoolAddr;\n    }\n    \n    function askForLoan(\n            uint _loanTerm, //in hours\n            uint _loanAmount, //in weis\n            uint creditTokensToStake // in thousandths of tokens (0.001)\n            ) public view returns (Offer memory) {\n        //we retrieve the credit score of the potential borrower\n        uint creditScore = creditToken.balanceOf(msg.sender);\n        require(creditScore>=creditTokensToStake, \"You don't have the credit tokens you are trying to stake\");\n        //we calculate the collateral necessary for this loan depending on the credit score.\n        uint collateral = calculateCollateral(creditTokensToStake, _loanAmount);\n        //we calculate an amortization plan depending on the loan term and the loan amount\n        uint _APR = getAPR();\n        uint totalInterests = calculateInterests( _loanTerm, _loanAmount, _APR);\n        //we elaborate a struct with the offer\n        Offer memory offer;\n        offer = Offer( _loanAmount, collateral, _loanTerm, _APR, totalInterests );\n        return offer;\n    }\n    \n    function calculateCollateral(uint creditScore, uint loanAmount) private pure returns (uint collateral){\n      return loanAmount/(75*creditScore/10000000);\n      \n    }\n    \n    function calculateInterests( uint loanTerm, uint loanAmount, uint _APR ) private pure returns (uint totalInterests){\n        return _APR;\n    }\n    \n    function getAPR() private pure returns (uint APR){\n        return 25;\n    }\n    \n    \n}",
  "sourcePath": "C:/projects/sake/contracts/LoanAgent.sol",
  "compiler": {
    "name": "solc",
    "version": "0.8.1+commit.df193b15.Emscripten.clang"
  },
  "schemaVersion": "3.3.3",
  "updatedAt": "2021-02-02T04:48:11.831Z",
  "devdoc": {
    "kind": "dev",
    "methods": {},
    "version": 1
  },
  "userdoc": {
    "kind": "user",
    "methods": {},
    "version": 1
  }
}