{
  "contractName": "DummyPayer",
  "abi": [
    {
      "inputs": [
        {
          "internalType": "address",
          "name": "lendingPoolAddress",
          "type": "address"
        }
      ],
      "stateMutability": "payable",
      "type": "constructor"
    },
    {
      "inputs": [],
      "name": "lendingPool",
      "outputs": [
        {
          "internalType": "contract DummyLendingPool",
          "name": "",
          "type": "address"
        }
      ],
      "stateMutability": "view",
      "type": "function"
    },
    {
      "inputs": [
        {
          "internalType": "uint256",
          "name": "fees",
          "type": "uint256"
        },
        {
          "internalType": "uint256",
          "name": "interest",
          "type": "uint256"
        },
        {
          "internalType": "uint256",
          "name": "total",
          "type": "uint256"
        }
      ],
      "name": "payPool",
      "outputs": [],
      "stateMutability": "nonpayable",
      "type": "function"
    },
    {
      "inputs": [],
      "name": "getEtherBalance",
      "outputs": [
        {
          "internalType": "uint256",
          "name": "",
          "type": "uint256"
        }
      ],
      "stateMutability": "view",
      "type": "function"
    },
    {
      "inputs": [
        {
          "internalType": "address",
          "name": "to",
          "type": "address"
        }
      ],
      "name": "transferAll",
      "outputs": [],
      "stateMutability": "nonpayable",
      "type": "function"
    }
  ],
  "bytecode": "0x60a06040526040516104be3803806104be83398181016040528101906100259190610077565b8073ffffffffffffffffffffffffffffffffffffffff1660808173ffffffffffffffffffffffffffffffffffffffff1660601b81525050506100e9565b600081519050610071816100d2565b92915050565b60006020828403121561008957600080fd5b600061009784828501610062565b91505092915050565b60006100ab826100b2565b9050919050565b600073ffffffffffffffffffffffffffffffffffffffff82169050919050565b6100db816100a0565b81146100e657600080fd5b50565b60805160601c6103b161010d6000396000818160c701526101a401526103b16000f3fe608060405234801561001057600080fd5b506004361061004c5760003560e01c80639add5f2a14610051578063a3a7e7f31461006d578063a59a997314610089578063ea46193e146100a7575b600080fd5b61006b60048036038101906100669190610221565b6100c5565b005b610087600480360381019061008291906101f8565b610158565b005b6100916101a2565b60405161009e919061028e565b60405180910390f35b6100af6101c6565b6040516100bc91906102a9565b60405180910390f35b7f000000000000000000000000000000000000000000000000000000000000000073ffffffffffffffffffffffffffffffffffffffff16639f0c4dd28285856040518463ffffffff1660e01b81526004016101219291906102c4565b6000604051808303818588803b15801561013a57600080fd5b505af115801561014e573d6000803e3d6000fd5b5050505050505050565b8073ffffffffffffffffffffffffffffffffffffffff166108fc479081150290604051600060405180830381858888f1935050505015801561019e573d6000803e3d6000fd5b5050565b7f000000000000000000000000000000000000000000000000000000000000000081565b600047905090565b6000813590506101dd8161034d565b92915050565b6000813590506101f281610364565b92915050565b60006020828403121561020a57600080fd5b6000610218848285016101ce565b91505092915050565b60008060006060848603121561023657600080fd5b6000610244868287016101e3565b9350506020610255868287016101e3565b9250506040610266868287016101e3565b9150509250925092565b61027981610329565b82525050565b6102888161031f565b82525050565b60006020820190506102a36000830184610270565b92915050565b60006020820190506102be600083018461027f565b92915050565b60006040820190506102d9600083018561027f565b6102e6602083018461027f565b9392505050565b60006102f8826102ff565b9050919050565b600073ffffffffffffffffffffffffffffffffffffffff82169050919050565b6000819050919050565b60006103348261033b565b9050919050565b6000610346826102ff565b9050919050565b610356816102ed565b811461036157600080fd5b50565b61036d8161031f565b811461037857600080fd5b5056fea2646970667358221220cc641de0bff9e0f77b876986671f718c254e7ae045f0bdc78822399edd10e0d664736f6c63430008010033",
  "immutableReferences": {
    "13": [
      {
        "length": 32,
        "start": 199
      },
      {
        "length": 32,
        "start": 420
      }
    ]
  },
  "source": "pragma solidity ^0.8.0;\n\ncontract DummyLendingPool{\n    function receiveFromLoan(uint, uint) external payable{}\n}\n\ncontract DummyPayer{\n    DummyLendingPool public immutable lendingPool;\n    \n    constructor(address lendingPoolAddress) payable{\n        lendingPool = DummyLendingPool(lendingPoolAddress);\n    }\n    \n    function payPool(uint fees, uint interest, uint total) public {\n        lendingPool.receiveFromLoan{value: total}(fees, interest);\n    }\n    function getEtherBalance() public view returns (uint){\n        return address(this).balance;\n    }\n    \n    \n    function transferAll(address to) public {\n        payable(to).transfer(address(this).balance);\n    }\n    \n}",
  "sourcePath": "/Users/oscareduardosernarosero/Documents/US/Rice_U/sake/contracts/DummyPayer.sol",
  "compiler": {
    "name": "solc",
    "version": "0.8.1+commit.df193b15.Emscripten.clang"
  },
  "schemaVersion": "3.3.3",
  "updatedAt": "2021-02-04T04:27:53.514Z",
  "devdoc": {
    "kind": "dev",
    "methods": {},
    "version": 1
  },
  "userdoc": {
    "kind": "user",
    "methods": {},
    "version": 1
  }
}