{
  "contractName": "DummyLendingPool",
  "abi": [
    {
      "inputs": [
        {
          "internalType": "uint256",
          "name": "",
          "type": "uint256"
        },
        {
          "internalType": "uint256",
          "name": "",
          "type": "uint256"
        }
      ],
      "name": "receiveFromLoan",
      "outputs": [],
      "stateMutability": "payable",
      "type": "function"
    }
  ],
  "bytecode": "0x608060405234801561001057600080fd5b5060db8061001f6000396000f3fe608060405260043610601c5760003560e01c80639f0c4dd2146021575b600080fd5b60376004803603810190603391906050565b6039565b005b5050565b600081359050604a816091565b92915050565b60008060408385031215606257600080fd5b6000606e85828601603d565b9250506020607d85828601603d565b9150509250929050565b6000819050919050565b6098816087565b811460a257600080fd5b5056fea2646970667358221220d6364f34c32cbd5bbbae9915ee4518c92928fcabd9d1271973a6f7766c65b67d64736f6c63430008010033",
  "immutableReferences": {},
  "source": "pragma solidity ^0.8.0;\n\ncontract DummyLendingPool{\n    function receiveFromLoan(uint, uint) external payable{}\n}\n\ncontract DummyPayer{\n    DummyLendingPool public immutable lendingPool;\n    \n    constructor(address lendingPoolAddress) payable{\n        lendingPool = DummyLendingPool(lendingPoolAddress);\n    }\n    \n    function payPool(uint fees, uint interest, uint total) public {\n        lendingPool.receiveFromLoan{value: total}(fees, interest);\n    }\n    function getEtherBalance() public view returns (uint){\n        return address(this).balance;\n    }\n    \n    \n    function transferAll(address to) public {\n        payable(to).transfer(address(this).balance);\n    }\n    \n}",
  "sourcePath": "/Users/oscareduardosernarosero/Documents/US/Rice_U/sake/contracts/DummyPayer.sol",
  "compiler": {
    "name": "solc",
    "version": "0.8.1+commit.df193b15.Emscripten.clang"
  },
  "schemaVersion": "3.3.3",
  "updatedAt": "2021-02-04T04:27:53.511Z",
  "devdoc": {
    "kind": "dev",
    "methods": {},
    "version": 1
  },
  "userdoc": {
    "kind": "user",
    "methods": {},
    "version": 1
  }
}