{
  "contractName": "LendingPool",
  "abi": [
    {
      "inputs": [
        {
          "internalType": "uint256",
          "name": "_maxSize",
          "type": "uint256"
        }
      ],
      "stateMutability": "nonpayable",
      "type": "constructor"
    },
    {
      "anonymous": false,
      "inputs": [
        {
          "indexed": false,
          "internalType": "string",
          "name": "msg",
          "type": "string"
        }
      ],
      "name": "Log",
      "type": "event"
    },
    {
      "anonymous": false,
      "inputs": [
        {
          "indexed": false,
          "internalType": "string",
          "name": "name",
          "type": "string"
        },
        {
          "indexed": false,
          "internalType": "uint256",
          "name": "value",
          "type": "uint256"
        }
      ],
      "name": "genericUint",
      "type": "event"
    },
    {
      "anonymous": false,
      "inputs": [
        {
          "indexed": false,
          "internalType": "address",
          "name": "lender",
          "type": "address"
        },
        {
          "indexed": false,
          "internalType": "uint256",
          "name": "balance",
          "type": "uint256"
        },
        {
          "indexed": false,
          "internalType": "bool",
          "name": "multipleBalances",
          "type": "bool"
        }
      ],
      "name": "totalInterestWorthyBalanceEvent",
      "type": "event"
    },
    {
      "inputs": [
        {
          "internalType": "address",
          "name": "",
          "type": "address"
        },
        {
          "internalType": "uint256",
          "name": "",
          "type": "uint256"
        }
      ],
      "name": "balances",
      "outputs": [
        {
          "internalType": "uint256",
          "name": "balance",
          "type": "uint256"
        },
        {
          "internalType": "uint256",
          "name": "lastPayment",
          "type": "uint256"
        },
        {
          "internalType": "uint256",
          "name": "totalPayable",
          "type": "uint256"
        }
      ],
      "stateMutability": "view",
      "type": "function"
    },
    {
      "inputs": [],
      "name": "creditToken",
      "outputs": [
        {
          "internalType": "contract CreditToken",
          "name": "",
          "type": "address"
        }
      ],
      "stateMutability": "view",
      "type": "function"
    },
    {
      "inputs": [
        {
          "internalType": "address",
          "name": "",
          "type": "address"
        },
        {
          "internalType": "uint256",
          "name": "",
          "type": "uint256"
        }
      ],
      "name": "loansOfBorrower",
      "outputs": [
        {
          "internalType": "address",
          "name": "",
          "type": "address"
        }
      ],
      "stateMutability": "view",
      "type": "function"
    },
    {
      "inputs": [],
      "name": "maxSize",
      "outputs": [
        {
          "internalType": "uint256",
          "name": "",
          "type": "uint256"
        }
      ],
      "stateMutability": "view",
      "type": "function"
    },
    {
      "inputs": [],
      "name": "owner",
      "outputs": [
        {
          "internalType": "address",
          "name": "",
          "type": "address"
        }
      ],
      "stateMutability": "view",
      "type": "function"
    },
    {
      "inputs": [
        {
          "internalType": "address",
          "name": "",
          "type": "address"
        }
      ],
      "name": "paidByLoan",
      "outputs": [
        {
          "internalType": "uint256",
          "name": "",
          "type": "uint256"
        }
      ],
      "stateMutability": "view",
      "type": "function"
    },
    {
      "inputs": [],
      "name": "periodFees",
      "outputs": [
        {
          "internalType": "uint256",
          "name": "",
          "type": "uint256"
        }
      ],
      "stateMutability": "view",
      "type": "function"
    },
    {
      "inputs": [],
      "name": "periodInterest",
      "outputs": [
        {
          "internalType": "uint256",
          "name": "",
          "type": "uint256"
        }
      ],
      "stateMutability": "view",
      "type": "function"
    },
    {
      "stateMutability": "payable",
      "type": "receive"
    },
    {
      "inputs": [
        {
          "internalType": "uint256",
          "name": "fees",
          "type": "uint256"
        },
        {
          "internalType": "uint256",
          "name": "interest",
          "type": "uint256"
        }
      ],
      "name": "receiveFromLoan",
      "outputs": [],
      "stateMutability": "payable",
      "type": "function"
    },
    {
      "inputs": [
        {
          "internalType": "address",
          "name": "loanAddr",
          "type": "address"
        }
      ],
      "name": "liquidateLoan",
      "outputs": [],
      "stateMutability": "nonpayable",
      "type": "function"
    },
    {
      "inputs": [],
      "name": "payLenders",
      "outputs": [],
      "stateMutability": "nonpayable",
      "type": "function"
    },
    {
      "inputs": [],
      "name": "calculateInterestWorthyCapital",
      "outputs": [
        {
          "internalType": "uint256",
          "name": "",
          "type": "uint256"
        }
      ],
      "stateMutability": "nonpayable",
      "type": "function"
    },
    {
      "inputs": [],
      "name": "getBalance",
      "outputs": [
        {
          "internalType": "uint256",
          "name": "",
          "type": "uint256"
        }
      ],
      "stateMutability": "view",
      "type": "function"
    },
    {
      "inputs": [
        {
          "internalType": "address",
          "name": "to",
          "type": "address"
        }
      ],
      "name": "transferAll",
      "outputs": [],
      "stateMutability": "nonpayable",
      "type": "function"
    },
    {
      "inputs": [],
      "name": "viewLenders",
      "outputs": [
        {
          "internalType": "address[]",
          "name": "",
          "type": "address[]"
        }
      ],
      "stateMutability": "view",
      "type": "function"
    },
    {
      "inputs": [
        {
          "internalType": "uint256",
          "name": "_collateralRequired",
          "type": "uint256"
        },
        {
          "internalType": "address payable",
          "name": "_borrower",
          "type": "address"
        },
        {
          "internalType": "uint256",
          "name": "_creditTokensRequired",
          "type": "uint256"
        },
        {
          "internalType": "uint256",
          "name": "_loanAmount",
          "type": "uint256"
        },
        {
          "internalType": "uint256",
          "name": "_loanTerm",
          "type": "uint256"
        },
        {
          "internalType": "uint256",
          "name": "_interestRate",
          "type": "uint256"
        }
      ],
      "name": "createLoan",
      "outputs": [],
      "stateMutability": "nonpayable",
      "type": "function"
    }
  ],
  "bytecode": "0x60a06040523480156200001157600080fd5b5060405162005344380380620053448339818101604052810190620000379190620000af565b80608081815250506200004f6200005660201b60201c565b50620000ff565b336000806101000a81548173ffffffffffffffffffffffffffffffffffffffff021916908373ffffffffffffffffffffffffffffffffffffffff160217905550565b600081519050620000a981620000e5565b92915050565b600060208284031215620000c257600080fd5b6000620000d28482850162000098565b91505092915050565b6000819050919050565b620000f081620000db565b8114620000fc57600080fd5b50565b6080516152226200012260003960008181610117015261066401526152226000f3fe6080604052600436106200010f5760003560e01c8063bbdfa00e1162000097578063ee7634591162000061578063ee7634591462000574578063f21d057214620005b8578063f81ae7ab14620005fc578063fc165d5e146200062a5762000343565b8063bbdfa00e14620004b6578063c43d8ab714620004e4578063cbf1304d1462000514578063d5c5aadd146200055a5762000343565b80638da5cb5b11620000d95780638da5cb5b14620004085780639d138e2414620004385780639f0c4dd21462000468578063a3a7e7f314620004885762000343565b806312065fe014620003485780632565b15914620003785780635635bb5b14620003a8578063899e5d8514620003d85762000343565b3662000343577f00000000000000000000000000000000000000000000000000000000000000004711156200017b576040517f08c379a00000000000000000000000000000000000000000000000000000000081526004016200017290620022ae565b60405180910390fd5b6000600160003373ffffffffffffffffffffffffffffffffffffffff1673ffffffffffffffffffffffffffffffffffffffff16815260200190815260200160002080549050141562000262577fcf34ef537ac33ee1ac626ca1587a0a7e8e51561e5514f8cb36afa1c5102b3bab604051620001f6906200225a565b60405180910390a16002339080600181540180825580915050600190039060005260206000200160009091909190916101000a81548173ffffffffffffffffffffffffffffffffffffffff021916908373ffffffffffffffffffffffffffffffffffffffff1602179055505b6200026c62001d22565b3481600001818152505042816020018181525050600160003373ffffffffffffffffffffffffffffffffffffffff1673ffffffffffffffffffffffffffffffffffffffff16815260200190815260200160002081908060018154018082558091505060019003906000526020600020906003020160009091909190915060008201518160000155602082015181600101556040820151816002015550507fcf34ef537ac33ee1ac626ca1587a0a7e8e51561e5514f8cb36afa1c5102b3bab604051620003389062002334565b60405180910390a150005b600080fd5b3480156200035557600080fd5b50620003606200065a565b6040516200036f919062002388565b60405180910390f35b3480156200038557600080fd5b506200039062000662565b6040516200039f919062002388565b60405180910390f35b348015620003b557600080fd5b50620003c062000686565b604051620003cf9190620021e7565b60405180910390f35b348015620003e557600080fd5b50620003f062000716565b604051620003ff91906200220b565b60405180910390f35b3480156200041557600080fd5b50620004206200072e565b6040516200042f919062002150565b60405180910390f35b3480156200044557600080fd5b506200045062000752565b6040516200045f919062002388565b60405180910390f35b62000486600480360381019062000480919062001edc565b62000758565b005b3480156200049557600080fd5b50620004b46004803603810190620004ae919062001dad565b620007ea565b005b348015620004c357600080fd5b50620004e26004803603810190620004dc919062001dad565b6200088e565b005b348015620004f157600080fd5b50620004fc62000891565b6040516200050b919062002388565b60405180910390f35b3480156200052157600080fd5b506200054060048036038101906200053a919062001dd9565b620016ab565b604051620005519392919062002412565b60405180910390f35b3480156200056757600080fd5b5062000572620016f3565b005b3480156200058157600080fd5b50620005a060048036038101906200059a919062001dd9565b62001a96565b604051620005af919062002150565b60405180910390f35b348015620005c557600080fd5b50620005e46004803603810190620005de919062001dad565b62001ae5565b604051620005f3919062002388565b60405180910390f35b3480156200060957600080fd5b5062000628600480360381019062000622919062001e46565b62001afd565b005b3480156200063757600080fd5b506200064262001d1c565b60405162000651919062002388565b60405180910390f35b600047905090565b7f000000000000000000000000000000000000000000000000000000000000000081565b606060028054806020026020016040519081016040528092919081815260200182805480156200070c57602002820191906000526020600020905b8160009054906101000a900473ffffffffffffffffffffffffffffffffffffffff1673ffffffffffffffffffffffffffffffffffffffff1681526020019060010190808311620006c1575b5050505050905090565b7380cdf946c1c86b7eee50743e2bc9a6d7d9ed597a81565b60008054906101000a900473ffffffffffffffffffffffffffffffffffffffff1681565b60055481565b34600460003373ffffffffffffffffffffffffffffffffffffffff1673ffffffffffffffffffffffffffffffffffffffff1681526020019081526020016000206000828254620007a9919062002499565b925050819055508160066000828254620007c4919062002499565b925050819055508060056000828254620007df919062002499565b925050819055505050565b60008054906101000a900473ffffffffffffffffffffffffffffffffffffffff1673ffffffffffffffffffffffffffffffffffffffff163373ffffffffffffffffffffffffffffffffffffffff16146200084357600080fd5b8073ffffffffffffffffffffffffffffffffffffffff166108fc479081150290604051600060405180830381858888f193505050501580156200088a573d6000803e3d6000fd5b5050565b50565b60008060005b6002805490508110156200166a576000600180600060028581548110620008e7577f4e487b7100000000000000000000000000000000000000000000000000000000600052603260045260246000fd5b9060005260206000200160009054906101000a900473ffffffffffffffffffffffffffffffffffffffff1673ffffffffffffffffffffffffffffffffffffffff1673ffffffffffffffffffffffffffffffffffffffff16815260200190815260200160002080549050111562001224576000805b60016000600286815481106200099a577f4e487b7100000000000000000000000000000000000000000000000000000000600052603260045260246000fd5b9060005260206000200160009054906101000a900473ffffffffffffffffffffffffffffffffffffffff1673ffffffffffffffffffffffffffffffffffffffff1673ffffffffffffffffffffffffffffffffffffffff1681526020019081526020016000208054905081101562000cc3576000600160006002878154811062000a4c577f4e487b7100000000000000000000000000000000000000000000000000000000600052603260045260246000fd5b9060005260206000200160009054906101000a900473ffffffffffffffffffffffffffffffffffffffff1673ffffffffffffffffffffffffffffffffffffffff1673ffffffffffffffffffffffffffffffffffffffff168152602001908152602001600020828154811062000aea577f4e487b7100000000000000000000000000000000000000000000000000000000600052603260045260246000fd5b90600052602060002090600302016000015490507ff6051cb316b2f42cbfba3a6509d87d79311a6644469aed8bf98772d909993ff68160405162000b2f919062002356565b60405180910390a16000603c600160006002898154811062000b7a577f4e487b7100000000000000000000000000000000000000000000000000000000600052603260045260246000fd5b9060005260206000200160009054906101000a900473ffffffffffffffffffffffffffffffffffffffff1673ffffffffffffffffffffffffffffffffffffffff1673ffffffffffffffffffffffffffffffffffffffff168152602001908152602001600020848154811062000c18577f4e487b7100000000000000000000000000000000000000000000000000000000600052603260045260246000fd5b9060005260206000209060030201600101544262000c3791906200258f565b62000c439190620024f6565b90507ff6051cb316b2f42cbfba3a6509d87d79311a6644469aed8bf98772d909993ff68160405162000c76919062002302565b60405180910390a1808262000c8c91906200252e565b8562000c99919062002499565b9450818462000ca9919062002499565b93505050808062000cba906200268c565b9150506200095b565b506000600190505b600160006002868154811062000d0a577f4e487b7100000000000000000000000000000000000000000000000000000000600052603260045260246000fd5b9060005260206000200160009054906101000a900473ffffffffffffffffffffffffffffffffffffffff1673ffffffffffffffffffffffffffffffffffffffff1673ffffffffffffffffffffffffffffffffffffffff1681526020019081526020016000208054905081101562000e9d57600160006002868154811062000dba577f4e487b7100000000000000000000000000000000000000000000000000000000600052603260045260246000fd5b9060005260206000200160009054906101000a900473ffffffffffffffffffffffffffffffffffffffff1673ffffffffffffffffffffffffffffffffffffffff1673ffffffffffffffffffffffffffffffffffffffff16815260200190815260200160002080548062000e56577f4e487b7100000000000000000000000000000000000000000000000000000000600052603160045260246000fd5b60019003818190600052602060002090600302016000808201600090556001820160009055600282016000905550509055808062000e94906200268c565b91505062000ccb565b5080600160006002868154811062000ede577f4e487b7100000000000000000000000000000000000000000000000000000000600052603260045260246000fd5b9060005260206000200160009054906101000a900473ffffffffffffffffffffffffffffffffffffffff1673ffffffffffffffffffffffffffffffffffffffff1673ffffffffffffffffffffffffffffffffffffffff16815260200190815260200160002060008154811062000f7d577f4e487b7100000000000000000000000000000000000000000000000000000000600052603260045260246000fd5b90600052602060002090600302016000018190555042600160006002868154811062000fd2577f4e487b7100000000000000000000000000000000000000000000000000000000600052603260045260246000fd5b9060005260206000200160009054906101000a900473ffffffffffffffffffffffffffffffffffffffff1673ffffffffffffffffffffffffffffffffffffffff1673ffffffffffffffffffffffffffffffffffffffff16815260200190815260200160002060008154811062001071577f4e487b7100000000000000000000000000000000000000000000000000000000600052603260045260246000fd5b906000526020600020906003020160010181905550816001600060028681548110620010c6577f4e487b7100000000000000000000000000000000000000000000000000000000600052603260045260246000fd5b9060005260206000200160009054906101000a900473ffffffffffffffffffffffffffffffffffffffff1673ffffffffffffffffffffffffffffffffffffffff1673ffffffffffffffffffffffffffffffffffffffff16815260200190815260200160002060008154811062001165577f4e487b7100000000000000000000000000000000000000000000000000000000600052603260045260246000fd5b9060005260206000209060030201600201819055507f61b017dc1b6d5e685eb4f28089809bda727105390c9a1f1d05022eb018d2201260028481548110620011d6577f4e487b7100000000000000000000000000000000000000000000000000000000600052603260045260246000fd5b9060005260206000200160009054906101000a900473ffffffffffffffffffffffffffffffffffffffff168360016040516200121593929190620021aa565b60405180910390a15062001643565b6000600160006002858154811062001265577f4e487b7100000000000000000000000000000000000000000000000000000000600052603260045260246000fd5b9060005260206000200160009054906101000a900473ffffffffffffffffffffffffffffffffffffffff1673ffffffffffffffffffffffffffffffffffffffff1673ffffffffffffffffffffffffffffffffffffffff16815260200190815260200160002060008154811062001304577f4e487b7100000000000000000000000000000000000000000000000000000000600052603260045260246000fd5b90600052602060002090600302016000015490507ff6051cb316b2f42cbfba3a6509d87d79311a6644469aed8bf98772d909993ff68160405162001349919062002356565b60405180910390a16000603c600160006002878154811062001394577f4e487b7100000000000000000000000000000000000000000000000000000000600052603260045260246000fd5b9060005260206000200160009054906101000a900473ffffffffffffffffffffffffffffffffffffffff1673ffffffffffffffffffffffffffffffffffffffff1673ffffffffffffffffffffffffffffffffffffffff16815260200190815260200160002060008154811062001433577f4e487b7100000000000000000000000000000000000000000000000000000000600052603260045260246000fd5b906000526020600020906003020160010154426200145291906200258f565b6200145e9190620024f6565b90507ff6051cb316b2f42cbfba3a6509d87d79311a6644469aed8bf98772d909993ff68160405162001491919062002302565b60405180910390a18082620014a791906200252e565b9250826001600060028781548110620014e9577f4e487b7100000000000000000000000000000000000000000000000000000000600052603260045260246000fd5b9060005260206000200160009054906101000a900473ffffffffffffffffffffffffffffffffffffffff1673ffffffffffffffffffffffffffffffffffffffff1673ffffffffffffffffffffffffffffffffffffffff16815260200190815260200160002060008154811062001588577f4e487b7100000000000000000000000000000000000000000000000000000000600052603260045260246000fd5b9060005260206000209060030201600201819055507f61b017dc1b6d5e685eb4f28089809bda727105390c9a1f1d05022eb018d2201260028581548110620015f9577f4e487b7100000000000000000000000000000000000000000000000000000000600052603260045260246000fd5b9060005260206000200160009054906101000a900473ffffffffffffffffffffffffffffffffffffffff168460006040516200163893929190620021aa565b60405180910390a150505b808362001651919062002499565b925050808062001661906200268c565b91505062000897565b507ff6051cb316b2f42cbfba3a6509d87d79311a6644469aed8bf98772d909993ff6816040516200169c919062002228565b60405180910390a18091505090565b60016020528160005260406000208181548110620016c857600080fd5b9060005260206000209060030201600091509150508060000154908060010154908060020154905083565b6000620016ff62000891565b9050600081620f42406005546006546200171a919062002499565b6200172691906200252e565b620017329190620024f6565b90507ff6051cb316b2f42cbfba3a6509d87d79311a6644469aed8bf98772d909993ff681604051620017659190620022d0565b60405180910390a160005b60028054905081101562001a81576000620f42406001600060028581548110620017c3577f4e487b7100000000000000000000000000000000000000000000000000000000600052603260045260246000fd5b9060005260206000200160009054906101000a900473ffffffffffffffffffffffffffffffffffffffff1673ffffffffffffffffffffffffffffffffffffffff1673ffffffffffffffffffffffffffffffffffffffff16815260200190815260200160002060008154811062001862577f4e487b7100000000000000000000000000000000000000000000000000000000600052603260045260246000fd5b906000526020600020906003020160020154846200188191906200252e565b6200188d9190620024f6565b90507ff6051cb316b2f42cbfba3a6509d87d79311a6644469aed8bf98772d909993ff681604051620018c091906200227c565b60405180910390a16002828154811062001903577f4e487b7100000000000000000000000000000000000000000000000000000000600052603260045260246000fd5b9060005260206000200160009054906101000a900473ffffffffffffffffffffffffffffffffffffffff1673ffffffffffffffffffffffffffffffffffffffff166108fc829081150290604051600060405180830381858888f1935050505015801562001974573d6000803e3d6000fd5b5060006001600060028581548110620019b6577f4e487b7100000000000000000000000000000000000000000000000000000000600052603260045260246000fd5b9060005260206000200160009054906101000a900473ffffffffffffffffffffffffffffffffffffffff1673ffffffffffffffffffffffffffffffffffffffff1673ffffffffffffffffffffffffffffffffffffffff16815260200190815260200160002060008154811062001a55577f4e487b7100000000000000000000000000000000000000000000000000000000600052603260045260246000fd5b90600052602060002090600302016002018190555050808062001a78906200268c565b91505062001770565b50600060068190555060006005819055505050565b6003602052816000526040600020818154811062001ab357600080fd5b906000526020600020016000915091509054906101000a900473ffffffffffffffffffffffffffffffffffffffff1681565b60046020528060005260406000206000915090505481565b60008387878787878760405162001b149062001d43565b62001b2596959493929190620023a5565b6040518091039082f090508015801562001b43573d6000803e3d6000fd5b5090507380cdf946c1c86b7eee50743e2bc9a6d7d9ed597a73ffffffffffffffffffffffffffffffffffffffff166341566585826040518263ffffffff1660e01b815260040162001b95919062002150565b600060405180830381600087803b15801562001bb057600080fd5b505af115801562001bc5573d6000803e3d6000fd5b505050507380cdf946c1c86b7eee50743e2bc9a6d7d9ed597a73ffffffffffffffffffffffffffffffffffffffff1663e1f21c678783886040518463ffffffff1660e01b815260040162001c1c939291906200216d565b602060405180830381600087803b15801562001c3757600080fd5b505af115801562001c4c573d6000803e3d6000fd5b505050506040513d601f19601f8201168201806040525081019062001c72919062001e1a565b50600360008773ffffffffffffffffffffffffffffffffffffffff1673ffffffffffffffffffffffffffffffffffffffff168152602001908152602001600020819080600181540180825580915050600190039060005260206000200160009091909190916101000a81548173ffffffffffffffffffffffffffffffffffffffff021916908373ffffffffffffffffffffffffffffffffffffffff16021790555050505050505050565b60065481565b60405180606001604052806000815260200160008152602001600081525090565b61290480620028e983390190565b60008135905062001d628162002880565b92915050565b60008135905062001d79816200289a565b92915050565b60008151905062001d9081620028b4565b92915050565b60008135905062001da781620028ce565b92915050565b60006020828403121562001dc057600080fd5b600062001dd08482850162001d51565b91505092915050565b6000806040838503121562001ded57600080fd5b600062001dfd8582860162001d51565b925050602062001e108582860162001d96565b9150509250929050565b60006020828403121562001e2d57600080fd5b600062001e3d8482850162001d7f565b91505092915050565b60008060008060008060c0878903121562001e6057600080fd5b600062001e7089828a0162001d96565b965050602062001e8389828a0162001d68565b955050604062001e9689828a0162001d96565b945050606062001ea989828a0162001d96565b935050608062001ebc89828a0162001d96565b92505060a062001ecf89828a0162001d96565b9150509295509295509295565b6000806040838503121562001ef057600080fd5b600062001f008582860162001d96565b925050602062001f138582860162001d96565b9150509250929050565b600062001f2b838362001f59565b60208301905092915050565b62001f428162002628565b82525050565b62001f5381620025de565b82525050565b62001f6481620025ca565b82525050565b62001f7581620025ca565b82525050565b600062001f88826200245f565b62001f94818562002477565b935062001fa1836200244f565b8060005b8381101562001fd857815162001fbc888262001f1d565b975062001fc9836200246a565b92505060018101905062001fa5565b5085935050505092915050565b62001ff081620025f2565b82525050565b62002001816200263c565b82525050565b600062002016600c8362002488565b9150620020238262002738565b602082019050919050565b60006200203d600a8362002488565b91506200204a8262002761565b602082019050919050565b60006200206460078362002488565b915062002071826200278a565b602082019050919050565b60006200208b60118362002488565b91506200209882620027b3565b602082019050919050565b6000620020b260098362002488565b9150620020bf82620027dc565b602082019050919050565b6000620020d960058362002488565b9150620020e68262002805565b602082019050919050565b60006200210060148362002488565b91506200210d826200282e565b602082019050919050565b60006200212760078362002488565b9150620021348262002857565b602082019050919050565b6200214a816200261e565b82525050565b600060208201905062002167600083018462001f6a565b92915050565b600060608201905062002184600083018662001f37565b62002193602083018562001f6a565b620021a260408301846200213f565b949350505050565b6000606082019050620021c1600083018662001f6a565b620021d060208301856200213f565b620021df604083018462001fe5565b949350505050565b6000602082019050818103600083015262002203818462001f7b565b905092915050565b600060208201905062002222600083018462001ff6565b92915050565b60006040820190508181036000830152620022438162002007565b90506200225460208301846200213f565b92915050565b6000602082019050818103600083015262002275816200202e565b9050919050565b60006040820190508181036000830152620022978162002055565b9050620022a860208301846200213f565b92915050565b60006020820190508181036000830152620022c9816200207c565b9050919050565b60006040820190508181036000830152620022eb81620020a3565b9050620022fc60208301846200213f565b92915050565b600060408201905081810360008301526200231d81620020ca565b90506200232e60208301846200213f565b92915050565b600060208201905081810360008301526200234f81620020f1565b9050919050565b60006040820190508181036000830152620023718162002118565b90506200238260208301846200213f565b92915050565b60006020820190506200239f60008301846200213f565b92915050565b600060c082019050620023bc60008301896200213f565b620023cb602083018862001f48565b620023da60408301876200213f565b620023e960608301866200213f565b620023f860808301856200213f565b6200240760a08301846200213f565b979650505050505050565b60006060820190506200242960008301866200213f565b6200243860208301856200213f565b6200244760408301846200213f565b949350505050565b6000819050602082019050919050565b600081519050919050565b6000602082019050919050565b600082825260208201905092915050565b600082825260208201905092915050565b6000620024a6826200261e565b9150620024b3836200261e565b9250827fffffffffffffffffffffffffffffffffffffffffffffffffffffffffffffffff03821115620024eb57620024ea620026da565b5b828201905092915050565b600062002503826200261e565b915062002510836200261e565b92508262002523576200252262002709565b5b828204905092915050565b60006200253b826200261e565b915062002548836200261e565b9250817fffffffffffffffffffffffffffffffffffffffffffffffffffffffffffffffff0483118215151615620025845762002583620026da565b5b828202905092915050565b60006200259c826200261e565b9150620025a9836200261e565b925082821015620025bf57620025be620026da565b5b828203905092915050565b6000620025d782620025fe565b9050919050565b6000620025eb82620025fe565b9050919050565b60008115159050919050565b600073ffffffffffffffffffffffffffffffffffffffff82169050919050565b6000819050919050565b6000620026358262002664565b9050919050565b6000620026498262002650565b9050919050565b60006200265d82620025fe565b9050919050565b6000620026718262002678565b9050919050565b60006200268582620025fe565b9050919050565b600062002699826200261e565b91507fffffffffffffffffffffffffffffffffffffffffffffffffffffffffffffffff821415620026cf57620026ce620026da565b5b600182019050919050565b7f4e487b7100000000000000000000000000000000000000000000000000000000600052601160045260246000fd5b7f4e487b7100000000000000000000000000000000000000000000000000000000600052601260045260246000fd5b7f746f74616c4361706974616c0000000000000000000000000000000000000000600082015250565b7f4e6577204c656e64657200000000000000000000000000000000000000000000600082015250565b7f7969656c643a2000000000000000000000000000000000000000000000000000600082015250565b7f5468697320706f6f6c2069732066756c6c000000000000000000000000000000600082015250565b7f7969656c64526174650000000000000000000000000000000000000000000000600082015250565b7f6e44617973000000000000000000000000000000000000000000000000000000600082015250565b7f6164646564206c656e6465722062616c616e6365000000000000000000000000600082015250565b7f62616c616e636500000000000000000000000000000000000000000000000000600082015250565b6200288b81620025ca565b81146200289757600080fd5b50565b620028a581620025de565b8114620028b157600080fd5b50565b620028bf81620025f2565b8114620028cb57600080fd5b50565b620028d9816200261e565b8114620028e557600080fd5b5056fe6101806040526096600455604051620029043803806200290483398181016040528101906200002f919062000171565b8234146200003c57600080fd5b4260e081815250503373ffffffffffffffffffffffffffffffffffffffff1660808173ffffffffffffffffffffffffffffffffffffffff1660601b81525050426000819055508560a081815250508161014081815250508473ffffffffffffffffffffffffffffffffffffffff166101008173ffffffffffffffffffffffffffffffffffffffff1660601b815250508261012081815250508360c081815250508061016081815250506000600760006101000a81548160ff0219169083600681111562000132577f4e487b7100000000000000000000000000000000000000000000000000000000600052602160045260246000fd5b021790555050505050505062000279565b600081519050620001548162000245565b92915050565b6000815190506200016b816200025f565b92915050565b60008060008060008060c087890312156200018b57600080fd5b60006200019b89828a016200015a565b9650506020620001ae89828a0162000143565b9550506040620001c189828a016200015a565b9450506060620001d489828a016200015a565b9350506080620001e789828a016200015a565b92505060a0620001fa89828a016200015a565b9150509295509295509295565b600062000214826200021b565b9050919050565b600073ffffffffffffffffffffffffffffffffffffffff82169050919050565b6000819050919050565b620002508162000207565b81146200025c57600080fd5b50565b6200026a816200023b565b81146200027657600080fd5b50565b60805160601c60a05160c05160e0516101005160601c610120516101405161016051612554620003b060003960008181610b0c0152610dad0152600081816109b00152818161192b015281816119a001526119ea0152600081816106870152818161078301528181610d33015281816112fd0152818161134a0152818161189b01528181611a2b0152611a8d015260008181610a7a01528181610b3001528181610bc801528181610f4001528181611064015281816112c3015281816116980152611797015260008181610e0b01528181611904015261197d015260008181610b7201528181610fd1015281816110860152818161162101526117200152600081816106c1015281816107aa015281816107d2015281816108160152610ae8015260008181610d57015261157d01526125546000f3fe60806040526004361061014f5760003560e01c8063a59a9973116100b6578063d8270dce1161006f578063d8270dce14610588578063ea46193e146105b3578063ecda7ced146105de578063f3ae5db414610609578063f5cf57c814610634578063fc0e3d901461065f5761027d565b8063a59a997314610486578063b80a0a77146104b1578063ba5d3078146104dc578063bfa30a5014610507578063c19d93fb14610532578063cb873eeb1461055d5761027d565b806381e170de1161010857806381e170de14610384578063899e5d85146103af5780638ecf5240146103da57806390dc41b71461040557806398cf4288146104305780639d585f7f1461045b5761027d565b80633577d94e1461028257806341ebcc48146102ad57806344ed456f146102d857806375a20676146103035780637c3a00fd1461032e5780637df1f1b9146103595761027d565b3661027d576000600681111561018e577f4e487b7100000000000000000000000000000000000000000000000000000000600052602160045260246000fd5b600760009054906101000a900460ff1660068111156101d6577f4e487b7100000000000000000000000000000000000000000000000000000000600052602160045260246000fd5b14156101e9576101e461067d565b61027b565b60036006811115610223577f4e487b7100000000000000000000000000000000000000000000000000000000600052602160045260246000fd5b600760009054906101000a900460ff16600681111561026b577f4e487b7100000000000000000000000000000000000000000000000000000000600052602160045260246000fd5b141561027a57610279610865565b5b5b005b600080fd5b34801561028e57600080fd5b506102976109ae565b6040516102a49190611f70565b60405180910390f35b3480156102b957600080fd5b506102c26109d2565b6040516102cf9190611f70565b60405180910390f35b3480156102e457600080fd5b506102ed610a76565b6040516102fa9190611de9565b60405180910390f35b34801561030f57600080fd5b50610318610ae6565b6040516103259190611f70565b60405180910390f35b34801561033a57600080fd5b50610343610b0a565b6040516103509190611f70565b60405180910390f35b34801561036557600080fd5b5061036e610b2e565b60405161037b9190611d45565b60405180910390f35b34801561039057600080fd5b50610399610b52565b6040516103a69190611f70565b60405180910390f35b3480156103bb57600080fd5b506103c4610b58565b6040516103d19190611e04565b60405180910390f35b3480156103e657600080fd5b506103ef610b70565b6040516103fc9190611f70565b60405180910390f35b34801561041157600080fd5b5061041a610b94565b6040516104279190611de9565b60405180910390f35b34801561043c57600080fd5b50610445610cfb565b6040516104529190611f70565b60405180910390f35b34801561046757600080fd5b50610470610d31565b60405161047d9190611f70565b60405180910390f35b34801561049257600080fd5b5061049b610d55565b6040516104a89190611e1f565b60405180910390f35b3480156104bd57600080fd5b506104c6610d79565b6040516104d39190611f70565b60405180910390f35b3480156104e857600080fd5b506104f1610d7f565b6040516104fe9190611e55565b60405180910390f35b34801561051357600080fd5b5061051c610d85565b6040516105299190611f70565b60405180910390f35b34801561053e57600080fd5b50610547610df0565b6040516105549190611e3a565b60405180910390f35b34801561056957600080fd5b50610572610e03565b60405161057f9190611f70565b60405180910390f35b34801561059457600080fd5b5061059d610e09565b6040516105aa9190611f70565b60405180910390f35b3480156105bf57600080fd5b506105c8610e2d565b6040516105d59190611f70565b60405180910390f35b3480156105ea57600080fd5b506105f3610e35565b6040516106009190611f70565b60405180910390f35b34801561061557600080fd5b5061061e610e3b565b60405161062b9190611f70565b60405180910390f35b34801561064057600080fd5b50610649610e41565b6040516106569190611f70565b60405180910390f35b610667610e47565b6040516106749190611de9565b60405180910390f35b60006127106004547f00000000000000000000000000000000000000000000000000000000000000006106b09190612023565b6106ba9190611ff2565b90506001817f00000000000000000000000000000000000000000000000000000000000000006106ea9190611f9c565b6106f49190612023565b341015610736576040517f08c379a000000000000000000000000000000000000000000000000000000000815260040161072d90611f10565b60405180910390fd5b80600560008282546107489190611f9c565b925050819055506000813461075d9190612111565b905061076761111f565b61076f610e47565b5061077861111f565b6107806111fc565b507f00000000000000000000000000000000000000000000000000000000000000006001819055507f0000000000000000000000000000000000000000000000000000000000000000811115610859577f0000000000000000000000000000000000000000000000000000000000000000816107fc9190612111565b6001600082825461080d919061207d565b925050819055507f0000000000000000000000000000000000000000000000000000000000000000816108409190612111565b600260008282546108519190611f9c565b925050819055505b61086161111f565b5050565b600061086f610d85565b9050803410156108b4576040517f08c379a00000000000000000000000000000000000000000000000000000000081526004016108ab90611f50565b60405180910390fd5b80600360008282546108c69190611f9c565b92505081905550600081346108db9190612111565b905080600160008282546108ef919061207d565b9250508190555080600260008282546109089190611f9c565b925050819055506000600154136109a3576005600760006101000a81548160ff02191690836006811115610965577f4e487b7100000000000000000000000000000000000000000000000000000000600052602160045260246000fd5b02179055506000600154121561099a576001546109819061224c565b600260008282546109929190612111565b925050819055505b6109a2611377565b5b426000819055505050565b7f000000000000000000000000000000000000000000000000000000000000000081565b60007380cdf946c1c86b7eee50743e2bc9a6d7d9ed597a73ffffffffffffffffffffffffffffffffffffffff166370a08231306040518263ffffffff1660e01b8152600401610a219190611d2a565b60206040518083038186803b158015610a3957600080fd5b505afa158015610a4d573d6000803e3d6000fd5b505050506040513d601f19601f82011682018060405250810190610a719190611b62565b905090565b60007f000000000000000000000000000000000000000000000000000000000000000073ffffffffffffffffffffffffffffffffffffffff166108fc479081150290604051600060405180830381858888f19350505050158015610ade573d6000803e3d6000fd5b506001905090565b7f000000000000000000000000000000000000000000000000000000000000000081565b7f000000000000000000000000000000000000000000000000000000000000000081565b7f000000000000000000000000000000000000000000000000000000000000000081565b60005481565b7380cdf946c1c86b7eee50743e2bc9a6d7d9ed597a81565b7f000000000000000000000000000000000000000000000000000000000000000081565b60007380cdf946c1c86b7eee50743e2bc9a6d7d9ed597a73ffffffffffffffffffffffffffffffffffffffff1663a9059cbb7f00000000000000000000000000000000000000000000000000000000000000007380cdf946c1c86b7eee50743e2bc9a6d7d9ed597a73ffffffffffffffffffffffffffffffffffffffff166370a08231306040518263ffffffff1660e01b8152600401610c349190611d2a565b60206040518083038186803b158015610c4c57600080fd5b505afa158015610c60573d6000803e3d6000fd5b505050506040513d601f19601f82011682018060405250810190610c849190611b62565b6040518363ffffffff1660e01b8152600401610ca1929190611dc0565b602060405180830381600087803b158015610cbb57600080fd5b505af1158015610ccf573d6000803e3d6000fd5b505050506040513d601f19601f82011682018060405250810190610cf39190611b39565b506001905090565b600080610d06610d85565b9050600060015412610d285780600154610d209190611f9c565b915050610d2e565b60009150505b90565b7f000000000000000000000000000000000000000000000000000000000000000081565b7f000000000000000000000000000000000000000000000000000000000000000081565b60055481565b60015481565b600080603c60005442610d989190612111565b610da29190611ff2565b9050612710600154827f0000000000000000000000000000000000000000000000000000000000000000610dd69190612023565b610de09190612023565b610dea9190611ff2565b91505090565b600760009054906101000a900460ff1681565b60035481565b7f000000000000000000000000000000000000000000000000000000000000000081565b600047905090565b60045481565b60025481565b60065481565b60006001806006811115610e84577f4e487b7100000000000000000000000000000000000000000000000000000000600052602160045260246000fd5b600760009054906101000a900460ff166006811115610ecc577f4e487b7100000000000000000000000000000000000000000000000000000000600052602160045260246000fd5b14610f0c576040517f08c379a0000000000000000000000000000000000000000000000000000000008152600401610f0390611e90565b60405180910390fd5b60007380cdf946c1c86b7eee50743e2bc9a6d7d9ed597a73ffffffffffffffffffffffffffffffffffffffff1663dd62ed3e7f0000000000000000000000000000000000000000000000000000000000000000306040518363ffffffff1660e01b8152600401610f7d929190611d60565b60206040518083038186803b158015610f9557600080fd5b505afa158015610fa9573d6000803e3d6000fd5b505050506040513d601f19601f82011682018060405250810190610fcd9190611b62565b90507f0000000000000000000000000000000000000000000000000000000000000000811015611032576040517f08c379a000000000000000000000000000000000000000000000000000000000815260040161102990611ed0565b60405180910390fd5b7380cdf946c1c86b7eee50743e2bc9a6d7d9ed597a73ffffffffffffffffffffffffffffffffffffffff166323b872dd7f0000000000000000000000000000000000000000000000000000000000000000307f00000000000000000000000000000000000000000000000000000000000000006040518463ffffffff1660e01b81526004016110c393929190611d89565b602060405180830381600087803b1580156110dd57600080fd5b505af11580156110f1573d6000803e3d6000fd5b505050506040513d601f19601f820116820180604052508101906111159190611b39565b5060019250505090565b6001600760009054906101000a900460ff166006811115611169577f4e487b7100000000000000000000000000000000000000000000000000000000600052602160045260246000fd5b6111739190611f9c565b60068111156111ab577f4e487b7100000000000000000000000000000000000000000000000000000000600052602160045260246000fd5b600760006101000a81548160ff021916908360068111156111f5577f4e487b7100000000000000000000000000000000000000000000000000000000600052602160045260246000fd5b0217905550565b60006002806006811115611239577f4e487b7100000000000000000000000000000000000000000000000000000000600052602160045260246000fd5b600760009054906101000a900460ff166006811115611281577f4e487b7100000000000000000000000000000000000000000000000000000000600052602160045260246000fd5b146112c1576040517f08c379a00000000000000000000000000000000000000000000000000000000081526004016112b890611e90565b60405180910390fd5b7f000000000000000000000000000000000000000000000000000000000000000073ffffffffffffffffffffffffffffffffffffffff166108fc7f00000000000000000000000000000000000000000000000000000000000000009081150290604051600060405180830381858888f19350505050158015611347573d6000803e3d6000fd5b507f0000000000000000000000000000000000000000000000000000000000000000600181905550600191505090565b60058060068111156113b2577f4e487b7100000000000000000000000000000000000000000000000000000000600052602160045260246000fd5b600760009054906101000a900460ff1660068111156113fa577f4e487b7100000000000000000000000000000000000000000000000000000000600052602160045260246000fd5b1461143a576040517f08c379a000000000000000000000000000000000000000000000000000000000815260040161143190611e90565b60405180910390fd5b611442611559565b611481576040517f08c379a000000000000000000000000000000000000000000000000000000000815260040161147890611e70565b60405180910390fd5b611489610b94565b6114c8576040517f08c379a00000000000000000000000000000000000000000000000000000000081526004016114bf90611eb0565b60405180910390fd5b6114d0610a76565b61150f576040517f08c379a000000000000000000000000000000000000000000000000000000000815260040161150690611f30565b60405180910390fd5b611517611604565b611556576040517f08c379a000000000000000000000000000000000000000000000000000000000815260040161154d90611ef0565b60405180910390fd5b50565b60008060025460035460055461156f9190611f9c565b6115799190611f9c565b90507f000000000000000000000000000000000000000000000000000000000000000073ffffffffffffffffffffffffffffffffffffffff1663e3d6d085826040518263ffffffff1660e01b81526004016000604051808303818588803b1580156115e357600080fd5b505af11580156115f7573d6000803e3d6000fd5b5050505050600191505090565b600061160e611810565b612710600654111561170d5760006127107f00000000000000000000000000000000000000000000000000000000000000006127106006546116509190612111565b61165a9190612023565b6116649190611ff2565b90507380cdf946c1c86b7eee50743e2bc9a6d7d9ed597a73ffffffffffffffffffffffffffffffffffffffff166340c10f197f0000000000000000000000000000000000000000000000000000000000000000836040518363ffffffff1660e01b81526004016116d5929190611dc0565b600060405180830381600087803b1580156116ef57600080fd5b505af1158015611703573d6000803e3d6000fd5b5050505050611809565b61271060065410156118085760006127107f000000000000000000000000000000000000000000000000000000000000000060065461271061174f9190612111565b6117599190612023565b6117639190611ff2565b90507380cdf946c1c86b7eee50743e2bc9a6d7d9ed597a73ffffffffffffffffffffffffffffffffffffffff16639dc29fac7f0000000000000000000000000000000000000000000000000000000000000000836040518363ffffffff1660e01b81526004016117d4929190611dc0565b600060405180830381600087803b1580156117ee57600080fd5b505af1158015611802573d6000803e3d6000fd5b50505050505b5b6001905090565b6004600681111561184a577f4e487b7100000000000000000000000000000000000000000000000000000000600052602160045260246000fd5b600760009054906101000a900460ff166006811115611892577f4e487b7100000000000000000000000000000000000000000000000000000000600052602160045260246000fd5b146119025760037f00000000000000000000000000000000000000000000000000000000000000006118c49190612023565b61271060026003546118d69190612023565b6118e09190612023565b6118ea9190611ff2565b6127106118f79190611f9c565b600681905550611b0d565b7f0000000000000000000000000000000000000000000000000000000000000000600a600c603c7f00000000000000000000000000000000000000000000000000000000000000006119549190612023565b61195e9190612023565b6119689190611ff2565b6119729190611f9c565b421015611b035760007f0000000000000000000000000000000000000000000000000000000000000000603c7f00000000000000000000000000000000000000000000000000000000000000006119c99190612023565b426119d49190612111565b6119de9190612111565b90506000600a6002603c7f0000000000000000000000000000000000000000000000000000000000000000611a139190612023565b611a1d9190612023565b611a279190611ff2565b60037f0000000000000000000000000000000000000000000000000000000000000000611a549190612023565b612710600354611a649190612023565b611a6e9190611ff2565b612710611a7b9190611f9c565b611a859190611ff2565b9050600060037f0000000000000000000000000000000000000000000000000000000000000000611ab69190612023565b6127106002600354611ac89190612023565b611ad29190612023565b611adc9190611ff2565b90508282611aea9190612023565b81611af59190612111565b600681905550505050611b0c565b60006006819055505b5b565b600081519050611b1e816124f0565b92915050565b600081519050611b3381612507565b92915050565b600060208284031215611b4b57600080fd5b6000611b5984828501611b0f565b91505092915050565b600060208284031215611b7457600080fd5b6000611b8284828501611b24565b91505092915050565b611b94816121bc565b82525050565b611ba381612157565b82525050565b611bb281612145565b82525050565b611bc181612169565b82525050565b611bd0816121ce565b82525050565b611bdf816121f2565b82525050565b611bee81612216565b82525050565b611bfd81612188565b82525050565b6000611c10601283611f8b565b9150611c1b82612322565b602082019050919050565b6000611c33602783611f8b565b9150611c3e8261234b565b604082019050919050565b6000611c56601e83611f8b565b9150611c618261239a565b602082019050919050565b6000611c79601983611f8b565b9150611c84826123c3565b602082019050919050565b6000611c9c601d83611f8b565b9150611ca7826123ec565b602082019050919050565b6000611cbf602c83611f8b565b9150611cca82612415565b604082019050919050565b6000611ce2601783611f8b565b9150611ced82612464565b602082019050919050565b6000611d05603c83611f8b565b9150611d108261248d565b604082019050919050565b611d24816121b2565b82525050565b6000602082019050611d3f6000830184611ba9565b92915050565b6000602082019050611d5a6000830184611b9a565b92915050565b6000604082019050611d756000830185611b8b565b611d826020830184611ba9565b9392505050565b6000606082019050611d9e6000830186611b8b565b611dab6020830185611ba9565b611db86040830184611d1b565b949350505050565b6000604082019050611dd56000830185611b8b565b611de26020830184611d1b565b9392505050565b6000602082019050611dfe6000830184611bb8565b92915050565b6000602082019050611e196000830184611bc7565b92915050565b6000602082019050611e346000830184611bd6565b92915050565b6000602082019050611e4f6000830184611be5565b92915050565b6000602082019050611e6a6000830184611bf4565b92915050565b60006020820190508181036000830152611e8981611c03565b9050919050565b60006020820190508181036000830152611ea981611c26565b9050919050565b60006020820190508181036000830152611ec981611c49565b9050919050565b60006020820190508181036000830152611ee981611c6c565b9050919050565b60006020820190508181036000830152611f0981611c8f565b9050919050565b60006020820190508181036000830152611f2981611cb2565b9050919050565b60006020820190508181036000830152611f4981611cd5565b9050919050565b60006020820190508181036000830152611f6981611cf8565b9050919050565b6000602082019050611f856000830184611d1b565b92915050565b600082825260208201905092915050565b6000611fa7826121b2565b9150611fb2836121b2565b9250827fffffffffffffffffffffffffffffffffffffffffffffffffffffffffffffffff03821115611fe757611fe6612295565b5b828201905092915050565b6000611ffd826121b2565b9150612008836121b2565b925082612018576120176122c4565b5b828204905092915050565b600061202e826121b2565b9150612039836121b2565b9250817fffffffffffffffffffffffffffffffffffffffffffffffffffffffffffffffff048311821515161561207257612071612295565b5b828202905092915050565b600061208882612188565b915061209383612188565b9250827f8000000000000000000000000000000000000000000000000000000000000000018212600084121516156120ce576120cd612295565b5b827f7fffffffffffffffffffffffffffffffffffffffffffffffffffffffffffffff01821360008412161561210657612105612295565b5b828203905092915050565b600061211c826121b2565b9150612127836121b2565b92508282101561213a57612139612295565b5b828203905092915050565b600061215082612192565b9050919050565b600061216282612192565b9050919050565b60008115159050919050565b6000819050612183826124dc565b919050565b6000819050919050565b600073ffffffffffffffffffffffffffffffffffffffff82169050919050565b6000819050919050565b60006121c782612228565b9050919050565b60006121d9826121e0565b9050919050565b60006121eb82612192565b9050919050565b60006121fd82612204565b9050919050565b600061220f82612192565b9050919050565b600061222182612175565b9050919050565b60006122338261223a565b9050919050565b600061224582612192565b9050919050565b600061225782612188565b91507f800000000000000000000000000000000000000000000000000000000000000082141561228a57612289612295565b5b816000039050919050565b7f4e487b7100000000000000000000000000000000000000000000000000000000600052601160045260246000fd5b7f4e487b7100000000000000000000000000000000000000000000000000000000600052601260045260246000fd5b7f4e487b7100000000000000000000000000000000000000000000000000000000600052602160045260246000fd5b7f436f756c64206e6f742070617920706f6f6c0000000000000000000000000000600082015250565b7f46756e6374696f6e2063616e6e6f742062652063616c6c65642061742074686960008201527f732074696d652e00000000000000000000000000000000000000000000000000602082015250565b7f436f756c64206e6f742072657475726e2063726564697420746f6b656e730000600082015250565b7f436865636b2074686520746f6b656e20616c6c6f77616e636500000000000000600082015250565b7f436f756c64206e6f74206368616e6765206372656469742073636f7265000000600082015250565b7f596f757220636f6c6c61746572616c206973206e6f7420656e6f75676820666f60008201527f722074686973206c6f616e2e0000000000000000000000000000000000000000602082015250565b7f436f756c642072657475726e20636f6c6c61746572616c000000000000000000600082015250565b7f596f7572207061796d656e742068617320746f20636f766572206174206c656160008201527f73742074686520696e74657265737473206f77656420746f6461792e00000000602082015250565b600781106124ed576124ec6122f3565b5b50565b6124f981612169565b811461250457600080fd5b50565b612510816121b2565b811461251b57600080fd5b5056fea264697066735822122085941b8a2462183619f9506ee521642c20c8db616f45ba65409d78e92d9145a364736f6c63430008010033a264697066735822122090349d642efe6e6cdc5dad06f13a06f981d87ed99f3cc7b86ac9a29d808a7ed564736f6c63430008010033",
  "immutableReferences": {
    "421": [
      {
        "length": 32,
        "start": 279
      },
      {
        "length": 32,
        "start": 1636
      }
    ]
  },
  "source": "// SPDX-License-Identifier: MIT\npragma solidity ^0.8.0;\n\nimport \"./Loan.sol\";\n\n//safemath?\n\ncontract Owned {\n    \n    address public owner;\n\n    function isOwned() internal {\n        owner = msg.sender;\n    }\n\n    modifier onlyOwner() {\n        require(msg.sender == owner);\n        _;\n    }\n}\n\ncontract LendingPool is Owned {\n    \n    struct Balance {\n        uint balance;\n        uint lastPayment;\n        uint totalPayable;\n    }\n    mapping( address => Balance[] ) public balances;\n    address[] private lenders;\n    CreditToken constant public creditToken = CreditToken(0x80cDF946c1c86B7eee50743E2bc9a6d7d9ed597A);\n    \n    uint public immutable maxSize;\n    mapping(address => address[]) public loansOfBorrower;\n    mapping(address => uint) public paidByLoan;\n    uint public periodInterest;\n    uint public periodFees;\n    \n    event Log(string msg);\n    event totalInterestWorthyBalanceEvent(address lender,uint balance, bool multipleBalances);\n    event genericUint(string name, uint value);\n    \n    constructor(uint _maxSize){\n        \n        maxSize = _maxSize;\n        \n        isOwned();\n    }\n    \n    \n    receive() external payable{\n        \n        require(address(this).balance <= maxSize, \"This pool is full\");\n        if (balances[msg.sender].length == 0 ){\n            emit Log(\"New Lender\");\n            lenders.push(msg.sender);\n        }\n        Balance memory newBalance;\n        newBalance.balance = msg.value;\n        newBalance.lastPayment = block.timestamp;\n        balances[msg.sender].push(newBalance);\n        emit Log(\"added lender balance\");\n        \n    }\n    \n    function receiveFromLoan(uint fees, uint interest) external payable{\n        paidByLoan[msg.sender]+=msg.value;\n        periodFees += fees;\n        periodInterest += interest;\n        \n    }\n    \n    function liquidateLoan(address loanAddr) public {\n        \n    }\n    \n    function payLenders() public {\n        uint totalInterestWorthyCapital = calculateInterestWorthyCapital();\n        uint yieldRate = ((periodFees + periodInterest) * 1000000)/totalInterestWorthyCapital;\n        emit genericUint(\"yieldRate\", yieldRate);\n        \n        for (uint k; k<lenders.length; k++){\n            uint yield = (yieldRate * balances[lenders[k]][0].totalPayable)/1000000;\n            emit genericUint(\"yield: \", yield);\n            payable(lenders[k]).transfer(yield);\n            balances[lenders[k]][0].totalPayable = 0;\n        }\n        periodFees=0;\n        periodInterest=0;\n    }\n    \n    function calculateInterestWorthyCapital()public returns (uint){\n        uint totalInterestWorthyCapital;\n        \n        for (uint i; i<lenders.length; i++){\n            uint totalInterestWorthyBalance;\n            if (balances[lenders[i]].length>1){\n                uint realBalance;\n                for (uint j; j<balances[lenders[i]].length;j++){\n                    uint balance = balances[lenders[i]][j].balance;\n                    emit genericUint(\"balance\",balance);\n                    uint nDays = (block.timestamp-balances[lenders[i]][j].lastPayment)/60;\n                    emit genericUint(\"nDays\",nDays);\n                    totalInterestWorthyBalance+=balance*nDays;\n                    realBalance+=balance;\n                }\n                //after we have paid the lenders for balances introduced on different times, we\n                //proceed to unify the balances under a single date\n                for (uint j=1; j<balances[lenders[i]].length;j++){\n                    balances[lenders[i]].pop();\n                }\n                balances[lenders[i]][0].balance = realBalance;\n                balances[lenders[i]][0].lastPayment = block.timestamp;\n                balances[lenders[i]][0].totalPayable = totalInterestWorthyBalance;\n                emit totalInterestWorthyBalanceEvent(lenders[i], totalInterestWorthyBalance, true);\n            \n            }else{\n                uint balance = balances[lenders[i]][0].balance;\n                emit genericUint(\"balance\",balance);\n                uint nDays = (block.timestamp-balances[lenders[i]][0].lastPayment)/60;\n                emit genericUint(\"nDays\",nDays);\n                totalInterestWorthyBalance = balance*nDays;\n                balances[lenders[i]][0].totalPayable = totalInterestWorthyBalance;\n                emit totalInterestWorthyBalanceEvent(lenders[i], totalInterestWorthyBalance, false);\n            }\n            totalInterestWorthyCapital+=totalInterestWorthyBalance;\n        }\n        emit genericUint(\"totalCapital\", totalInterestWorthyCapital);\n        return totalInterestWorthyCapital;\n    }\n    \n    function getBalance() public view returns (uint) {\n        return address(this).balance;\n    }\n    \n    function transferAll(address to) public onlyOwner{\n        payable(to).transfer(address(this).balance);\n    }\n    \n    function viewLenders() public view returns (address [] memory) {\n        return lenders;\n    }\n    \n    function createLoan( uint _collateralRequired,address payable _borrower,\n                        uint _creditTokensRequired, uint _loanAmount,uint _loanTerm, // in days\n                        uint _interestRate  ) public {\n                            \n                            \n        //uint priorBalance = address(this).balance;            \n        //For documentation: https://github.com/ethereum/solidity/blob/develop/Changelog.md#062-2020-01-27\n         Loan newLoan = new Loan{value: _loanAmount}(\n                                 _collateralRequired,\n                                 _borrower,\n                                 _creditTokensRequired,\n                                 _loanAmount,\n                                 _loanTerm, // in days\n                                 _interestRate \n                             );\n                             \n         creditToken.whitelistAddress ( address(newLoan) );\n         creditToken.approve (_borrower, address(newLoan), _creditTokensRequired);\n         \n         loansOfBorrower[_borrower].push(address(newLoan));\n         \n     }\n    \n}",
  "sourcePath": "/Users/robertocantu/blockchain_programming/sake/contracts/LendingPool.sol",
  "compiler": {
    "name": "solc",
    "version": "0.8.1+commit.df193b15.Emscripten.clang"
  },
  "schemaVersion": "3.3.3",
  "updatedAt": "2021-02-03T00:14:50.291Z",
  "devdoc": {
    "kind": "dev",
    "methods": {},
    "version": 1
  },
  "userdoc": {
    "kind": "user",
    "methods": {},
    "version": 1
  }
}