{
  "contractName": "LoanAgent",
  "abi": [
    {
      "inputs": [
        {
          "internalType": "address",
          "name": "_lendingPoolAddr",
          "type": "address"
        }
      ],
      "stateMutability": "nonpayable",
      "type": "constructor"
    },
    {
      "inputs": [],
      "name": "creditToken",
      "outputs": [
        {
          "internalType": "contract CreditToken",
          "name": "",
          "type": "address"
        }
      ],
      "stateMutability": "view",
      "type": "function"
    },
    {
      "inputs": [],
      "name": "lendingPoolAddr",
      "outputs": [
        {
          "internalType": "address",
          "name": "",
          "type": "address"
        }
      ],
      "stateMutability": "view",
      "type": "function"
    },
    {
      "inputs": [
        {
          "internalType": "uint256",
          "name": "_loanTerm",
          "type": "uint256"
        },
        {
          "internalType": "uint256",
          "name": "_loanAmount",
          "type": "uint256"
        },
        {
          "internalType": "uint256",
          "name": "creditTokensToStake",
          "type": "uint256"
        }
      ],
      "name": "askForLoan",
      "outputs": [
        {
          "components": [
            {
              "internalType": "uint256",
              "name": "loanAmount",
              "type": "uint256"
            },
            {
              "internalType": "uint256",
              "name": "collateralETH",
              "type": "uint256"
            },
            {
              "internalType": "uint256",
              "name": "loanTerm",
              "type": "uint256"
            },
            {
              "internalType": "uint256",
              "name": "APR",
              "type": "uint256"
            },
            {
              "internalType": "uint256",
              "name": "totalInterests",
              "type": "uint256"
            }
          ],
          "internalType": "struct LoanAgent.Offer",
          "name": "",
          "type": "tuple"
        }
      ],
      "stateMutability": "view",
      "type": "function"
    }
  ],
  "bytecode": "0x60a060405234801561001057600080fd5b5060405161078b38038061078b83398181016040528101906100329190610084565b8073ffffffffffffffffffffffffffffffffffffffff1660808173ffffffffffffffffffffffffffffffffffffffff1660601b81525050506100f6565b60008151905061007e816100df565b92915050565b60006020828403121561009657600080fd5b60006100a48482850161006f565b91505092915050565b60006100b8826100bf565b9050919050565b600073ffffffffffffffffffffffffffffffffffffffff82169050919050565b6100e8816100ad565b81146100f357600080fd5b50565b60805160601c610678610113600039600060b401526106786000f3fe608060405234801561001057600080fd5b50600436106100415760003560e01c80633d4535e314610046578063899e5d8514610064578063b884733914610082575b600080fd5b61004e6100b2565b60405161005b9190610411565b60405180910390f35b61006c6100d6565b604051610079919061042c565b60405180910390f35b61009c6004803603810190610097919061030a565b6100ee565b6040516100a99190610467565b60405180910390f35b7f000000000000000000000000000000000000000000000000000000000000000081565b73ffee743bd4794361cb2ec0c86d22fb5ac4a1568b81565b6100f6610288565b600073ffee743bd4794361cb2ec0c86d22fb5ac4a1568b73ffffffffffffffffffffffffffffffffffffffff166370a08231336040518263ffffffff1660e01b81526004016101459190610411565b60206040518083038186803b15801561015d57600080fd5b505afa158015610171573d6000803e3d6000fd5b505050506040513d601f19601f8201168201806040525081019061019591906102e1565b9050828110156101da576040517f08c379a00000000000000000000000000000000000000000000000000000000081526004016101d190610447565b60405180910390fd5b60006101e68486610243565b905060006101f2610273565b9050600061020188888461027c565b905061020b610288565b6040518060a001604052808981526020018581526020018a815260200184815260200183815250905080955050505050509392505050565b60006298968083604b61025691906104c4565b6102609190610493565b8261026b9190610493565b905092915050565b60006019905090565b60008190509392505050565b6040518060a0016040528060008152602001600081526020016000815260200160008152602001600081525090565b6000813590506102c68161062b565b92915050565b6000815190506102db8161062b565b92915050565b6000602082840312156102f357600080fd5b6000610301848285016102cc565b91505092915050565b60008060006060848603121561031f57600080fd5b600061032d868287016102b7565b935050602061033e868287016102b7565b925050604061034f868287016102b7565b9150509250925092565b6103628161051e565b82525050565b6103718161055a565b82525050565b6000610384603883610482565b915061038f826105dc565b604082019050919050565b60a0820160008201516103b06000850182610402565b5060208201516103c36020850182610402565b5060408201516103d66040850182610402565b5060608201516103e96060850182610402565b5060808201516103fc6080850182610402565b50505050565b61040b81610550565b82525050565b60006020820190506104266000830184610359565b92915050565b60006020820190506104416000830184610368565b92915050565b6000602082019050818103600083015261046081610377565b9050919050565b600060a08201905061047c600083018461039a565b92915050565b600082825260208201905092915050565b600061049e82610550565b91506104a983610550565b9250826104b9576104b86105ad565b5b828204905092915050565b60006104cf82610550565b91506104da83610550565b9250817fffffffffffffffffffffffffffffffffffffffffffffffffffffffffffffffff04831182151516156105135761051261057e565b5b828202905092915050565b600061052982610530565b9050919050565b600073ffffffffffffffffffffffffffffffffffffffff82169050919050565b6000819050919050565b60006105658261056c565b9050919050565b600061057782610530565b9050919050565b7f4e487b7100000000000000000000000000000000000000000000000000000000600052601160045260246000fd5b7f4e487b7100000000000000000000000000000000000000000000000000000000600052601260045260246000fd5b7f596f7520646f6e27742068617665207468652063726564697420746f6b656e7360008201527f20796f752061726520747279696e6720746f207374616b650000000000000000602082015250565b61063481610550565b811461063f57600080fd5b5056fea2646970667358221220dca1e645646550fafb86470150c28be19840347672cbf812cf49997bf36d3e3964736f6c63430008010033",
  "immutableReferences": {
    "628": [
      {
        "length": 32,
        "start": 180
      }
    ]
  },
  "source": "pragma solidity ^0.8.0;\n\ncontract CreditToken {\n    \n    //transfer function\n    //function transferFrom(address, address, uint ) public returns (bool success) {}\n    function balanceOf(address) public view  returns (uint balance) {}\n    // function allowance(address, address ) public view  returns (uint remaining) {}\n    // function transfer(address to, uint tokens) external returns (bool success){}\n}\n\ncontract LoanAgent{\n    \n    address immutable public lendingPoolAddr;\n    CreditToken constant public creditToken = CreditToken(0xfFee743BD4794361Cb2EC0c86d22fb5Ac4a1568b);\n    \n    struct Offer { \n              uint loanAmount;\n              uint collateralETH;\n              uint loanTerm;\n              uint APR;\n              uint totalInterests;\n              }\n    \n    constructor(address _lendingPoolAddr) {\n        lendingPoolAddr = _lendingPoolAddr;\n    }\n    \n    function askForLoan(\n            uint _loanTerm, //in hours\n            uint _loanAmount, //in weis\n            uint creditTokensToStake // in thousandths of tokens (0.001)\n            ) public view returns (Offer memory) {\n        //we retrieve the credit score of the potential borrower\n        uint creditScore = creditToken.balanceOf(msg.sender);\n        require(creditScore>=creditTokensToStake, \"You don't have the credit tokens you are trying to stake\");\n        //we calculate the collateral necessary for this loan depending on the credit score.\n        uint collateral = calculateCollateral(creditTokensToStake, _loanAmount);\n        //we calculate an amortization plan depending on the loan term and the loan amount\n        uint _APR = getAPR();\n        uint totalInterests = calculateInterests( _loanTerm, _loanAmount, _APR);\n        //we elaborate a struct with the offer\n        Offer memory offer;\n        offer = Offer( _loanAmount, collateral, _loanTerm, _APR, totalInterests );\n        return offer;\n    }\n    \n    function calculateCollateral(uint creditScore, uint loanAmount) private pure returns (uint collateral){\n      return loanAmount/(75*creditScore/10000000);\n      \n    }\n    \n    function calculateInterests( uint loanTerm, uint loanAmount, uint _APR ) private pure returns (uint totalInterests){\n        return _APR;\n    }\n    \n    function getAPR() private pure returns (uint APR){\n        return 25;\n    }\n    \n    \n}",
  "sourcePath": "C:/projects/sake/contracts/LoanAgent.sol",
  "compiler": {
    "name": "solc",
    "version": "0.8.1+commit.df193b15.Emscripten.clang"
  },
  "schemaVersion": "3.3.3",
  "updatedAt": "2021-01-28T02:47:39.527Z",
  "devdoc": {
    "kind": "dev",
    "methods": {},
    "version": 1
  },
  "userdoc": {
    "kind": "user",
    "methods": {},
    "version": 1
  }
}