{
  "contractName": "Loan",
  "abi": [
    {
      "inputs": [
        {
          "internalType": "uint256",
          "name": "_collateralRequired",
          "type": "uint256"
        },
        {
          "internalType": "address payable",
          "name": "_borrower",
          "type": "address"
        },
        {
          "internalType": "uint256",
          "name": "_creditTokensRequired",
          "type": "uint256"
        },
        {
          "internalType": "uint256",
          "name": "_loanAmount",
          "type": "uint256"
        },
        {
          "internalType": "uint256",
          "name": "_loanTerm",
          "type": "uint256"
        },
        {
          "internalType": "uint256",
          "name": "_interestRate",
          "type": "uint256"
        }
      ],
      "stateMutability": "payable",
      "type": "constructor"
    },
    {
      "inputs": [],
      "name": "borrower",
      "outputs": [
        {
          "internalType": "address payable",
          "name": "",
          "type": "address"
        }
      ],
      "stateMutability": "view",
      "type": "function"
    },
    {
      "inputs": [],
      "name": "collateralRequired",
      "outputs": [
        {
          "internalType": "uint256",
          "name": "",
          "type": "uint256"
        }
      ],
      "stateMutability": "view",
      "type": "function"
    },
    {
      "inputs": [],
      "name": "creationTime",
      "outputs": [
        {
          "internalType": "uint256",
          "name": "",
          "type": "uint256"
        }
      ],
      "stateMutability": "view",
      "type": "function"
    },
    {
      "inputs": [],
      "name": "creditChange",
      "outputs": [
        {
          "internalType": "uint256",
          "name": "",
          "type": "uint256"
        }
      ],
      "stateMutability": "view",
      "type": "function"
    },
    {
      "inputs": [],
      "name": "creditToken",
      "outputs": [
        {
          "internalType": "contract CreditToken",
          "name": "",
          "type": "address"
        }
      ],
      "stateMutability": "view",
      "type": "function"
    },
    {
      "inputs": [],
      "name": "creditTokensRequired",
      "outputs": [
        {
          "internalType": "uint256",
          "name": "",
          "type": "uint256"
        }
      ],
      "stateMutability": "view",
      "type": "function"
    },
    {
      "inputs": [],
      "name": "interestRate",
      "outputs": [
        {
          "internalType": "uint256",
          "name": "",
          "type": "uint256"
        }
      ],
      "stateMutability": "view",
      "type": "function"
    },
    {
      "inputs": [],
      "name": "interestsPaid",
      "outputs": [
        {
          "internalType": "uint256",
          "name": "",
          "type": "uint256"
        }
      ],
      "stateMutability": "view",
      "type": "function"
    },
    {
      "inputs": [],
      "name": "lastPayment",
      "outputs": [
        {
          "internalType": "uint256",
          "name": "",
          "type": "uint256"
        }
      ],
      "stateMutability": "view",
      "type": "function"
    },
    {
      "inputs": [],
      "name": "lendingPool",
      "outputs": [
        {
          "internalType": "contract _LendingPool",
          "name": "",
          "type": "address"
        }
      ],
      "stateMutability": "view",
      "type": "function"
    },
    {
      "inputs": [],
      "name": "loanAmount",
      "outputs": [
        {
          "internalType": "uint256",
          "name": "",
          "type": "uint256"
        }
      ],
      "stateMutability": "view",
      "type": "function"
    },
    {
      "inputs": [],
      "name": "loanTerm",
      "outputs": [
        {
          "internalType": "uint256",
          "name": "",
          "type": "uint256"
        }
      ],
      "stateMutability": "view",
      "type": "function"
    },
    {
      "inputs": [],
      "name": "paidBack",
      "outputs": [
        {
          "internalType": "uint256",
          "name": "",
          "type": "uint256"
        }
      ],
      "stateMutability": "view",
      "type": "function"
    },
    {
      "inputs": [],
      "name": "paidFees",
      "outputs": [
        {
          "internalType": "uint256",
          "name": "",
          "type": "uint256"
        }
      ],
      "stateMutability": "view",
      "type": "function"
    },
    {
      "inputs": [],
      "name": "principal",
      "outputs": [
        {
          "internalType": "int256",
          "name": "",
          "type": "int256"
        }
      ],
      "stateMutability": "view",
      "type": "function"
    },
    {
      "inputs": [],
      "name": "spamFee",
      "outputs": [
        {
          "internalType": "uint256",
          "name": "",
          "type": "uint256"
        }
      ],
      "stateMutability": "view",
      "type": "function"
    },
    {
      "inputs": [],
      "name": "state",
      "outputs": [
        {
          "internalType": "enum Loan.States",
          "name": "",
          "type": "uint8"
        }
      ],
      "stateMutability": "view",
      "type": "function"
    },
    {
      "stateMutability": "payable",
      "type": "receive"
    },
    {
      "inputs": [],
      "name": "getStake",
      "outputs": [
        {
          "internalType": "bool",
          "name": "success",
          "type": "bool"
        }
      ],
      "stateMutability": "payable",
      "type": "function"
    },
    {
      "inputs": [],
      "name": "getCreditTokenBalance",
      "outputs": [
        {
          "internalType": "uint256",
          "name": "balance",
          "type": "uint256"
        }
      ],
      "stateMutability": "view",
      "type": "function"
    },
    {
      "inputs": [],
      "name": "getEtherBalance",
      "outputs": [
        {
          "internalType": "uint256",
          "name": "",
          "type": "uint256"
        }
      ],
      "stateMutability": "view",
      "type": "function"
    },
    {
      "inputs": [],
      "name": "returnCollateral",
      "outputs": [
        {
          "internalType": "bool",
          "name": "success",
          "type": "bool"
        }
      ],
      "stateMutability": "nonpayable",
      "type": "function"
    },
    {
      "inputs": [],
      "name": "returnAllCreditTokens",
      "outputs": [
        {
          "internalType": "bool",
          "name": "success",
          "type": "bool"
        }
      ],
      "stateMutability": "nonpayable",
      "type": "function"
    },
    {
      "inputs": [],
      "name": "calculateInteresestsofPayment",
      "outputs": [
        {
          "internalType": "uint256",
          "name": "",
          "type": "uint256"
        }
      ],
      "stateMutability": "view",
      "type": "function"
    },
    {
      "inputs": [],
      "name": "howMuchToPayOff",
      "outputs": [
        {
          "internalType": "uint256",
          "name": "",
          "type": "uint256"
        }
      ],
      "stateMutability": "view",
      "type": "function"
    }
  ],
  "bytecode": "0x6101806040526096600455604051620029043803806200290483398181016040528101906200002f919062000171565b8234146200003c57600080fd5b4260e081815250503373ffffffffffffffffffffffffffffffffffffffff1660808173ffffffffffffffffffffffffffffffffffffffff1660601b81525050426000819055508560a081815250508161014081815250508473ffffffffffffffffffffffffffffffffffffffff166101008173ffffffffffffffffffffffffffffffffffffffff1660601b815250508261012081815250508360c081815250508061016081815250506000600760006101000a81548160ff0219169083600681111562000132577f4e487b7100000000000000000000000000000000000000000000000000000000600052602160045260246000fd5b021790555050505050505062000279565b600081519050620001548162000245565b92915050565b6000815190506200016b816200025f565b92915050565b60008060008060008060c087890312156200018b57600080fd5b60006200019b89828a016200015a565b9650506020620001ae89828a0162000143565b9550506040620001c189828a016200015a565b9450506060620001d489828a016200015a565b9350506080620001e789828a016200015a565b92505060a0620001fa89828a016200015a565b9150509295509295509295565b600062000214826200021b565b9050919050565b600073ffffffffffffffffffffffffffffffffffffffff82169050919050565b6000819050919050565b620002508162000207565b81146200025c57600080fd5b50565b6200026a816200023b565b81146200027657600080fd5b50565b60805160601c60a05160c05160e0516101005160601c610120516101405161016051612554620003b060003960008181610b0c0152610dad0152600081816109b00152818161192b015281816119a001526119ea0152600081816106870152818161078301528181610d33015281816112fd0152818161134a0152818161189b01528181611a2b0152611a8d015260008181610a7a01528181610b3001528181610bc801528181610f4001528181611064015281816112c3015281816116980152611797015260008181610e0b01528181611904015261197d015260008181610b7201528181610fd1015281816110860152818161162101526117200152600081816106c1015281816107aa015281816107d2015281816108160152610ae8015260008181610d57015261157d01526125546000f3fe60806040526004361061014f5760003560e01c8063a59a9973116100b6578063d8270dce1161006f578063d8270dce14610588578063ea46193e146105b3578063ecda7ced146105de578063f3ae5db414610609578063f5cf57c814610634578063fc0e3d901461065f5761027d565b8063a59a997314610486578063b80a0a77146104b1578063ba5d3078146104dc578063bfa30a5014610507578063c19d93fb14610532578063cb873eeb1461055d5761027d565b806381e170de1161010857806381e170de14610384578063899e5d85146103af5780638ecf5240146103da57806390dc41b71461040557806398cf4288146104305780639d585f7f1461045b5761027d565b80633577d94e1461028257806341ebcc48146102ad57806344ed456f146102d857806375a20676146103035780637c3a00fd1461032e5780637df1f1b9146103595761027d565b3661027d576000600681111561018e577f4e487b7100000000000000000000000000000000000000000000000000000000600052602160045260246000fd5b600760009054906101000a900460ff1660068111156101d6577f4e487b7100000000000000000000000000000000000000000000000000000000600052602160045260246000fd5b14156101e9576101e461067d565b61027b565b60036006811115610223577f4e487b7100000000000000000000000000000000000000000000000000000000600052602160045260246000fd5b600760009054906101000a900460ff16600681111561026b577f4e487b7100000000000000000000000000000000000000000000000000000000600052602160045260246000fd5b141561027a57610279610865565b5b5b005b600080fd5b34801561028e57600080fd5b506102976109ae565b6040516102a49190611f70565b60405180910390f35b3480156102b957600080fd5b506102c26109d2565b6040516102cf9190611f70565b60405180910390f35b3480156102e457600080fd5b506102ed610a76565b6040516102fa9190611de9565b60405180910390f35b34801561030f57600080fd5b50610318610ae6565b6040516103259190611f70565b60405180910390f35b34801561033a57600080fd5b50610343610b0a565b6040516103509190611f70565b60405180910390f35b34801561036557600080fd5b5061036e610b2e565b60405161037b9190611d45565b60405180910390f35b34801561039057600080fd5b50610399610b52565b6040516103a69190611f70565b60405180910390f35b3480156103bb57600080fd5b506103c4610b58565b6040516103d19190611e04565b60405180910390f35b3480156103e657600080fd5b506103ef610b70565b6040516103fc9190611f70565b60405180910390f35b34801561041157600080fd5b5061041a610b94565b6040516104279190611de9565b60405180910390f35b34801561043c57600080fd5b50610445610cfb565b6040516104529190611f70565b60405180910390f35b34801561046757600080fd5b50610470610d31565b60405161047d9190611f70565b60405180910390f35b34801561049257600080fd5b5061049b610d55565b6040516104a89190611e1f565b60405180910390f35b3480156104bd57600080fd5b506104c6610d79565b6040516104d39190611f70565b60405180910390f35b3480156104e857600080fd5b506104f1610d7f565b6040516104fe9190611e55565b60405180910390f35b34801561051357600080fd5b5061051c610d85565b6040516105299190611f70565b60405180910390f35b34801561053e57600080fd5b50610547610df0565b6040516105549190611e3a565b60405180910390f35b34801561056957600080fd5b50610572610e03565b60405161057f9190611f70565b60405180910390f35b34801561059457600080fd5b5061059d610e09565b6040516105aa9190611f70565b60405180910390f35b3480156105bf57600080fd5b506105c8610e2d565b6040516105d59190611f70565b60405180910390f35b3480156105ea57600080fd5b506105f3610e35565b6040516106009190611f70565b60405180910390f35b34801561061557600080fd5b5061061e610e3b565b60405161062b9190611f70565b60405180910390f35b34801561064057600080fd5b50610649610e41565b6040516106569190611f70565b60405180910390f35b610667610e47565b6040516106749190611de9565b60405180910390f35b60006127106004547f00000000000000000000000000000000000000000000000000000000000000006106b09190612023565b6106ba9190611ff2565b90506001817f00000000000000000000000000000000000000000000000000000000000000006106ea9190611f9c565b6106f49190612023565b341015610736576040517f08c379a000000000000000000000000000000000000000000000000000000000815260040161072d90611f10565b60405180910390fd5b80600560008282546107489190611f9c565b925050819055506000813461075d9190612111565b905061076761111f565b61076f610e47565b5061077861111f565b6107806111fc565b507f00000000000000000000000000000000000000000000000000000000000000006001819055507f0000000000000000000000000000000000000000000000000000000000000000811115610859577f0000000000000000000000000000000000000000000000000000000000000000816107fc9190612111565b6001600082825461080d919061207d565b925050819055507f0000000000000000000000000000000000000000000000000000000000000000816108409190612111565b600260008282546108519190611f9c565b925050819055505b61086161111f565b5050565b600061086f610d85565b9050803410156108b4576040517f08c379a00000000000000000000000000000000000000000000000000000000081526004016108ab90611f50565b60405180910390fd5b80600360008282546108c69190611f9c565b92505081905550600081346108db9190612111565b905080600160008282546108ef919061207d565b9250508190555080600260008282546109089190611f9c565b925050819055506000600154136109a3576005600760006101000a81548160ff02191690836006811115610965577f4e487b7100000000000000000000000000000000000000000000000000000000600052602160045260246000fd5b02179055506000600154121561099a576001546109819061224c565b600260008282546109929190612111565b925050819055505b6109a2611377565b5b426000819055505050565b7f000000000000000000000000000000000000000000000000000000000000000081565b60007380cdf946c1c86b7eee50743e2bc9a6d7d9ed597a73ffffffffffffffffffffffffffffffffffffffff166370a08231306040518263ffffffff1660e01b8152600401610a219190611d2a565b60206040518083038186803b158015610a3957600080fd5b505afa158015610a4d573d6000803e3d6000fd5b505050506040513d601f19601f82011682018060405250810190610a719190611b62565b905090565b60007f000000000000000000000000000000000000000000000000000000000000000073ffffffffffffffffffffffffffffffffffffffff166108fc479081150290604051600060405180830381858888f19350505050158015610ade573d6000803e3d6000fd5b506001905090565b7f000000000000000000000000000000000000000000000000000000000000000081565b7f000000000000000000000000000000000000000000000000000000000000000081565b7f000000000000000000000000000000000000000000000000000000000000000081565b60005481565b7380cdf946c1c86b7eee50743e2bc9a6d7d9ed597a81565b7f000000000000000000000000000000000000000000000000000000000000000081565b60007380cdf946c1c86b7eee50743e2bc9a6d7d9ed597a73ffffffffffffffffffffffffffffffffffffffff1663a9059cbb7f00000000000000000000000000000000000000000000000000000000000000007380cdf946c1c86b7eee50743e2bc9a6d7d9ed597a73ffffffffffffffffffffffffffffffffffffffff166370a08231306040518263ffffffff1660e01b8152600401610c349190611d2a565b60206040518083038186803b158015610c4c57600080fd5b505afa158015610c60573d6000803e3d6000fd5b505050506040513d601f19601f82011682018060405250810190610c849190611b62565b6040518363ffffffff1660e01b8152600401610ca1929190611dc0565b602060405180830381600087803b158015610cbb57600080fd5b505af1158015610ccf573d6000803e3d6000fd5b505050506040513d601f19601f82011682018060405250810190610cf39190611b39565b506001905090565b600080610d06610d85565b9050600060015412610d285780600154610d209190611f9c565b915050610d2e565b60009150505b90565b7f000000000000000000000000000000000000000000000000000000000000000081565b7f000000000000000000000000000000000000000000000000000000000000000081565b60055481565b60015481565b600080603c60005442610d989190612111565b610da29190611ff2565b9050612710600154827f0000000000000000000000000000000000000000000000000000000000000000610dd69190612023565b610de09190612023565b610dea9190611ff2565b91505090565b600760009054906101000a900460ff1681565b60035481565b7f000000000000000000000000000000000000000000000000000000000000000081565b600047905090565b60045481565b60025481565b60065481565b60006001806006811115610e84577f4e487b7100000000000000000000000000000000000000000000000000000000600052602160045260246000fd5b600760009054906101000a900460ff166006811115610ecc577f4e487b7100000000000000000000000000000000000000000000000000000000600052602160045260246000fd5b14610f0c576040517f08c379a0000000000000000000000000000000000000000000000000000000008152600401610f0390611e90565b60405180910390fd5b60007380cdf946c1c86b7eee50743e2bc9a6d7d9ed597a73ffffffffffffffffffffffffffffffffffffffff1663dd62ed3e7f0000000000000000000000000000000000000000000000000000000000000000306040518363ffffffff1660e01b8152600401610f7d929190611d60565b60206040518083038186803b158015610f9557600080fd5b505afa158015610fa9573d6000803e3d6000fd5b505050506040513d601f19601f82011682018060405250810190610fcd9190611b62565b90507f0000000000000000000000000000000000000000000000000000000000000000811015611032576040517f08c379a000000000000000000000000000000000000000000000000000000000815260040161102990611ed0565b60405180910390fd5b7380cdf946c1c86b7eee50743e2bc9a6d7d9ed597a73ffffffffffffffffffffffffffffffffffffffff166323b872dd7f0000000000000000000000000000000000000000000000000000000000000000307f00000000000000000000000000000000000000000000000000000000000000006040518463ffffffff1660e01b81526004016110c393929190611d89565b602060405180830381600087803b1580156110dd57600080fd5b505af11580156110f1573d6000803e3d6000fd5b505050506040513d601f19601f820116820180604052508101906111159190611b39565b5060019250505090565b6001600760009054906101000a900460ff166006811115611169577f4e487b7100000000000000000000000000000000000000000000000000000000600052602160045260246000fd5b6111739190611f9c565b60068111156111ab577f4e487b7100000000000000000000000000000000000000000000000000000000600052602160045260246000fd5b600760006101000a81548160ff021916908360068111156111f5577f4e487b7100000000000000000000000000000000000000000000000000000000600052602160045260246000fd5b0217905550565b60006002806006811115611239577f4e487b7100000000000000000000000000000000000000000000000000000000600052602160045260246000fd5b600760009054906101000a900460ff166006811115611281577f4e487b7100000000000000000000000000000000000000000000000000000000600052602160045260246000fd5b146112c1576040517f08c379a00000000000000000000000000000000000000000000000000000000081526004016112b890611e90565b60405180910390fd5b7f000000000000000000000000000000000000000000000000000000000000000073ffffffffffffffffffffffffffffffffffffffff166108fc7f00000000000000000000000000000000000000000000000000000000000000009081150290604051600060405180830381858888f19350505050158015611347573d6000803e3d6000fd5b507f0000000000000000000000000000000000000000000000000000000000000000600181905550600191505090565b60058060068111156113b2577f4e487b7100000000000000000000000000000000000000000000000000000000600052602160045260246000fd5b600760009054906101000a900460ff1660068111156113fa577f4e487b7100000000000000000000000000000000000000000000000000000000600052602160045260246000fd5b1461143a576040517f08c379a000000000000000000000000000000000000000000000000000000000815260040161143190611e90565b60405180910390fd5b611442611559565b611481576040517f08c379a000000000000000000000000000000000000000000000000000000000815260040161147890611e70565b60405180910390fd5b611489610b94565b6114c8576040517f08c379a00000000000000000000000000000000000000000000000000000000081526004016114bf90611eb0565b60405180910390fd5b6114d0610a76565b61150f576040517f08c379a000000000000000000000000000000000000000000000000000000000815260040161150690611f30565b60405180910390fd5b611517611604565b611556576040517f08c379a000000000000000000000000000000000000000000000000000000000815260040161154d90611ef0565b60405180910390fd5b50565b60008060025460035460055461156f9190611f9c565b6115799190611f9c565b90507f000000000000000000000000000000000000000000000000000000000000000073ffffffffffffffffffffffffffffffffffffffff1663e3d6d085826040518263ffffffff1660e01b81526004016000604051808303818588803b1580156115e357600080fd5b505af11580156115f7573d6000803e3d6000fd5b5050505050600191505090565b600061160e611810565b612710600654111561170d5760006127107f00000000000000000000000000000000000000000000000000000000000000006127106006546116509190612111565b61165a9190612023565b6116649190611ff2565b90507380cdf946c1c86b7eee50743e2bc9a6d7d9ed597a73ffffffffffffffffffffffffffffffffffffffff166340c10f197f0000000000000000000000000000000000000000000000000000000000000000836040518363ffffffff1660e01b81526004016116d5929190611dc0565b600060405180830381600087803b1580156116ef57600080fd5b505af1158015611703573d6000803e3d6000fd5b5050505050611809565b61271060065410156118085760006127107f000000000000000000000000000000000000000000000000000000000000000060065461271061174f9190612111565b6117599190612023565b6117639190611ff2565b90507380cdf946c1c86b7eee50743e2bc9a6d7d9ed597a73ffffffffffffffffffffffffffffffffffffffff16639dc29fac7f0000000000000000000000000000000000000000000000000000000000000000836040518363ffffffff1660e01b81526004016117d4929190611dc0565b600060405180830381600087803b1580156117ee57600080fd5b505af1158015611802573d6000803e3d6000fd5b50505050505b5b6001905090565b6004600681111561184a577f4e487b7100000000000000000000000000000000000000000000000000000000600052602160045260246000fd5b600760009054906101000a900460ff166006811115611892577f4e487b7100000000000000000000000000000000000000000000000000000000600052602160045260246000fd5b146119025760037f00000000000000000000000000000000000000000000000000000000000000006118c49190612023565b61271060026003546118d69190612023565b6118e09190612023565b6118ea9190611ff2565b6127106118f79190611f9c565b600681905550611b0d565b7f0000000000000000000000000000000000000000000000000000000000000000600a600c603c7f00000000000000000000000000000000000000000000000000000000000000006119549190612023565b61195e9190612023565b6119689190611ff2565b6119729190611f9c565b421015611b035760007f0000000000000000000000000000000000000000000000000000000000000000603c7f00000000000000000000000000000000000000000000000000000000000000006119c99190612023565b426119d49190612111565b6119de9190612111565b90506000600a6002603c7f0000000000000000000000000000000000000000000000000000000000000000611a139190612023565b611a1d9190612023565b611a279190611ff2565b60037f0000000000000000000000000000000000000000000000000000000000000000611a549190612023565b612710600354611a649190612023565b611a6e9190611ff2565b612710611a7b9190611f9c565b611a859190611ff2565b9050600060037f0000000000000000000000000000000000000000000000000000000000000000611ab69190612023565b6127106002600354611ac89190612023565b611ad29190612023565b611adc9190611ff2565b90508282611aea9190612023565b81611af59190612111565b600681905550505050611b0c565b60006006819055505b5b565b600081519050611b1e816124f0565b92915050565b600081519050611b3381612507565b92915050565b600060208284031215611b4b57600080fd5b6000611b5984828501611b0f565b91505092915050565b600060208284031215611b7457600080fd5b6000611b8284828501611b24565b91505092915050565b611b94816121bc565b82525050565b611ba381612157565b82525050565b611bb281612145565b82525050565b611bc181612169565b82525050565b611bd0816121ce565b82525050565b611bdf816121f2565b82525050565b611bee81612216565b82525050565b611bfd81612188565b82525050565b6000611c10601283611f8b565b9150611c1b82612322565b602082019050919050565b6000611c33602783611f8b565b9150611c3e8261234b565b604082019050919050565b6000611c56601e83611f8b565b9150611c618261239a565b602082019050919050565b6000611c79601983611f8b565b9150611c84826123c3565b602082019050919050565b6000611c9c601d83611f8b565b9150611ca7826123ec565b602082019050919050565b6000611cbf602c83611f8b565b9150611cca82612415565b604082019050919050565b6000611ce2601783611f8b565b9150611ced82612464565b602082019050919050565b6000611d05603c83611f8b565b9150611d108261248d565b604082019050919050565b611d24816121b2565b82525050565b6000602082019050611d3f6000830184611ba9565b92915050565b6000602082019050611d5a6000830184611b9a565b92915050565b6000604082019050611d756000830185611b8b565b611d826020830184611ba9565b9392505050565b6000606082019050611d9e6000830186611b8b565b611dab6020830185611ba9565b611db86040830184611d1b565b949350505050565b6000604082019050611dd56000830185611b8b565b611de26020830184611d1b565b9392505050565b6000602082019050611dfe6000830184611bb8565b92915050565b6000602082019050611e196000830184611bc7565b92915050565b6000602082019050611e346000830184611bd6565b92915050565b6000602082019050611e4f6000830184611be5565b92915050565b6000602082019050611e6a6000830184611bf4565b92915050565b60006020820190508181036000830152611e8981611c03565b9050919050565b60006020820190508181036000830152611ea981611c26565b9050919050565b60006020820190508181036000830152611ec981611c49565b9050919050565b60006020820190508181036000830152611ee981611c6c565b9050919050565b60006020820190508181036000830152611f0981611c8f565b9050919050565b60006020820190508181036000830152611f2981611cb2565b9050919050565b60006020820190508181036000830152611f4981611cd5565b9050919050565b60006020820190508181036000830152611f6981611cf8565b9050919050565b6000602082019050611f856000830184611d1b565b92915050565b600082825260208201905092915050565b6000611fa7826121b2565b9150611fb2836121b2565b9250827fffffffffffffffffffffffffffffffffffffffffffffffffffffffffffffffff03821115611fe757611fe6612295565b5b828201905092915050565b6000611ffd826121b2565b9150612008836121b2565b925082612018576120176122c4565b5b828204905092915050565b600061202e826121b2565b9150612039836121b2565b9250817fffffffffffffffffffffffffffffffffffffffffffffffffffffffffffffffff048311821515161561207257612071612295565b5b828202905092915050565b600061208882612188565b915061209383612188565b9250827f8000000000000000000000000000000000000000000000000000000000000000018212600084121516156120ce576120cd612295565b5b827f7fffffffffffffffffffffffffffffffffffffffffffffffffffffffffffffff01821360008412161561210657612105612295565b5b828203905092915050565b600061211c826121b2565b9150612127836121b2565b92508282101561213a57612139612295565b5b828203905092915050565b600061215082612192565b9050919050565b600061216282612192565b9050919050565b60008115159050919050565b6000819050612183826124dc565b919050565b6000819050919050565b600073ffffffffffffffffffffffffffffffffffffffff82169050919050565b6000819050919050565b60006121c782612228565b9050919050565b60006121d9826121e0565b9050919050565b60006121eb82612192565b9050919050565b60006121fd82612204565b9050919050565b600061220f82612192565b9050919050565b600061222182612175565b9050919050565b60006122338261223a565b9050919050565b600061224582612192565b9050919050565b600061225782612188565b91507f800000000000000000000000000000000000000000000000000000000000000082141561228a57612289612295565b5b816000039050919050565b7f4e487b7100000000000000000000000000000000000000000000000000000000600052601160045260246000fd5b7f4e487b7100000000000000000000000000000000000000000000000000000000600052601260045260246000fd5b7f4e487b7100000000000000000000000000000000000000000000000000000000600052602160045260246000fd5b7f436f756c64206e6f742070617920706f6f6c0000000000000000000000000000600082015250565b7f46756e6374696f6e2063616e6e6f742062652063616c6c65642061742074686960008201527f732074696d652e00000000000000000000000000000000000000000000000000602082015250565b7f436f756c64206e6f742072657475726e2063726564697420746f6b656e730000600082015250565b7f436865636b2074686520746f6b656e20616c6c6f77616e636500000000000000600082015250565b7f436f756c64206e6f74206368616e6765206372656469742073636f7265000000600082015250565b7f596f757220636f6c6c61746572616c206973206e6f7420656e6f75676820666f60008201527f722074686973206c6f616e2e0000000000000000000000000000000000000000602082015250565b7f436f756c642072657475726e20636f6c6c61746572616c000000000000000000600082015250565b7f596f7572207061796d656e742068617320746f20636f766572206174206c656160008201527f73742074686520696e74657265737473206f77656420746f6461792e00000000602082015250565b600781106124ed576124ec6122f3565b5b50565b6124f981612169565b811461250457600080fd5b50565b612510816121b2565b811461251b57600080fd5b5056fea264697066735822122085941b8a2462183619f9506ee521642c20c8db616f45ba65409d78e92d9145a364736f6c63430008010033",
  "immutableReferences": {
    "1340": [
      {
        "length": 32,
        "start": 3415
      },
      {
        "length": 32,
        "start": 5501
      }
    ],
    "1342": [
      {
        "length": 32,
        "start": 1729
      },
      {
        "length": 32,
        "start": 1962
      },
      {
        "length": 32,
        "start": 2002
      },
      {
        "length": 32,
        "start": 2070
      },
      {
        "length": 32,
        "start": 2792
      }
    ],
    "1344": [
      {
        "length": 32,
        "start": 2930
      },
      {
        "length": 32,
        "start": 4049
      },
      {
        "length": 32,
        "start": 4230
      },
      {
        "length": 32,
        "start": 5665
      },
      {
        "length": 32,
        "start": 5920
      }
    ],
    "1346": [
      {
        "length": 32,
        "start": 3595
      },
      {
        "length": 32,
        "start": 6404
      },
      {
        "length": 32,
        "start": 6525
      }
    ],
    "1348": [
      {
        "length": 32,
        "start": 2682
      },
      {
        "length": 32,
        "start": 2864
      },
      {
        "length": 32,
        "start": 3016
      },
      {
        "length": 32,
        "start": 3904
      },
      {
        "length": 32,
        "start": 4196
      },
      {
        "length": 32,
        "start": 4803
      },
      {
        "length": 32,
        "start": 5784
      },
      {
        "length": 32,
        "start": 6039
      }
    ],
    "1350": [
      {
        "length": 32,
        "start": 1671
      },
      {
        "length": 32,
        "start": 1923
      },
      {
        "length": 32,
        "start": 3379
      },
      {
        "length": 32,
        "start": 4861
      },
      {
        "length": 32,
        "start": 4938
      },
      {
        "length": 32,
        "start": 6299
      },
      {
        "length": 32,
        "start": 6699
      },
      {
        "length": 32,
        "start": 6797
      }
    ],
    "1352": [
      {
        "length": 32,
        "start": 2480
      },
      {
        "length": 32,
        "start": 6443
      },
      {
        "length": 32,
        "start": 6560
      },
      {
        "length": 32,
        "start": 6634
      }
    ],
    "1360": [
      {
        "length": 32,
        "start": 2828
      },
      {
        "length": 32,
        "start": 3501
      }
    ]
  },
  "source": "// SPDX-License-Identifier: MIT\npragma solidity ^0.8.0;\n\n\ncontract CreditToken {\n    \n    //transfer function\n    function transferFrom(address, address, uint ) public returns (bool ) {}\n    function balanceOf(address) public view  returns (uint ) {}\n    function allowance(address, address ) public view  returns (uint ) {}\n    function transfer(address , uint ) external returns (bool ){}\n    function whitelistAddress (address ) external {}\n    function approve(address, address, uint) external returns (bool){}\n    function mint(address, uint) external {}\n    function burn(address, uint) external {}\n}\n\ncontract _LendingPool{\n    function receiveFromLoan() external payable{}\n}\n\ncontract Loan{\n    \n    CreditToken constant public creditToken = CreditToken(0x80cDF946c1c86B7eee50743E2bc9a6d7d9ed597A);\n    _LendingPool immutable public lendingPool;\n    uint immutable public collateralRequired;\n    uint immutable public creditTokensRequired;\n    uint immutable public creationTime;\n    address payable immutable  public borrower;\n    uint immutable public loanAmount;\n    uint immutable public loanTerm;\n    uint public lastPayment;\n    int public principal;\n    uint public paidBack;\n    uint immutable public interestRate;\n    uint public interestsPaid;\n    uint public spamFee = 150;\n    uint public paidFees;\n    uint public creditChange;\n    \n    \n    enum States {\n        WaitingOnCollateral,\n        TakingStake,\n        DisbursingLoan,\n        Active,\n        Late,\n        PaidInFull,\n        Defaulted\n    }\n    \n    States public state;\n    \n    //https://ethereum.stackexchange.com/questions/59132/deploy-contract-with-ether\n    constructor ( \n        //CreditToken tokenAddr, //the address of the credittoken's contract. (only development phase. Should be hardcoded in production time)\n        uint _collateralRequired, //the Ether amount of the collateral in weis\n        address payable _borrower, //address of the borroweaddress\n        uint _creditTokensRequired, // the Credit Tokens neccessary to put up as stake\n        uint _loanAmount, //The amount of Ether that is going to be lended to the borrower (weis)\n        uint _loanTerm, // in days\n        uint _interestRate // in percentual points muliplied by 100 (i.e. 1.5% = 150)\n        )\n        payable{ // The constructor is payable because it will receive the Ether to be lended at creation time\n        \n        require(msg.value == _loanAmount); \n        \n        creationTime = block.timestamp;\n        lendingPool = _LendingPool(msg.sender);\n        lastPayment = block.timestamp;\n        collateralRequired = _collateralRequired;\n        loanTerm = _loanTerm;\n        borrower = _borrower;\n        loanAmount = _loanAmount;\n        creditTokensRequired = _creditTokensRequired;\n        interestRate = _interestRate;\n        \n        state = States.WaitingOnCollateral;\n    }\n    \n    modifier onlyOnState(States _state) {\n        require(state == _state,\"Function cannot be called at this time.\");\n        _;\n    }\n\n    function nextState() internal {\n        state = States(uint(state) + 1);\n    }\n    \n    //After this contract has been created, the borrower must put up the collateral by sending ETH\n    //to the address of the Loan Contract which will be handled by this method and initiate the \n    //disbursement of the loan.\n    receive() external payable{\n        \n        if (state == States.WaitingOnCollateral){\n            takeCollateralDisburseLoan();\n        }\n        else if(state == States.Active){\n            receivePayment();\n        }\n    }\n    \n    function takeCollateralDisburseLoan() internal{\n        \n        uint thisSpamFee = (loanAmount * spamFee)/10000;\n        require(msg.value >= (collateralRequired + thisSpamFee) * 1 wei, \"Your collateral is not enough for this loan.\");\n        \n        paidFees += thisSpamFee;\n        uint collateralSent = msg.value - thisSpamFee;\n        \n        //..Now that the borrower has put the ETH as collateral, we take the CreditTokens for the loan.\n        nextState();\n        getStake();\n        \n        //and disburse the loan\n        nextState();\n        disburseLoan();\n        \n        principal = int(loanAmount);\n        //Taking care of excesive Ether sent: //ALSO, TAKE CARE OF ATTACK WHERE THE EXCESIVE ETHER WOULD BE ENOUH TO PAYOFF THE DEBT\n        if(collateralSent > collateralRequired){\n            principal -= int(collateralSent - collateralRequired);\n            paidBack += (collateralSent - collateralRequired);\n        }\n        \n        nextState();\n    }\n    \n    function receivePayment() internal{\n        // the payment has to be able to cover at least the interests borrowed\n            uint interests = calculateInteresestsofPayment();\n            require( msg.value >= interests, \"Your payment has to cover at least the interests owed today.\" );\n            interestsPaid += interests;\n            uint toPrincipal = msg.value - interests;\n            principal -= int(toPrincipal);\n            paidBack += toPrincipal;\n            if(principal <= 0 ){\n                state = States.PaidInFull;\n                if (principal<0){\n                    paidBack -= uint(-principal);\n                }\n                closeLoan();\n            }\n            lastPayment = block.timestamp;\n    }\n    \n    function closeLoan()internal onlyOnState(States.PaidInFull){\n        \n        require(payPool(),\"Could not pay pool\");\n        require(returnAllCreditTokens(),\"Could not return credit tokens\");\n        \n        require(returnCollateral(),\"Could return collateral\");\n        require(changeCreditScore(),\"Could not change credit score\");\n    }\n        \n    function getStake() public payable onlyOnState( States.TakingStake) returns (bool success){\n        \n        uint256 allowance = creditToken.allowance(borrower, address(this));\n        require(allowance >= creditTokensRequired, \"Check the token allowance\");\n        creditToken.transferFrom(borrower, address(this), creditTokensRequired);\n        return true;\n    }\n    \n    function getCreditTokenBalance() public view  returns (uint balance) {\n        return creditToken.balanceOf(address(this));\n    }\n    \n    function getEtherBalance() public view returns (uint){\n        return address(this).balance;\n    }\n    \n    function disburseLoan() private onlyOnState( States.DisbursingLoan ) returns(bool success){\n        borrower.transfer(loanAmount);\n        principal = int(loanAmount);\n        return true;\n    }\n    \n    function returnCollateral() public returns(bool success){ //SET TO PRIVATE!!!\n        //borrower.transfer(collateralRequired);\n        //We return to the borrower all the money left in the loan since we have already\n        //paid the pool (interests, fees and loanAmount)\n        borrower.transfer(address(this).balance);\n        return true;\n    }\n    \n    function changeCreditScore() internal returns (bool success) { \n        calculateCreditChange();\n        if (creditChange > 10000){\n            uint mintAmount = ( (creditChange - 10000) * creditTokensRequired)/10000;\n            creditToken.mint(borrower,mintAmount );\n        }else if (creditChange < 10000){\n            uint burnAmount = ((10000 - creditChange) * creditTokensRequired)/10000;\n            creditToken.burn(borrower, burnAmount);\n        }\n        return true;\n    }\n    \n    function calculateCreditChange() internal{\n        //percentage change expressed in hundreth or percentual points. i.e.: 1 = 0.01% ; 100 = 1%; 1000 = 10%\n        if ( state != States.Late){\n            creditChange = 10000 + (interestsPaid*2*10000)/(loanAmount * 3);\n        }\n        else {\n           if (block.timestamp < (loanTerm * 1 minutes * 12)/10 + creationTime ){ //CHANGE TO days IN PRODUCTION\n               uint x = block.timestamp - loanTerm * 1 minutes - creationTime;//CHANGE TO days IN PRODUCTION\n               uint m =  ( 10000 + (interestsPaid*10000)/(loanAmount * 3) ) / ((loanTerm * 1 minutes * 2)/10 );//CHANGE TO days IN PRODUCTION\n               uint b = (interestsPaid*2*10000)/(loanAmount * 3);\n               creditChange =  b - m*x;\n           }else\n            {creditChange = 0;}\n        }\n    }\n    \n    function payPool() internal returns(bool success){\n        uint payment = paidFees + interestsPaid + paidBack;\n        lendingPool.receiveFromLoan{value: payment}();\n        return true;\n    }\n    \n    function returnAllCreditTokens() public returns(bool success){ //SET TO PRIVATE!!!\n        creditToken.transfer(borrower, creditToken.balanceOf(address(this) ) );\n        return true;\n    }\n    \n    function calculateInteresestsofPayment() public view returns(uint){\n        //###### REAL CODE (IN DAYS) ######\n        // uint nDays = (block.timestamp  - lastPayment)/(1 days);\n        // uint interestsPct = ( 10000 + interestRate )**nDays - 10000;\n        \n        //###### TEST CODE (IN MINUTES) #######\n        uint nDays = (block.timestamp  - lastPayment)/60;\n        return interestRate*nDays*uint(principal)/10000;\n    }\n    \n    function howMuchToPayOff() public view returns(uint){\n        uint interests = calculateInteresestsofPayment();\n        if (principal >= 0){\n            return uint(principal) + interests;\n        }else{\n            return 0;\n        }\n        \n    }\n}\n",
  "sourcePath": "/Users/robertocantu/blockchain_programming/sake/contracts/Loan.sol",
  "compiler": {
    "name": "solc",
    "version": "0.8.1+commit.df193b15.Emscripten.clang"
  },
  "schemaVersion": "3.3.3",
  "updatedAt": "2021-02-04T21:08:36.704Z",
  "devdoc": {
    "kind": "dev",
    "methods": {},
    "version": 1
  },
  "userdoc": {
    "kind": "user",
    "methods": {},
    "version": 1
  }
}