{
  "contractName": "Loan",
  "abi": [
    {
      "inputs": [
        {
          "internalType": "uint256",
          "name": "_collateralRequired",
          "type": "uint256"
        },
        {
          "internalType": "address payable",
          "name": "_borrower",
          "type": "address"
        },
        {
          "internalType": "uint256",
          "name": "_creditTokensRequired",
          "type": "uint256"
        },
        {
          "internalType": "uint256",
          "name": "_loanAmount",
          "type": "uint256"
        }
      ],
      "stateMutability": "payable",
      "type": "constructor"
    },
    {
      "stateMutability": "payable",
      "type": "fallback"
    },
    {
      "inputs": [],
      "name": "borrower",
      "outputs": [
        {
          "internalType": "address payable",
          "name": "",
          "type": "address"
        }
      ],
      "stateMutability": "view",
      "type": "function"
    },
    {
      "inputs": [],
      "name": "collateralRequired",
      "outputs": [
        {
          "internalType": "uint256",
          "name": "",
          "type": "uint256"
        }
      ],
      "stateMutability": "view",
      "type": "function"
    },
    {
      "inputs": [],
      "name": "creditToken",
      "outputs": [
        {
          "internalType": "contract CreditToken",
          "name": "",
          "type": "address"
        }
      ],
      "stateMutability": "view",
      "type": "function"
    },
    {
      "inputs": [],
      "name": "creditTokensRequired",
      "outputs": [
        {
          "internalType": "uint256",
          "name": "",
          "type": "uint256"
        }
      ],
      "stateMutability": "view",
      "type": "function"
    },
    {
      "inputs": [],
      "name": "loanAmount",
      "outputs": [
        {
          "internalType": "uint256",
          "name": "",
          "type": "uint256"
        }
      ],
      "stateMutability": "view",
      "type": "function"
    },
    {
      "inputs": [],
      "name": "state",
      "outputs": [
        {
          "internalType": "bytes32",
          "name": "",
          "type": "bytes32"
        }
      ],
      "stateMutability": "view",
      "type": "function"
    },
    {
      "stateMutability": "payable",
      "type": "receive"
    },
    {
      "inputs": [
        {
          "internalType": "address payable",
          "name": "borrower",
          "type": "address"
        },
        {
          "internalType": "uint256",
          "name": "amount",
          "type": "uint256"
        }
      ],
      "name": "getStake",
      "outputs": [
        {
          "internalType": "bool",
          "name": "success",
          "type": "bool"
        }
      ],
      "stateMutability": "payable",
      "type": "function"
    },
    {
      "inputs": [],
      "name": "getStake",
      "outputs": [
        {
          "internalType": "bool",
          "name": "success",
          "type": "bool"
        }
      ],
      "stateMutability": "payable",
      "type": "function"
    },
    {
      "inputs": [],
      "name": "getCreditTokenBalance",
      "outputs": [
        {
          "internalType": "uint256",
          "name": "balance",
          "type": "uint256"
        }
      ],
      "stateMutability": "view",
      "type": "function"
    },
    {
      "inputs": [],
      "name": "getEtherBalance",
      "outputs": [
        {
          "internalType": "uint256",
          "name": "",
          "type": "uint256"
        }
      ],
      "stateMutability": "view",
      "type": "function"
    },
    {
      "inputs": [],
      "name": "returnCollateral",
      "outputs": [
        {
          "internalType": "bool",
          "name": "success",
          "type": "bool"
        }
      ],
      "stateMutability": "nonpayable",
      "type": "function"
    },
    {
      "inputs": [],
      "name": "returnAllCreditTokens",
      "outputs": [
        {
          "internalType": "bool",
          "name": "success",
          "type": "bool"
        }
      ],
      "stateMutability": "nonpayable",
      "type": "function"
    }
  ],
  "bytecode": "0x610100604052604051620014f1380380620014f183398181016040528101906200002a9190620000e5565b8034146200003757600080fd5b83608081815250508273ffffffffffffffffffffffffffffffffffffffff1660c08173ffffffffffffffffffffffffffffffffffffffff1660601b815250508060e081815250508160a081815250507f77616974696e674f6e436f6c6c61746572616c0000000000000000000000000060008190555050505050620001c3565b600081519050620000c8816200018f565b92915050565b600081519050620000df81620001a9565b92915050565b60008060008060808587031215620000fc57600080fd5b60006200010c87828801620000ce565b94505060206200011f87828801620000b7565b93505060406200013287828801620000ce565b92505060606200014587828801620000ce565b91505092959194509250565b60006200015e8262000165565b9050919050565b600073ffffffffffffffffffffffffffffffffffffffff82169050919050565b6000819050919050565b6200019a8162000151565b8114620001a657600080fd5b50565b620001b48162000185565b8114620001c057600080fd5b50565b60805160a05160c05160601c60e0516112ac62000245600039600081816107b90152610b0d0152600081816105370152818161065b0152818161077f015281816108b40152818161094601526109d80152600081816105c80152818161067d015261098201526000818160b4015281816101ac015261092201526112ac6000f3fe6080604052600436106100ab5760003560e01c806390dc41b71161006457806390dc41b7146103a25780639d585f7f146103cd578063c19d93fb146103f8578063cfd4766314610423578063ea46193e14610453578063fc0e3d901461047e576101a8565b806341ebcc48146102a057806344ed456f146102cb57806375a20676146102f65780637df1f1b914610321578063899e5d851461034c5780638ecf524014610377576101a8565b366101a85760017f00000000000000000000000000000000000000000000000000000000000000006100dd9190611023565b34101561011f576040517f08c379a000000000000000000000000000000000000000000000000000000000815260040161011690610fd7565b60405180910390fd5b7f74616b696e675374616b6500000000000000000000000000000000000000000060008190555061014e61049c565b507f64697362757273696e674c6f616e00000000000000000000000000000000000060008190555061017e610716565b507f6163746976650000000000000000000000000000000000000000000000000000600081905550005b60017f00000000000000000000000000000000000000000000000000000000000000006101d59190611023565b341015610217576040517f08c379a000000000000000000000000000000000000000000000000000000000815260040161020e90610fd7565b60405180910390fd5b7f74616b696e675374616b6500000000000000000000000000000000000000000060008190555061024661049c565b507f64697362757273696e674c6f616e000000000000000000000000000000000000600081905550610276610716565b507f6163746976650000000000000000000000000000000000000000000000000000600081905550005b3480156102ac57600080fd5b506102b561080c565b6040516102c29190610ff7565b60405180910390f35b3480156102d757600080fd5b506102e06108b0565b6040516102ed9190610f46565b60405180910390f35b34801561030257600080fd5b5061030b610920565b6040516103189190610ff7565b60405180910390f35b34801561032d57600080fd5b50610336610944565b6040516103439190610ea2565b60405180910390f35b34801561035857600080fd5b50610361610968565b60405161036e9190610f7c565b60405180910390f35b34801561038357600080fd5b5061038c610980565b6040516103999190610ff7565b60405180910390f35b3480156103ae57600080fd5b506103b76109a4565b6040516103c49190610f46565b60405180910390f35b3480156103d957600080fd5b506103e2610b0b565b6040516103ef9190610ff7565b60405180910390f35b34801561040457600080fd5b5061040d610b2f565b60405161041a9190610f61565b60405180910390f35b61043d60048036038101906104389190610d27565b610b35565b60405161044a9190610f46565b60405180910390f35b34801561045f57600080fd5b50610468610ccb565b6040516104759190610ff7565b60405180910390f35b61048661049c565b6040516104939190610f46565b60405180910390f35b60007f74616b696e675374616b650000000000000000000000000000000000000000008060005414610503576040517f08c379a00000000000000000000000000000000000000000000000000000000081526004016104fa90610fb7565b60405180910390fd5b600073ffee743bd4794361cb2ec0c86d22fb5ac4a1568b73ffffffffffffffffffffffffffffffffffffffff1663dd62ed3e7f0000000000000000000000000000000000000000000000000000000000000000306040518363ffffffff1660e01b8152600401610574929190610ebd565b60206040518083038186803b15801561058c57600080fd5b505afa1580156105a0573d6000803e3d6000fd5b505050506040513d601f19601f820116820180604052508101906105c49190610d8c565b90507f0000000000000000000000000000000000000000000000000000000000000000811015610629576040517f08c379a000000000000000000000000000000000000000000000000000000000815260040161062090610f97565b60405180910390fd5b73ffee743bd4794361cb2ec0c86d22fb5ac4a1568b73ffffffffffffffffffffffffffffffffffffffff166323b872dd7f0000000000000000000000000000000000000000000000000000000000000000307f00000000000000000000000000000000000000000000000000000000000000006040518463ffffffff1660e01b81526004016106ba93929190610ee6565b602060405180830381600087803b1580156106d457600080fd5b505af11580156106e8573d6000803e3d6000fd5b505050506040513d601f19601f8201168201806040525081019061070c9190610d63565b5060019250505090565b60007f64697362757273696e674c6f616e000000000000000000000000000000000000806000541461077d576040517f08c379a000000000000000000000000000000000000000000000000000000000815260040161077490610fb7565b60405180910390fd5b7f000000000000000000000000000000000000000000000000000000000000000073ffffffffffffffffffffffffffffffffffffffff166108fc7f00000000000000000000000000000000000000000000000000000000000000009081150290604051600060405180830381858888f19350505050158015610803573d6000803e3d6000fd5b50600191505090565b600073ffee743bd4794361cb2ec0c86d22fb5ac4a1568b73ffffffffffffffffffffffffffffffffffffffff166370a08231306040518263ffffffff1660e01b815260040161085b9190610e87565b60206040518083038186803b15801561087357600080fd5b505afa158015610887573d6000803e3d6000fd5b505050506040513d601f19601f820116820180604052508101906108ab9190610d8c565b905090565b60007f000000000000000000000000000000000000000000000000000000000000000073ffffffffffffffffffffffffffffffffffffffff166108fc479081150290604051600060405180830381858888f19350505050158015610918573d6000803e3d6000fd5b506001905090565b7f000000000000000000000000000000000000000000000000000000000000000081565b7f000000000000000000000000000000000000000000000000000000000000000081565b73ffee743bd4794361cb2ec0c86d22fb5ac4a1568b81565b7f000000000000000000000000000000000000000000000000000000000000000081565b600073ffee743bd4794361cb2ec0c86d22fb5ac4a1568b73ffffffffffffffffffffffffffffffffffffffff1663a9059cbb7f000000000000000000000000000000000000000000000000000000000000000073ffee743bd4794361cb2ec0c86d22fb5ac4a1568b73ffffffffffffffffffffffffffffffffffffffff166370a08231306040518263ffffffff1660e01b8152600401610a449190610e87565b60206040518083038186803b158015610a5c57600080fd5b505afa158015610a70573d6000803e3d6000fd5b505050506040513d601f19601f82011682018060405250810190610a949190610d8c565b6040518363ffffffff1660e01b8152600401610ab1929190610f1d565b602060405180830381600087803b158015610acb57600080fd5b505af1158015610adf573d6000803e3d6000fd5b505050506040513d601f19601f82011682018060405250810190610b039190610d63565b506001905090565b7f000000000000000000000000000000000000000000000000000000000000000081565b60005481565b60008073ffee743bd4794361cb2ec0c86d22fb5ac4a1568b73ffffffffffffffffffffffffffffffffffffffff1663dd62ed3e85306040518363ffffffff1660e01b8152600401610b87929190610ebd565b60206040518083038186803b158015610b9f57600080fd5b505afa158015610bb3573d6000803e3d6000fd5b505050506040513d601f19601f82011682018060405250810190610bd79190610d8c565b905082811015610c1c576040517f08c379a0000000000000000000000000000000000000000000000000000000008152600401610c1390610f97565b60405180910390fd5b73ffee743bd4794361cb2ec0c86d22fb5ac4a1568b73ffffffffffffffffffffffffffffffffffffffff166323b872dd8530866040518463ffffffff1660e01b8152600401610c6d93929190610ee6565b602060405180830381600087803b158015610c8757600080fd5b505af1158015610c9b573d6000803e3d6000fd5b505050506040513d601f19601f82011682018060405250810190610cbf9190610d63565b50600191505092915050565b600047905090565b600081359050610ce281611231565b92915050565b600081519050610cf781611248565b92915050565b600081359050610d0c8161125f565b92915050565b600081519050610d218161125f565b92915050565b60008060408385031215610d3a57600080fd5b6000610d4885828601610cd3565b9250506020610d5985828601610cfd565b9150509250929050565b600060208284031215610d7557600080fd5b6000610d8384828501610ce8565b91505092915050565b600060208284031215610d9e57600080fd5b6000610dac84828501610d12565b91505092915050565b610dbe816110e1565b82525050565b610dcd8161108f565b82525050565b610ddc8161107d565b82525050565b610deb816110a1565b82525050565b610dfa816110ad565b82525050565b610e09816110f3565b82525050565b6000610e1c601983611012565b9150610e278261116a565b602082019050919050565b6000610e3f603283611012565b9150610e4a82611193565b604082019050919050565b6000610e62602c83611012565b9150610e6d826111e2565b604082019050919050565b610e81816110d7565b82525050565b6000602082019050610e9c6000830184610dd3565b92915050565b6000602082019050610eb76000830184610dc4565b92915050565b6000604082019050610ed26000830185610db5565b610edf6020830184610dd3565b9392505050565b6000606082019050610efb6000830186610db5565b610f086020830185610dd3565b610f156040830184610e78565b949350505050565b6000604082019050610f326000830185610db5565b610f3f6020830184610e78565b9392505050565b6000602082019050610f5b6000830184610de2565b92915050565b6000602082019050610f766000830184610df1565b92915050565b6000602082019050610f916000830184610e00565b92915050565b60006020820190508181036000830152610fb081610e0f565b9050919050565b60006020820190508181036000830152610fd081610e32565b9050919050565b60006020820190508181036000830152610ff081610e55565b9050919050565b600060208201905061100c6000830184610e78565b92915050565b600082825260208201905092915050565b600061102e826110d7565b9150611039836110d7565b9250817fffffffffffffffffffffffffffffffffffffffffffffffffffffffffffffffff04831182151516156110725761107161113b565b5b828202905092915050565b6000611088826110b7565b9050919050565b600061109a826110b7565b9050919050565b60008115159050919050565b6000819050919050565b600073ffffffffffffffffffffffffffffffffffffffff82169050919050565b6000819050919050565b60006110ec82611117565b9050919050565b60006110fe82611105565b9050919050565b6000611110826110b7565b9050919050565b600061112282611129565b9050919050565b6000611134826110b7565b9050919050565b7f4e487b7100000000000000000000000000000000000000000000000000000000600052601160045260246000fd5b7f436865636b2074686520746f6b656e20616c6c6f77616e636500000000000000600082015250565b7f54686973206d6574686f642063616e6e6f742062652063616c6c65642064757260008201527f696e672063757272656e742073746174652e0000000000000000000000000000602082015250565b7f596f757220636f6c6c61746572616c206973206e6f7420656e6f75676820666f60008201527f722074686973206c6f616e2e0000000000000000000000000000000000000000602082015250565b61123a8161108f565b811461124557600080fd5b50565b611251816110a1565b811461125c57600080fd5b50565b611268816110d7565b811461127357600080fd5b5056fea264697066735822122014f3b84fe4e6ae49754f4594e28058252d6d5fc44b219e1e2bfcce0bb2029def64736f6c63430008010033",
  "immutableReferences": {
    "812": [
      {
        "length": 32,
        "start": 180
      },
      {
        "length": 32,
        "start": 428
      },
      {
        "length": 32,
        "start": 2338
      }
    ],
    "814": [
      {
        "length": 32,
        "start": 1480
      },
      {
        "length": 32,
        "start": 1661
      },
      {
        "length": 32,
        "start": 2434
      }
    ],
    "818": [
      {
        "length": 32,
        "start": 1335
      },
      {
        "length": 32,
        "start": 1627
      },
      {
        "length": 32,
        "start": 1919
      },
      {
        "length": 32,
        "start": 2228
      },
      {
        "length": 32,
        "start": 2374
      },
      {
        "length": 32,
        "start": 2520
      }
    ],
    "820": [
      {
        "length": 32,
        "start": 1977
      },
      {
        "length": 32,
        "start": 2829
      }
    ]
  },
  "source": "pragma solidity ^0.8.0;\n\ncontract CreditToken {\n    \n    //transfer function\n    function transferFrom(address, address, uint ) public returns (bool success) {}\n    function balanceOf(address) public view  returns (uint balance) {}\n    function allowance(address, address ) public view  returns (uint remaining) {}\n    function transfer(address to, uint tokens) external returns (bool success){}\n}\n\n\ncontract Loan{\n    \n    CreditToken constant public creditToken = CreditToken(0xfFee743BD4794361Cb2EC0c86d22fb5Ac4a1568b);\n    uint immutable public collateralRequired;\n    uint immutable public creditTokensRequired;\n    bytes32 public state;\n    address payable immutable public borrower;\n    uint immutable public loanAmount;\n    \n    //states\n    //to read them use https://web3-type-converter.onbrn.com/\n    bytes32 constant WAITING_ON_COLLATERAL = \"waitingOnCollateral\";\n    bytes32 constant TAKING_STAKE = \"takingStake\";\n    bytes32 constant DISBURSING_LOAN = \"disbursingLoan\";\n    bytes32 constant ACTIVE = \"active\";\n    bytes32 constant LATE = \"late\";\n    bytes32 constant PAID_IN_FULL = \"paidInFull\";\n    bytes32 constant DEFAULTED = \"defaulted\";\n    \n    //https://ethereum.stackexchange.com/questions/59132/deploy-contract-with-ether\n    constructor ( \n        //CreditToken tokenAddr, //the address of the credittoken's contract. (only development phase. Should be hardcoded in production time)\n        uint _collateralRequired, //the Ether amount of the collateral in weis\n        address payable _borrower, //address of the borroweaddress\n        uint _creditTokensRequired, // the Credit Tokens neccessary to put up as stake\n        uint _loanAmount //The amount of Ether that is going to be lended to the borrower (weis)\n        )\n        payable{ // The constructor is payable because it will receive the Ether to be lended at creation time\n        \n        require(msg.value == _loanAmount); \n        \n        collateralRequired = _collateralRequired;\n        //creditToken = CreditToken(tokenAddr);\n        borrower = _borrower;\n        loanAmount = _loanAmount;\n        creditTokensRequired = _creditTokensRequired;\n        \n        state = WAITING_ON_COLLATERAL;\n    }\n    \n    modifier onlyOnState(bytes32 _state) {\n            require(state==_state,\"This method cannot be called during current state.\");\n            _;\n    }\n    \n   \n    function getStake(address payable borrower, uint amount) public payable returns (bool success){\n        \n        \n        uint256 allowance = creditToken.allowance(borrower, address(this));\n        require(allowance >= amount, \"Check the token allowance\");\n        creditToken.transferFrom(borrower, address(this), amount);\n        return true;\n    }\n\n    //After this contract has been created, the borrower must put up the collateral by sending ETH\n    //to the address of the Loan Contract which will be handled by this method and initiate the \n    //disbursement of the loan.\n    receive() external payable{\n        require(msg.value >= collateralRequired * 1 wei, \"Your collateral is not enough for this loan.\");\n        \n        //TO-DO: take care of excesive Ether sent, or simply give it back at the end\n        \n        //..Now that the borrower has put the ETH as collateral, we take the CreditTokens for the loan.\n        state = TAKING_STAKE;\n        getStake();\n        \n        //and disburse the loan\n        state = DISBURSING_LOAN;\n        disburseLoan();\n        \n        state = ACTIVE;\n        \n    }\n\n    fallback() external payable {\n        \n        require(msg.value >= collateralRequired * 1 wei, \"Your collateral is not enough for this loan.\");\n        \n        //..Now that the borrower has put the ETH as collateral, we take the tokens for the loan.\n        state = TAKING_STAKE;\n        getStake();\n        \n        //and disburse the loan\n        state = DISBURSING_LOAN;\n        disburseLoan();\n        \n        state = ACTIVE;\n    }\n        \n    //the onlyOnState modifier works around the fact that payable functions cannot be internal nor private\n    function getStake() public payable onlyOnState(TAKING_STAKE) returns (bool success){\n        \n        uint256 allowance = creditToken.allowance(borrower, address(this));\n        require(allowance >= creditTokensRequired, \"Check the token allowance\");\n        creditToken.transferFrom(borrower, address(this), creditTokensRequired);\n        return true;\n    }\n    \n    function getCreditTokenBalance() public view  returns (uint balance) {\n        return creditToken.balanceOf(address(this));\n    }\n    \n    function getEtherBalance() public view returns (uint){\n        return address(this).balance;\n    }\n    \n    function disburseLoan() onlyOnState(DISBURSING_LOAN) private returns(bool success){\n        borrower.transfer(loanAmount);\n        return true;\n    }\n    \n    function returnCollateral() public returns(bool success){ //SET TO PRIVATE!!!\n        borrower.transfer(address(this).balance);\n        return true;\n    }\n    \n    function returnAllCreditTokens() public returns(bool success){ //SET TO PRIVATE!!!\n        creditToken.transfer(borrower, creditToken.balanceOf(address(this) ) );\n        return true;\n    }\n}\n",
  "sourcePath": "C:/projects/sake/contracts/LoanContract.sol",
  "compiler": {
    "name": "solc",
    "version": "0.8.1+commit.df193b15.Emscripten.clang"
  },
  "schemaVersion": "3.3.3",
  "updatedAt": "2021-01-28T02:47:39.531Z",
  "devdoc": {
    "kind": "dev",
    "methods": {},
    "version": 1
  },
  "userdoc": {
    "kind": "user",
    "methods": {},
    "version": 1
  }
}