{
  "contractName": "Owned",
  "abi": [
    {
      "inputs": [],
      "name": "owner",
      "outputs": [
        {
          "internalType": "address",
          "name": "",
          "type": "address"
        }
      ],
      "stateMutability": "view",
      "type": "function"
    }
  ],
  "bytecode": "0x608060405234801561001057600080fd5b5060f78061001f6000396000f3fe6080604052348015600f57600080fd5b506004361060285760003560e01c80638da5cb5b14602d575b600080fd5b60336047565b604051603e91906078565b60405180910390f35b60008054906101000a900473ffffffffffffffffffffffffffffffffffffffff1681565b6072816091565b82525050565b6000602082019050608b6000830184606b565b92915050565b6000609a8260a1565b9050919050565b600073ffffffffffffffffffffffffffffffffffffffff8216905091905056fea26469706673582212206c8222fcbe6a683d7c8015b94ba4bc20d24a0b06bb4f36ab435fa94242a54c3764736f6c63430008010033",
  "immutableReferences": {},
  "source": "// SPDX-License-Identifier: MIT\npragma solidity ^0.8.0;\n\nimport \"./Loan.sol\";\n\n//safemath?\n\ncontract Owned {\n    \n    address public owner;\n\n    function isOwned() internal {\n        owner = msg.sender;\n    }\n\n    modifier onlyOwner() {\n        require(msg.sender == owner);\n        _;\n    }\n}\n\ncontract LendingPool is Owned {\n    \n    struct Balance {\n        uint balance;\n        uint lastPayment;\n        uint totalPayable;\n    }\n    mapping( address => Balance[] ) public balances;\n    address[] private lenders;\n    CreditToken constant public creditToken = CreditToken(0x80cDF946c1c86B7eee50743E2bc9a6d7d9ed597A);\n    \n    uint public immutable maxSize;\n    mapping(address => address[]) public loansOfBorrower;\n    mapping(address => uint) public paidByLoan;\n    uint public periodInterest;\n    uint public periodFees;\n    \n    event Log(string msg);\n    event totalInterestWorthyBalanceEvent(address lender,uint balance, bool multipleBalances);\n    event genericUint(string name, uint value);\n    \n    constructor(uint _maxSize){\n        \n        maxSize = _maxSize;\n        \n        isOwned();\n    }\n    \n    \n    receive() external payable{\n        \n        require(address(this).balance <= maxSize, \"This pool is full\");\n        if (balances[msg.sender].length == 0 ){\n            emit Log(\"New Lender\");\n            lenders.push(msg.sender);\n        }\n        Balance memory newBalance;\n        newBalance.balance = msg.value;\n        newBalance.lastPayment = block.timestamp;\n        balances[msg.sender].push(newBalance);\n        emit Log(\"added lender balance\");\n        \n    }\n    \n    function receiveFromLoan(uint fees, uint interest) external payable{\n        paidByLoan[msg.sender]+=msg.value;\n        periodFees += fees;\n        periodInterest += interest;\n        \n    }\n    \n    function liquidateLoan(address loanAddr) public {\n        \n    }\n    \n    function payLenders() public {\n        uint totalInterestWorthyCapital = calculateInterestWorthyCapital();\n        uint yieldRate = ((periodFees + periodInterest) * 1000000)/totalInterestWorthyCapital;\n        emit genericUint(\"yieldRate\", yieldRate);\n        \n        for (uint k; k<lenders.length; k++){\n            uint yield = (yieldRate * balances[lenders[k]][0].totalPayable)/1000000;\n            emit genericUint(\"yield: \", yield);\n            payable(lenders[k]).transfer(yield);\n            balances[lenders[k]][0].totalPayable = 0;\n        }\n        periodFees=0;\n        periodInterest=0;\n    }\n    \n    function calculateInterestWorthyCapital()public returns (uint){\n        uint totalInterestWorthyCapital;\n        \n        for (uint i; i<lenders.length; i++){\n            uint totalInterestWorthyBalance;\n            if (balances[lenders[i]].length>1){\n                uint realBalance;\n                for (uint j; j<balances[lenders[i]].length;j++){\n                    uint balance = balances[lenders[i]][j].balance;\n                    emit genericUint(\"balance\",balance);\n                    uint nDays = (block.timestamp-balances[lenders[i]][j].lastPayment)/60;\n                    emit genericUint(\"nDays\",nDays);\n                    totalInterestWorthyBalance+=balance*nDays;\n                    realBalance+=balance;\n                }\n                //after we have paid the lenders for balances introduced on different times, we\n                //proceed to unify the balances under a single date\n                for (uint j=1; j<balances[lenders[i]].length;j++){\n                    balances[lenders[i]].pop();\n                }\n                balances[lenders[i]][0].balance = realBalance;\n                balances[lenders[i]][0].lastPayment = block.timestamp;\n                balances[lenders[i]][0].totalPayable = totalInterestWorthyBalance;\n                emit totalInterestWorthyBalanceEvent(lenders[i], totalInterestWorthyBalance, true);\n            \n            }else{\n                uint balance = balances[lenders[i]][0].balance;\n                emit genericUint(\"balance\",balance);\n                uint nDays = (block.timestamp-balances[lenders[i]][0].lastPayment)/60;\n                emit genericUint(\"nDays\",nDays);\n                totalInterestWorthyBalance = balance*nDays;\n                balances[lenders[i]][0].totalPayable = totalInterestWorthyBalance;\n                emit totalInterestWorthyBalanceEvent(lenders[i], totalInterestWorthyBalance, false);\n            }\n            totalInterestWorthyCapital+=totalInterestWorthyBalance;\n        }\n        emit genericUint(\"totalCapital\", totalInterestWorthyCapital);\n        return totalInterestWorthyCapital;\n    }\n    \n    function getBalance() public view returns (uint) {\n        return address(this).balance;\n    }\n    \n    function transferAll(address to) public onlyOwner{\n        payable(to).transfer(address(this).balance);\n    }\n    \n    function viewLenders() public view returns (address [] memory) {\n        return lenders;\n    }\n    \n    function createLoan( uint _collateralRequired,address payable _borrower,\n                        uint _creditTokensRequired, uint _loanAmount,uint _loanTerm, // in days\n                        uint _interestRate  ) public {\n                            \n                            \n        //uint priorBalance = address(this).balance;            \n        //For documentation: https://github.com/ethereum/solidity/blob/develop/Changelog.md#062-2020-01-27\n         Loan newLoan = new Loan{value: _loanAmount}(\n                                 _collateralRequired,\n                                 _borrower,\n                                 _creditTokensRequired,\n                                 _loanAmount,\n                                 _loanTerm, // in days\n                                 _interestRate \n                             );\n                             \n         creditToken.whitelistAddress ( address(newLoan) );\n         creditToken.approve (_borrower, address(newLoan), _creditTokensRequired);\n         \n         loansOfBorrower[_borrower].push(address(newLoan));\n         \n     }\n    \n}",
  "sourcePath": "/Users/robertocantu/blockchain_programming/sake/contracts/LendingPool.sol",
  "compiler": {
    "name": "solc",
    "version": "0.8.1+commit.df193b15.Emscripten.clang"
  },
  "schemaVersion": "3.3.3",
  "updatedAt": "2021-02-04T02:13:36.585Z",
  "devdoc": {
    "kind": "dev",
    "methods": {},
    "version": 1
  },
  "userdoc": {
    "kind": "user",
    "methods": {},
    "version": 1
  }
}