{
  "contractName": "Whitelist",
  "abi": [
    {
      "inputs": [
        {
          "internalType": "uint256",
          "name": "",
          "type": "uint256"
        }
      ],
      "name": "whitelistedAddress",
      "outputs": [
        {
          "internalType": "address",
          "name": "",
          "type": "address"
        }
      ],
      "stateMutability": "view",
      "type": "function"
    },
    {
      "inputs": [
        {
          "internalType": "address",
          "name": "pool",
          "type": "address"
        }
      ],
      "name": "whitelistAddress",
      "outputs": [],
      "stateMutability": "nonpayable",
      "type": "function"
    },
    {
      "inputs": [
        {
          "internalType": "address",
          "name": "pool",
          "type": "address"
        }
      ],
      "name": "blacklistAddress",
      "outputs": [],
      "stateMutability": "nonpayable",
      "type": "function"
    }
  ],
  "bytecode": "0x608060405234801561001057600080fd5b50610551806100206000396000f3fe608060405234801561001057600080fd5b50600436106100415760003560e01c806341566585146100465780634a0283d614610062578063f3290d7514610092575b600080fd5b610060600480360381019061005b91906103b8565b6100ae565b005b61007c600480360381019061007791906103e1565b6101fe565b604051610089919061043c565b60405180910390f35b6100ac60048036038101906100a791906103b8565b61023d565b005b60011515600160003373ffffffffffffffffffffffffffffffffffffffff1673ffffffffffffffffffffffffffffffffffffffff16815260200190815260200160002060009054906101000a900460ff16151514610141576040517f08c379a000000000000000000000000000000000000000000000000000000000815260040161013890610457565b60405180910390fd5b60018060008373ffffffffffffffffffffffffffffffffffffffff1673ffffffffffffffffffffffffffffffffffffffff16815260200190815260200160002060006101000a81548160ff0219169083151502179055506000819080600181540180825580915050600190039060005260206000200160009091909190916101000a81548173ffffffffffffffffffffffffffffffffffffffff021916908373ffffffffffffffffffffffffffffffffffffffff16021790555050565b6000818154811061020e57600080fd5b906000526020600020016000915054906101000a900473ffffffffffffffffffffffffffffffffffffffff1681565b60011515600160003373ffffffffffffffffffffffffffffffffffffffff1673ffffffffffffffffffffffffffffffffffffffff16815260200190815260200160002060009054906101000a900460ff161515146102d0576040517f08c379a00000000000000000000000000000000000000000000000000000000081526004016102c790610457565b60405180910390fd5b6000600160008373ffffffffffffffffffffffffffffffffffffffff1673ffffffffffffffffffffffffffffffffffffffff16815260200190815260200160002060006101000a81548160ff0219169083151502179055506000819080600181540180825580915050600190039060005260206000200160009091909190916101000a81548173ffffffffffffffffffffffffffffffffffffffff021916908373ffffffffffffffffffffffffffffffffffffffff16021790555050565b60008135905061039d816104ed565b92915050565b6000813590506103b281610504565b92915050565b6000602082840312156103ca57600080fd5b60006103d88482850161038e565b91505092915050565b6000602082840312156103f357600080fd5b6000610401848285016103a3565b91505092915050565b61041381610488565b82525050565b6000610426601283610477565b9150610431826104c4565b602082019050919050565b6000602082019050610451600083018461040a565b92915050565b6000602082019050818103600083015261047081610419565b9050919050565b600082825260208201905092915050565b60006104938261049a565b9050919050565b600073ffffffffffffffffffffffffffffffffffffffff82169050919050565b6000819050919050565b7f4e6f74207768697465206c697374656421210000000000000000000000000000600082015250565b6104f681610488565b811461050157600080fd5b50565b61050d816104ba565b811461051857600080fd5b5056fea2646970667358221220e64b0bec23bf9919ba35de5fb662c30a6512801ffb78c37134d2f4d57691b32164736f6c63430008010033",
  "immutableReferences": {},
  "source": "// SPDX-License-Identifier: MIT\npragma solidity ^0.8.0;\n\ninterface ERC20Interface {\n\n    function totalSupply() external view returns (uint);\n    function balanceOf(address tokenOwner) external view returns (uint balance);\n    function allowance(address tokenOwner, address spender) external view returns (uint remaining);\n    function transfer(address to, uint tokens) external returns (bool success);\n    function approve(address owner, address spender, uint tokens) external returns (bool success);\n    function transferFrom (address from, address to, uint tokens) external returns (bool success);\n\n    event Transfer(address indexed from, address indexed to, uint tokens);\n    event Approval(address indexed tokenOwner, address indexed spender, uint tokens);\n    \n}\n\ncontract SafeMath {\n    function safeAdd(uint a, uint b) internal pure returns (uint c) {\n        c = a + b;\n        require(c >= a);\n    }\n    function safeSub(uint a, uint b) internal pure returns (uint c) {\n        require(b <= a); c = a - b; \n        \n    } \n    function safeMul(uint a, uint b) internal pure returns (uint c) { \n        c = a * b; \n        require(a == 0 || c / a == b); \n    } \n    function safeDiv(uint a, uint b) internal pure returns (uint c) { \n        require(b > 0);\n        c = a / b;\n    }\n}\n\ncontract Owned {\n    \n    address owner;\n\n    function isOwned() internal {\n        owner = msg.sender;\n    }\n\n    modifier onlyOwner() {\n        require(msg.sender == owner);\n        _;\n    }\n}\ncontract Whitelist {\n    \n    address[] public whitelistedAddress;\n    \n    mapping (address => bool) lendingPoolAddr;\n    \n    modifier onlyWhiteListed {\n            require(lendingPoolAddr[msg.sender]==true,\"Not white listed!!\");\n            _;   \n    }\n    \n    function whiteListOwner(address owner) internal {\n        lendingPoolAddr[owner] = true;\n        whitelistedAddress.push(owner);\n    }\n\n    function whitelistAddress (address pool) external onlyWhiteListed {\n        lendingPoolAddr[pool] = true;\n        whitelistedAddress.push(pool);\n    }\n    \n    function blacklistAddress (address pool) external onlyWhiteListed {\n        lendingPoolAddr[pool] = false;\n        whitelistedAddress.push(pool);\n    }\n    \n}\n\ncontract CreditToken is ERC20Interface, SafeMath, Owned, Whitelist {\n        \n    bytes32 public name;\n    bytes32 public symbol;\n    uint8 public decimals;\n    address [] whiteList;\n    \n    uint256 public _totalSupply;\n    \n    mapping(address => uint) balances;\n    mapping(address => mapping(address => uint)) allowed;\n    \n    event LogCoinsMinted(address deliveredTo, uint amount);\n    event LogCoinsBurned(address burnedFrom, uint amount);\n    \n    \n    constructor() {\n        name = \"CreditToken\";\n        symbol = \"CT\";\n        decimals = 3;\n        _totalSupply = 0;\n        \n        isOwned();\n        whiteListOwner(msg.sender);\n\n        balances[msg.sender] = _totalSupply;\n        emit Transfer(address(0), msg.sender, _totalSupply);\n    }\n\n        function totalSupply() public override view returns (uint) {\n            return _totalSupply - balances[address(0)];\n        }\n        \n        function checkScore() public view returns (uint score) {\n            score = balances[msg.sender];\n            return score;\n        }\n        \n        function balanceOf(address tokenOwner) public view override returns (uint balance) {\n            return balances[tokenOwner];\n        }\n        \n        //This shows how much allowance the spender has to spend the tokenOwner tokens.\n        function allowance(address tokenOwner, address spender) public view override returns (uint remaining) {\n            return allowed[tokenOwner][spender];\n        }\n        \n        //should be onlyWhiteListed because this allows an address to spend from anotherone.\n        function approve(address owner, address spender, uint tokens) public override onlyWhiteListed returns (bool success) {\n            allowed[owner][spender] = tokens;\n            emit Approval(owner, spender, tokens);\n            return true;\n        }\n        \n        //Use this method if you are the owner of the tokens.\n        function transfer(address to, uint tokens) public override onlyWhiteListed returns (bool success) {\n            balances[msg.sender] = safeSub(balances[msg.sender], tokens);\n            balances[to] = safeAdd(balances[to], tokens);\n            emit Transfer(msg.sender, to, tokens);\n            return true;\n        }\n        \n        //Use this method if you want to transfer tokens of somebody else. You should have allowance first\n        //through the approve method.\n        function  transferFrom(address from, address to, uint tokens) public  override onlyWhiteListed returns (bool success) {\n            \n            require(tokens <= balances[from], \"Not enough balance for this tx\");\n            balances[from] = safeSub(balances[from], tokens);\n            allowed[from][msg.sender] = safeSub(allowed[from][msg.sender], tokens);\n            balances[to] = safeAdd(balances[to], tokens);\n            emit Transfer(from, to, tokens);\n            return true;\n        }\n        \n        function viewWhitelist() public view returns (address [] memory) {\n            return whitelistedAddress;\n           // return  whiteList;\n        }\n        \n        function mint(address owner, uint amount) external onlyWhiteListed {\n            balances[owner] += amount;\n            _totalSupply += amount;\n            LogCoinsMinted(owner, amount);\n        }\n        \n        \n        function burn(address owner, uint amount) external onlyWhiteListed {\n            balances[owner] -= amount;\n            _totalSupply -= amount;\n            LogCoinsBurned(owner, amount);\n        }\n        \n        \n        \n}",
  "sourcePath": "/Users/oscareduardosernarosero/Documents/US/Rice_U/sake/contracts/CreditToken.sol",
  "compiler": {
    "name": "solc",
    "version": "0.8.1+commit.df193b15.Emscripten.clang"
  },
  "schemaVersion": "3.3.3",
  "updatedAt": "2021-02-04T21:08:36.675Z",
  "devdoc": {
    "kind": "dev",
    "methods": {},
    "version": 1
  },
  "userdoc": {
    "kind": "user",
    "methods": {},
    "version": 1
  }
}