{
  "contractName": "Whitelist",
  "abi": [
    {
      "inputs": [
        {
          "internalType": "uint256",
          "name": "",
          "type": "uint256"
        }
      ],
      "name": "whitelistedAddress",
      "outputs": [
        {
          "internalType": "address",
          "name": "",
          "type": "address"
        }
      ],
      "stateMutability": "view",
      "type": "function"
    },
    {
      "inputs": [
        {
          "internalType": "address",
          "name": "pool",
          "type": "address"
        }
      ],
      "name": "whitelistAddress",
      "outputs": [],
      "stateMutability": "nonpayable",
      "type": "function"
    },
    {
      "inputs": [
        {
          "internalType": "address",
          "name": "pool",
          "type": "address"
        }
      ],
      "name": "blacklistAddress",
      "outputs": [],
      "stateMutability": "nonpayable",
      "type": "function"
    }
  ],
  "bytecode": "0x608060405234801561001057600080fd5b5061045f806100206000396000f3fe608060405234801561001057600080fd5b50600436106100415760003560e01c806341566585146100465780634a0283d614610062578063f3290d7514610092575b600080fd5b610060600480360381019061005b9190610343565b6100ae565b005b61007c6004803603810190610077919061036c565b6101c4565b60405161008991906103a4565b60405180910390f35b6100ac60048036038101906100a79190610343565b610203565b005b60008054906101000a900473ffffffffffffffffffffffffffffffffffffffff1673ffffffffffffffffffffffffffffffffffffffff163373ffffffffffffffffffffffffffffffffffffffff161461010657600080fd5b6001600260008373ffffffffffffffffffffffffffffffffffffffff1673ffffffffffffffffffffffffffffffffffffffff16815260200190815260200160002060006101000a81548160ff0219169083151502179055506001819080600181540180825580915050600190039060005260206000200160009091909190916101000a81548173ffffffffffffffffffffffffffffffffffffffff021916908373ffffffffffffffffffffffffffffffffffffffff16021790555050565b600181815481106101d457600080fd5b906000526020600020016000915054906101000a900473ffffffffffffffffffffffffffffffffffffffff1681565b60008054906101000a900473ffffffffffffffffffffffffffffffffffffffff1673ffffffffffffffffffffffffffffffffffffffff163373ffffffffffffffffffffffffffffffffffffffff161461025b57600080fd5b6000600260008373ffffffffffffffffffffffffffffffffffffffff1673ffffffffffffffffffffffffffffffffffffffff16815260200190815260200160002060006101000a81548160ff0219169083151502179055506001819080600181540180825580915050600190039060005260206000200160009091909190916101000a81548173ffffffffffffffffffffffffffffffffffffffff021916908373ffffffffffffffffffffffffffffffffffffffff16021790555050565b600081359050610328816103fb565b92915050565b60008135905061033d81610412565b92915050565b60006020828403121561035557600080fd5b600061036384828501610319565b91505092915050565b60006020828403121561037e57600080fd5b600061038c8482850161032e565b91505092915050565b61039e816103bf565b82525050565b60006020820190506103b96000830184610395565b92915050565b60006103ca826103d1565b9050919050565b600073ffffffffffffffffffffffffffffffffffffffff82169050919050565b6000819050919050565b610404816103bf565b811461040f57600080fd5b50565b61041b816103f1565b811461042657600080fd5b5056fea26469706673582212209d6d8a839c7d13bde80fd0fe59b0caa5c1dcf0d8fea53730ff056484cad8f76b64736f6c63430008010033",
  "immutableReferences": {},
  "source": "pragma solidity ^0.8.0;\n\ninterface ERC20Interface {\n\n    function totalSupply() external view returns (uint256);\n    function balanceOf(address tokenOwner) external view returns (uint balance);\n    function allowance(address tokenOwner, address spender) external view returns (uint remaining);\n    function transfer(address to, uint tokens) external returns (bool success);\n    function approve(address owner, address spender, uint tokens) external returns (bool success);\n    function transferFrom (address from, address to, uint tokens) external returns (bool success);\n\n\n\n    event Transfer(address indexed from, address indexed to, uint tokens);\n    event Approval(address indexed tokenOwner, address indexed spender, uint tokens);\n    \n}\n\ncontract SafeMath {\n    function safeAdd(uint a, uint b) internal pure returns (uint c) {\n        c = a + b;\n        require(c >= a);\n    }\n    function safeSub(uint a, uint b) internal pure returns (uint c) {\n        require(b <= a); c = a - b; \n        \n    } \n    function safeMul(uint a, uint b) internal pure returns (uint c) { \n        c = a * b; \n        require(a == 0 || c / a == b); \n    } \n    function safeDiv(uint a, uint b) internal pure returns (uint c) { \n        require(b > 0);\n        c = a / b;\n    }\n}\n\ncontract Owned {\n    \n    address owner;\n\n    function isOwned() internal {\n        owner = msg.sender;\n    }\n\n    modifier onlyOwner() {\n        require(msg.sender == owner);\n        _;\n    }\n}\ncontract Whitelist is Owned {\n    address[] public whitelistedAddress;\n    \n    \n    mapping (address => bool) lendingPoolAddr;\n\n    function whitelistAddress (address pool) external onlyOwner {\n        \n        lendingPoolAddr[pool] = true;\n        whitelistedAddress.push(pool);\n    }\n    function blacklistAddress (address pool) external onlyOwner {\n        \n        lendingPoolAddr[pool] = false;\n        whitelistedAddress.push(pool);\n    }\n    modifier onlyWhiteListed {\n            require(lendingPoolAddr[msg.sender]==true,\"Not white listed!!\");\n            _;\n            \n    }\n}\n\ncontract CreditToken is ERC20Interface, SafeMath, Owned, Whitelist {\n        \n    string public name;\n    string public symbol;\n    uint8 public decimals;\n    address [] whiteList;\n    \n    uint256 public _totalSupply;\n    \n    mapping(address => uint) balances;\n    mapping(address => mapping(address => uint)) allowed;\n    \n    event LogCoinsMinted(address deliveredTo, uint amount);\n    event LogCoinsBurned(address burnedFrom, uint amount);\n    \n    \n    constructor() {\n        name = \"CreditToken\";\n        symbol = \"CT\";\n        decimals = 3;\n        _totalSupply = 0;\n        \n        isOwned();\n\n        balances[msg.sender] = _totalSupply;\n        emit Transfer(address(0), msg.sender, _totalSupply);\n    }\n\n        function totalSupply() public override view returns (uint) {\n            return _totalSupply - balances[address(0)];\n        }\n        \n        function checkScore() public view returns (uint score) {\n            score = balances[msg.sender];\n            return score;\n        }\n        \n        function balanceOf(address tokenOwner) public view override returns (uint balance) {\n            return balances[tokenOwner];\n        }\n        \n        //This shows how much allowance the spender has to spend the tokenOwner tokens.\n        function allowance(address tokenOwner, address spender) public view override returns (uint remaining) {\n            return allowed[tokenOwner][spender];\n        }\n        \n        //should be onlyWhiteListed because this allows an address to spend from anotherone.\n        function approve(address owner, address spender, uint tokens) public override onlyWhiteListed returns (bool success) {\n            allowed[owner][spender] = tokens;\n            emit Approval(owner, spender, tokens);\n            return true;\n        }\n        \n        //Use this method if you are the owner of the tokens.\n        function transfer(address to, uint tokens) public override onlyWhiteListed returns (bool success) {\n            balances[msg.sender] = safeSub(balances[msg.sender], tokens);\n            balances[to] = safeAdd(balances[to], tokens);\n            emit Transfer(msg.sender, to, tokens);\n            return true;\n        }\n        \n        //Use this method if you want to transfer tokens of somebody else. You should have allowance first\n        //through the approve method.\n        function  transferFrom(address from, address to, uint tokens) public  override onlyWhiteListed returns (bool success) {\n            \n            require(tokens <= balances[from], \"Not enough balance for this tx\");\n            balances[from] = safeSub(balances[from], tokens);\n            require(tokens <= balances[from], \"Not enough balance for this tx\");\n            allowed[from][msg.sender] = safeSub(allowed[from][msg.sender], tokens);\n            \n            //debug event\n            //emit Allowed(allowed[from][msg.sender], msg.sender);\n            \n            balances[to] = safeAdd(balances[to], tokens);\n            emit Transfer(from, to, tokens);\n            return true;\n        }\n        \n        function viewWhitelist() public returns (address [] memory) {\n            whiteList = whitelistedAddress;\n            return  whiteList;\n        }\n        \n        function mint(address owner, uint amount) external onlyWhiteListed {\n            balances[owner] += amount;\n            _totalSupply += amount;\n            LogCoinsMinted(owner, amount);\n        }\n        \n        \n        function burn(address owner, uint amount) external onlyWhiteListed {\n            balances[owner] -= amount;\n            _totalSupply -= amount;\n            LogCoinsBurned(owner, amount);\n        }\n        \n        \n        \n}",
  "sourcePath": "C:/projects/sake/contracts/CreditToken.sol",
  "compiler": {
    "name": "solc",
    "version": "0.8.1+commit.df193b15.Emscripten.clang"
  },
  "schemaVersion": "3.3.3",
  "updatedAt": "2021-01-28T02:47:39.521Z",
  "devdoc": {
    "kind": "dev",
    "methods": {},
    "version": 1
  },
  "userdoc": {
    "kind": "user",
    "methods": {},
    "version": 1
  }
}